:020000040800F2
:1000000078A30020450100082D2F0008591A000888
:10001000752E00080D0D0008F361000800000000B7
:10002000000000000000000000000000253C000867
:10003000710F0008000000002D320008BD400008CC
:100040005F0100085F0100085F0100085F01000810
:100050005F0100085F010008451300085F01000808
:100060005F0100085F0100085F0100085F010008F0
:100070005F0100085F0100085F0100085F010008E0
:100080005F0100085F0100085F0100085F010008D0
:100090005F0100085F0100085F0100085F010008C0
:1000A0005F0100085F0100085F0100085F010008B0
:1000B0005F0100085F0100085F0100085F010008A0
:1000C0005F0100085F0100085F0100085F01000890
:1000D0005F010008595D0008AD5D00080D5E000875
:1000E0005F0100085F0100084D6100085F01000822
:1000F0005F0100085F0100085F0100085F01000860
:100100005F0100085F0100085F0100085F0100084F
:10011000B15C0008055D00085F0100085F01000890
:100120005F0100085F0100085F0100085F0100082F
:10013000DFF80CD000F0F0FB00480047A96E000883
:1001400078A300200648804706480047FEE7FEE700
:10015000FEE7FEE7FEE7FEE7FEE7FEE7FEE7FEE777
:10016000C540000831010008F0B480EA0102D40F54
:100170004200B2EB410F02D20246084611464A0045
:1001800042D0C30DDDB2C1F3C752AD1A202D35DA0E
:10019000C1F3160141F4000204B15242C5F1200638
:1001A00002FA06F12A411044B3EBD05F23D0C4B168
:1001B000012DA0EBC35009DCF0BC4FF0004202EA75
:1001C000C35200F50000DBB200F0EEBA400000F1CF
:1001D000807000EBC350A0F1807040EAD1704900FC
:1001E00009E0490841EAC071A0EBC35000F50000E6
:1001F000400800EBC350F0BC00F0CDBA61420122D0
:1002000002EB4101001BF6E7F0BC704781F00041B2
:10021000AAE780F00040A7E780EA010210B502F0EB
:100220000043400026D04A0023D04FEA106101EB82
:100230001261C0F35600C2F3560240F4000042F4CB
:100240000002A0FB0220A1F17F014FEA004014044C
:1002500001D000F1010050EA124001D44000491ED3
:10026000C2B20C0604EBD010401C4008802A02D019
:1002700003E0002010BD20F00100002900DA00207A
:10028000184310BD2DE9FE4F804681EA0300C00FE0
:100290000C46009021F0004123F00045B8EB02002D
:1002A000A94105D24046214690461C460B460246CF
:1002B00023F00040104304D14046214603B0BDE87E
:1002C000F08F270DC7F30A00C3F30A510290401ABA
:1002D0000190402866DAC3F3130040F4801B0098B5
:1002E000924620B10023D2EB030A63EB0B0B01987B
:1002F0005946C0F14002504600F01CFA06460D4631
:1003000050465946019A00F034FA10EB080061415A
:10031000002487EA115284EAE7731A433BD0009A1B
:100320003AB3019A012A4FEA075210DC001B61EB35
:1003300002014FF0004202EA0752CDE90042001CE0
:1003400041F5801132462B4600F068FAB6E7001BF3
:1003500061EB0201001C41F5801300185B4120187D
:10036000A2F5001747EB030140EAD570B6196D41BD
:1003700011E06D084FEA360645EAC0754FEA0752AC
:10038000001B61EB0201001C41F5801149084FEA96
:1003900030000019514132462B4603B0BDE8F04F02
:1003A00000F02FBA0098012240000023D0EB020297
:1003B00063EBE073009821464FEAE074B8EB00006D
:1003C00061EB0401E9E783F000435BE781F0004162
:1003D00058E72DE9FE4F81EA030404F0004421F0C0
:1003E000004100944FF0000B23F0004350EA010459
:1003F00002D052EA030404D10020014603B0BDE854
:10040000F08FC3F30A54C1F30A552C44A4F2F33419
:100410000194A0FB0254C1F3130141F48011C3F312
:10042000130343F4801301FB024400FB034E840AD0
:10043000970A44EA815447EA8357A4FB0768029568
:100440008D0A05FB07854FEA932C04FB0C54270506
:10045000029D4FEA065847EA1637B5EB08056EEBE2
:10046000070C870E920E47EA811742EA8312A7FB18
:100470000201B6EB0B0164EB00042B0D43EA0C33D5
:100480005E1844EB1C50DA465146E7FB0201C5F307
:1004900013044FEA0B3343EA14534FEA0432019C2E
:1004A00043EA0603A4F10C040294009CCDE900B4D5
:1004B00000F0B4F9A2E72DE9F04D81EA030404F05D
:1004C000004B21F0004514464FF0000A23F0004194
:1004D00050EA050220D054EA01021DD0C5F30A57A4
:1004E0000246C5F31303C1F31300C1F30A5640F4E7
:1004F000801543F48013A7EB0608101BD64608F2BC
:10050000FD3873EB050002D308F1010801E09218F1
:100510005B41B8F1000F03DA00200146BDE8F08D21
:1005200000204FF48011064684460EE0171B73EB43
:10053000050705D3121B63EB050306434CEA010CC8
:1005400049084FEA300092185B4150EA0107EDD1AB
:1005500052EA030012D082EA040083EA050108434C
:1005600003D100224FF0004308E0101BAB4102D240
:100570000122002302E06FF0010253101AEB060083
:100580004CEB085110EB0A0041EB0B01BDE8F04DBC
:1005900000F037B9C10F80EAE0700844CA0796231B
:1005A000002100F001B996230022114600F0FCB8AA
:1005B00000F0004220F00040C10DC0F3160040F4EE
:1005C00000007F2901DA00207047962903DCC1F181
:1005D0009601C84001E096398840002AF4D0404294
:1005E000704720F00040C10DC0F3160040F4000039
:1005F0007F2901DA00207047962903DCC1F19601BA
:10060000C840704796398840704770B5C1F30A52A8
:1006100001F000450024C1F3130140F2FF3341F41F
:1006200080119A4201DA002070BD40F233439A42B1
:10063000A2F2334203DC524200F08BF800E090401B
:100640002C43F1D0404270BD00F0004230F0004039
:100650000AD0C10D01F56071C0F3160042EA0151E4
:10066000C20840071143704700200146704701F05F
:10067000004330B421F0004150EA010206D00A0DD7
:10068000A2F56072C1F31301002A02DC30BC002025
:100690007047440F44EAC104C100E01830BC00EBCD
:1006A000C25000F078B830B50B4601460020202239
:1006B000012409E021FA02F59D4205D303FA02F56F
:1006C000491B04FA02F52844151EA2F10102F1DCCF
:1006D00030BD2DE9F05F0546002092469B468846D6
:1006E0000646814640241BE02846414647462246AE
:1006F00000F02FF853465A46C01A914110D31146C4
:100700001846224600F016F82D1A67EB01084F46EE
:1007100022460120002100F00DF817EB00094E41A0
:10072000201EA4F10104DFDC484631462A46434638
:10073000BDE8F09F202A04DB203A00FA02F10020F5
:1007400070479140C2F1200320FA03F3194390400F
:100750007047202A04DB203A21FA02F0002170477A
:1007600021FA02F3D040C2F1200291400843194619
:100770007047202A06DBCB17203A41FA02F043EA01
:10078000E07306E041FA02F3D040C2F1200291404A
:100790000843194670470029A8BF7047401C49000C
:1007A00008BF20F00100704710B4B0FA80FC00FAD6
:1007B0000CF050EA010404BF10BC704749B1CCF101
:1007C000200421FA04F411FA0CF118BF012121438D
:1007D0000843A3EB0C01CB1D0106000A002BBEBF92
:1007E000002010BC704700EBC35010440029A4BF88
:1007F00010BC7047401C490008BF20F0010010BC2D
:10080000704710B5002B08DA401C41F10001921826
:100810005B411A4301D120F0010010BD2DE9F04DDC
:1008200092469B4611B1B1FA81F202E0B0FA80F231
:1008300020329046FFF77EFF04460F4640EA0A004A
:1008400041EA0B0153465A46084303D12046394634
:10085000BDE8F08D114653EA010015D0C8F1400201
:100860005046FFF776FF05460E465046594642462B
:10087000FFF760FF084301D0012000E0002005439E
:1008800046EAE0762C4337430A984FEA4453A0EBFC
:1008900008004FEAD4240A304FF0000244EA4754DB
:1008A0004FEAD72502D500200146D1E701051019EE
:1008B0006941DDE9084500196941BDE8F04DA0E74F
:1008C000C1F30A52C1F3130140F2FF3341F4801126
:1008D0009A4202DA00200146704740F233439A42BE
:1008E000A2F2334202DC5242FFF733BFFFF722BFCE
:1008F00030B5002904DB4FF00044404264EB0101B5
:10090000002B04DB4FF00044524264EB0303994296
:1009100008BF904230BD0000064C074D06E0E0687D
:1009200040F0010394E8070098471034AC42F6D336
:10093000FFF702FC208001084080010870B501EB40
:10094000020410F8015B15F0070301D110F8013B18
:100950002A1106D110F8012B03E010F8016B01F801
:10096000016B5B1EF9D12B0705D40023521E0FD457
:1009700001F8013BFAE710F8013B02F10202A1EB9A
:10098000030303E013F8015B01F8015B521EF9D584
:10099000A142D6D3002070BD82B02DE9FF1FEFF336
:1009A000038001B4684600F1400000E901400C48B2
:1009B0000168C1F800D00B48D0F800D001BC80F32A
:1009C0000388BDE8FF1F01B000BD0648D0F800D085
:1009D00001BC80F30388BDE8FF1F01B000BD00002B
:1009E0004C0000204800002001461F2202EA11406E
:1009F0004FF6FF7202EA80103F2202EA11221043F2
:100A00004FF6FF7202EA401001F01F0210437047D8
:100A100070B505462E460BA1304603F037FB044661
:100A20001CB1204600F012F870BD07A1304603F05B
:100A30002DFB04461CB1204600F020F8F4E700BF6F
:100A4000F2E700006D730000730000002DE9F04133
:100A50000446254608A1284603F018FB0646701CEC
:100A600000F03EFF8046FFF7BCFD0746384604F025
:100A7000B9FDBDE8F08100002E00000070470000C5
:100A800070B505462E460BA1304603F0FFFA04462A
:100A90001CB1204600F0A4F870BD07A1304603F059
:100AA000F5FA04461CB1204600F008F8F4E700BF50
:100AB000F2E7000073657400636667002DE9FF418B
:100AC000064637460C20ADF8080039A1384603F039
:100AD000DDFA0546002D68D06878613806281CD2FA
:100AE000DFE800F003070B0F1317324801900424CE
:100AF00013E03148019008240FE0304801901024A1
:100B00000BE02F480190202407E02E48019040245C
:100B100003E02D480190802400BF00BFA878303842
:100B20000121814088B2ADF8080028A1284603F0D1
:100B3000ADFA18B110208DF8010022E024A128465A
:100B400003F0A4FA18B128208DF8010019E021A1C2
:100B5000284603F09BFA18B148208DF8010010E0F8
:100B60001DA1284603F092FA18B100208DF801006B
:100B700007E01AA1284603F089FA10B104208DF885
:100B8000010044F00100012102F05EFF03208DF816
:100B90000E00BDF80800ADF80C009DF801008DF8BE
:100BA0000F0003A9019800F0D4FCBDE8FF8100000C
:100BB0007000000000080140000C014000100140DE
:100BC0000014014000180140001C01406F757400C2
:100BD000697064006970750061696E00696E660015
:100BE0002DE9F0410646B0461AA1404603F04EFA00
:100BF00005466DB368786138062810D2DFE800F04A
:100C0000030507090B0D144C09E0144C07E0144CC4
:100C100005E0144C03E0144C01E0144C00BF00BF8D
:100C2000A8783038012181408FB211A1284603F005
:100C30002DFA05466878302803D13946204600F061
:100C40009DFD6878312803D13946204600F098FD93
:100C5000BDE8F0817000000000080140000C014078
:100C6000001001400014014000180140001C014028
:100C70002C00000006E04FF47A7100BF0A00A1F1D9
:100C80000101FBD10200A0F10100F4D17047000086
:100C900070B505462E460BA1304603F0F7F9044621
:100CA0001CB12046FFF7ECFE70BD08A1304603F0F2
:100CB000EDF904461CB12046FFF7AAFEF4E700BF99
:100CC000F2E70000706F72740000000064656C61F0
:100CD00079000000F0B5034600201C460D46104682
:100CE00003E014F8016B05F8016B1600A2F101078F
:100CF000BAB2F6D1F0BD30B5034601E003F8011BEE
:100D00001400A2F10105AAB2F8D130BD00BFFEE780
:100D100002E0002200F8012B0A00A1F1010399B2C0
:100D2000F7D17047044951F8201048F68F621140FE
:100D3000014A42F820107047005C004070B505463B
:100D40000C46284600F02EFE0646204600F02AFEFD
:100D5000864201D0002070BD07E015F8011B14F891
:100D6000012B914201D00020F5E7287810B12078BE
:100D70000028F2D10120EEE70FB42DE9F04186B052
:100D8000002501260027B00202F0AAF804465448C4
:100D90000078FF2801D1012000E0002050490978A7
:100DA000504A1278914201D1012100E0002108430C
:100DB0007DD00DA805902046059A0C9905F0FCFB06
:100DC000002005900DA8059069460C9800F0DAFC0B
:100DD00006462AE02846691CCDB21DF8000001280D
:100DE00004D0022806D003281AD115E0059880C83F
:100DF000059019E00598C01D20F007000590D0E986
:100E00000021DDF814C00CF1080C1046CDF814C018
:100E1000FFF7FBFB074607E0059880C8059003E055
:100E2000059880C8059000BF00BF3000A6F10106FC
:100E3000D0D1059880C80590002005902A480078F8
:100E4000FF2801D1012000E0002027490978B9429C
:100E500001DB012100E00021084338D0214623A016
:100E600003F0BEF82248007810F0020F0DD021499F
:100E7000087800F0F7F940B1204600F093FD804675
:100E8000424621461C4805F051F91948007810F0F7
:100E9000040F0FD01749487800F0E4F950B120460C
:100EA00000F080FD804642462146144800E011E0F3
:100EB00005F03CF91248006848B1204600F072FD88
:100EC00000F0FF08414620460D4A12689047204630
:100ED00001F0E0FF06B0BDE8F0015DF814FB000092
:100EE00078000020580000207A0000200D0A000041
:100EF0007900002028000020003801400044004014
:100F00007C00002002480078024908707047000009
:100F1000580000207800002070B504460D460320DC
:100F200003F0B0FB0A49887F03F076FB204602F00D
:100F30009FF9642004F056FB06480068C0884028EA
:100F400005DB03F007F9002002490968C88070BD7D
:100F5000389F0020B401002001490860704700005C
:100F60007C00002001490870704700007A000020D2
:100F70007047000010B500201A4908704FF4A070A7
:100F800001F0AEFF18490860002406E0FF20174971
:100F9000085517490855601CC4B2052CF6DB00241F
:100FA0001DE000201049096801EB4411486103204D
:100FB0000D49096801EB4411087200200A490968CB
:100FC00001EB441108610849096801EB4411C8604C
:100FD0000549096801EB44118861601CC4B20A2C00
:100FE000DFDB10BD6C000020700000202800002016
:100FF0002D00002038B5002454E02C48006800EB98
:101000004410006800284BD02848006800EB4410CA
:10101000C079012806D0022820D0032813D0042844
:1010200032D126E0032000902048006800EB4410F5
:10103000C3691E48006800EB4410214602681CA0EA
:10104000FFF79AFE2BE01948006800EB44100323D9
:10105000214602681CA0FFF78FFE20E013480068BD
:1010600000EB441003232146026817A0FFF784FE1B
:1010700015E00E48006800EB441003232146026887
:1010800011A0FFF779FE0AE00848006800EB441061
:101090000323214602680CA0FFF76EFE00BF00BFCD
:1010A000601CC4B20A2CA8DB38BD00007000002010
:1010B0004465766963655B25645D4E616D653A25BF
:1010C000735B25645D0000004465766963655B259C
:1010D000645D4E616D653A25730000002C49097806
:1010E0002C4A11702A490978491C294A117029494A
:1010F0000978294A1268274B1B7802EB43121171B9
:1011000026A1254A1268234B1B7802EB431211607B
:101110000021214A12681F4B1B7802EB43125171C8
:1011200004221D4909681B4B1B7801EB4311CA714E
:10113000012219490968174B1B7801EB43110A7208
:101140001849154A1268134B1B7802EB4312516180
:10115000114909680F4A127801EB4211C861002257
:101160000D4909680B4B1B7801EB4311CA60002144
:10117000094A1268074B1B7802EB431211610A4AB5
:1011800005490968034B1B7801EB43118A617047DD
:101190006C0000207D01002070000020535344317A
:1011A00033303600C92F0008B92F000810B50321CD
:1011B00024A0FFF7E1FD002441E02948006800EB8E
:1011C00044104069C8B32648006800EB4410C07959
:1011D000012806D0022817D003280ED004282BD1CE
:1011E0001EE01F4A126802EB4412107F1C4A12686C
:1011F00002EB4412516988471EE01949096801EB66
:1012000044114869804717E0154A126802EB4412FE
:10121000D069134A126802EB4412516988470BE007
:101220000F4A126802EB4412D0690D4A126802EBB1
:1012300044125169884700BF00BF601CC4B20A2C29
:10124000BBDB10BD546F732044657669636520492C
:101250006E69742E2E2E2E2E2E2E2E2E2E00000077
:10126000700000200146FF2901D100207047054889
:10127000006800EB4110406908B90020F6E7012042
:10128000F4E70000700000202DE9FC4F05460E46F3
:1012900017461C46DDE90CABA9464FF000080EE0EE
:1012A000CDE900AB19F8010B224639460B9B00F043
:1012B0000AF8601C84B208F101001FFA80F8B045FA
:1012C000EEDBBDE8FC8F2DE9F04706460C461746DD
:1012D0009846DDE9089A002514E00120A840304234
:1012E00005D042463946204600F0A6FD06E0D1452D
:1012F00004D04A463946204600F09EFD601C84B268
:10130000681CC5B2082DE8DBBDE8F0870020014964
:1013100008607047A400002000B5032000F0BAFA6E
:10132000064908600846006882B24FF48871044894
:1013300001F068FF032002F013FD00BDA0000020B3
:10134000C49E0020012000F003F800F0F9FD000029
:1013500001490860704700001404014030B504469C
:1013600004254FF4302000F06FF80546042D17D106
:101370000C48006940F002000A49086108464461CF
:10138000006940F0400008614FF4302000F05CF844
:1013900005460448006941F6FD71084001490861AD
:1013A000284630BD0020024004200B49C96801F0E6
:1013B000010109B101200EE00749C96801F00401EB
:1013C00009B1022007E00449C96801F0100109B120
:1013D000032000E004207047002002400348006919
:1013E00040F0800001490861704700000020024081
:1013F00070B504460D460426F00200F025F80646B6
:10140000042E11D10948006940F001000749086124
:101410002580F00200F018F806460448006941F6FD
:10142000FE71084001490861304670BD002002404D
:1014300002480349486003484860704723016745F4
:1014400000200240AB89EFCD00B502460423FFF730
:10145000ABFF034603E0FFF7A7FF0346521E012B35
:1014600001D1002AF7D102B90523184600BD70B595
:101470000B46044603E014F8015B03F8015B15001A
:10148000A2F10106B2B2F6D170BD2DE9F0470646D1
:10149000884614460027C146FFF7CAFF2046E117D9
:1014A00004EBD151C1F34F27E11704EBD15149129D
:1014B000B4EB412101D0781C87B2002507E04FF43E
:1014C000007101FB0760FFF749FF681C85B2BD4250
:1014D000F5DB002508E039F8021B2A466B1C9DB29B
:1014E00006EB4200FFF784FF2000A4F101018CB25B
:1014F000F1D1FFF773FFBDE8F08770B50446002512
:10150000107820B116782068B0FBF6F085B220681C
:10151000084420601078984203DA1078401C10705C
:1015200002E02068401B206016782068B0FBF6F0CF
:1015300080B270BD0FB438B5044606A800902046AE
:10154000009A059905F038F80020009038BC5DF845
:1015500014FB2DE9F041024600250026002000235F
:101560000024002791F803C00CF00F0591F803C088
:101570000CF0100CBCF1000F03D091F802C04CEA43
:10158000050591F800C0BCF1000F31D014680020AF
:101590002BE04FF0010C0CFA00F3B1F800C00CEA9C
:1015A00003069E4220D183004FF00F0C0CFA03F784
:1015B000BC4305FA03FC4CEA040491F803C0BCF1F7
:1015C000280F06D14FF0010C0CFA00FCC2F814C031
:1015D0000AE091F803C0BCF1480F05D14FF0010CAF
:1015E0000CFA00FCC2F810C0401C0828D1D31460CB
:1015F000B1F800C0BCF1FF0F34DD546800202EE0CC
:1016000000F1080C4FF0010808FA0CF3B1F800C023
:101610000CEA03069E4221D183004FF00F0C0CFA16
:1016200003F7BC4305FA03FC4CEA040491F803C039
:10163000BCF1280F05D100F1080C08FA0CF8C2F82B
:10164000148091F803C0BCF1480F07D100F1080CD9
:101650004FF0010808FA0CF8C2F81080401C082866
:10166000CED35460BDE8F08138B5044636E01D4A5B
:101670006068811A904217D009DC1B4940180DD0D0
:10168000B0F5806F0CD0B0F5006F13D10AE0B1F562
:10169000806F0BD0B1F5006F0CD109E0042509E093
:1016A000082507E0102505E0202503E0402501E09E
:1016B000802500BF00BF45F00100012102F0C4F900
:1016C00020788DF802002089ADF8000060788DF850
:1016D000030069466068FFF73CFF0C34207800285F
:1016E000C5D138BD0014014000F8FEBFF0B50A4670
:1016F000002300240021002500F00046B6F1004F31
:1017000002D11D4EF16901E01B4E7168C0F3034523
:1017100083B200F44016B6F5401F08D121F0706185
:10172000154E766826F07066134F7E6012E000F466
:101730008016B6F5801F06D1032606FA05F4A143EC
:1017400041F0706106E0460D360103FA06F6B1433A
:1017500041F0706122B1460D360103FA06F63143BD
:1017600000F00046B6F1004F02D1034EF16101E0F6
:10177000014E7160F0BD0000000001404161704702
:1017800001617047F0B504460A4600230020002599
:10179000214633E00E78252E02D10125461CB0B239
:1017A000012D2AD10E78642E06D1AC461E465F1C50
:1017B000BBB202F806C000250E78662E07D14FF0A6
:1017C000020C1E465F1CBBB202F806C000250E7854
:1017D000732E07D14FF0030C1E465F1CBBB202F8FC
:1017E00006C000250E78632E07D14FF0040C1E466C
:1017F0005F1CBBB202F806C00025491C0E78002E03
:10180000C8D1F0BDFEB50546002619480068009015
:101810001748001D006802901548083000680190C4
:1018200000241BE014E05DF824003E21B0FBF1F23F
:1018300001FB1207384603F091FC3146721CD6B208
:1018400068545DF824003E21B0FBF1F04DF824000F
:101850005DF824000028E6D1601CC4B2032CE1DB53
:1018600000223046711CCEB22A543046FEBD000024
:10187000E8F7FF1F0246002105E0505C08B9084662
:101880007047481C81B24FF6FF708142F5DB00BF04
:10189000F6E7000001460648006880B200EBC10090
:1018A000801D044A32F81000C0F3090070470000A0
:1018B000505C0040006000400FB438B5044606A8F4
:1018C00000902046009A059904F076FE00200090D2
:1018D000204600F067F8C0B238BC5DF814FB000089
:1018E0002DE9FC5F05460026B346B1464FF07E5A0F
:1018F00044E015F8014B2D2C01D101263EE02E2CA1
:1019000002D14FF0010B39E0302C2EDB392C2CDCCE
:10191000BBF1000F0ED11F494846FEF77DFC814602
:10192000A4F13000FEF736FE07464946FEF71CFCE0
:10193000814623E05046FEF787FE0746164A174BBE
:10194000FEF747FDCDE90001FEF791FE8246A4F1C6
:101950003000FEF71FFE80465146FEF75DFC07464D
:101960004946FEF701FC814608E026B10C4948468D
:10197000FEF752FC81464846BDE8FC9F28780028C7
:10198000B7DC26B106494846FEF746FC8146484684
:10199000F2E70000000020419A9999999999B93F7E
:1019A000000080BF10B5014600200A4601E0431C3C
:1019B00098B212F8014B002CF9D110BD0020002183
:1019C0000CE001EB4102074B1B6803EB021212898A
:1019D000012A01D0421CD0B24A1CD1B21429F0DB3A
:1019E000704700006000002010B50246104605E078
:1019F0000378802B01DD801C00E0401C0B00A1F16E
:101A00000104E1B2F4D110BD10B5114B18681B1DD3
:101A100019681B1D1A684FF0FF3001460246A8B135
:101A20000C4CA070030A2371030CA371030E2372E4
:101A3000A1720B0A23730B0CA3730B0E2374A274F5
:101A4000130A2375130CA375130E237610BD000023
:101A5000E8F7FF1F8600002001E000F071FAFCE7C4
:101A600010B545F2555000F029F8062000F01AF89C
:101A70004FF47F6000F01CF800F00CF800F002F862
:101A800010BD00004CF6CC400149086070470000D2
:101A9000003000404AF6AA20014908607047000063
:101AA00000300040014948607047000000300040AD
:101AB000014988607047000000300040014908601B
:101AC000704700000030004002460B4600210AE04B
:101AD000505C984201D108467047505C08B900201C
:101AE000FAE7481CC1B2F3E730B503460C460021C3
:101AF00013E0585C802805DA585C2578A84201D1AB
:101B0000084630BD585C802805DB585A2588A84215
:101B100001D10846F5E7481CC1B21000A2F1010549
:101B2000EAB2E6D1FF20ECE72DE9F043B3B0074677
:101B30000E461446C822002101A8FFF7DCF814F075
:101B4000010F03D001A92FA002F04AFA14F0020FEE
:101B500003D001A92CA002F043FA14F0040F03D023
:101B600001A92AA002F03CFA14F0080F03D001A941
:101B700029A002F035FA14F0100F03D001A92DA00E
:101B800002F02EFA14F0200F07D003F04BFB01A94E
:101B9000D0F81090484602F023FA14F0400F03D01A
:101BA00001A92BA002F01CFA01A92AA002F018FA40
:101BB00001A8FFF7F7FE00F0FF08262F0ED13178BD
:101BC00001A8FFF781FF0546681CC5B2A8F1010016
:101BD000A84200DC002501A8405D3070282F0DD1FF
:101BE000317801A8FFF770FF054615B9A8F101008B
:101BF000C5B2681EC5B201A8405D307033B0BDE803
:101C0000F08300002E0000002D0000003031323340
:101C10003435363738390000616263646566676859
:101C2000696A6B6C6D6E6F707172737475767778AC
:101C3000797A00004142434445464748494A4B4C63
:101C40004D4E4F505152535455565758595A000003
:101C50000D0A00000A0000002DE9F047B2B08046EE
:101C6000894615464E46C82200216846FFF743F8CC
:101C700015F0010F03D069463CA002F0B1F915F050
:101C8000020F03D069463AA002F0AAF915F0040F3A
:101C900003D0694637A002F0A3F915F0080F03D06E
:101CA000694637A002F09CF915F0100F03D0694681
:101CB0003AA002F095F915F0200F07D003F0B2FA20
:101CC0006946D0F810A0504602F08AF96846FFF73E
:101CD00069FEC7B2781CC7B23A4631466846FFF77C
:101CE00003FF0446FF2C00D10024B8F1260F16D1C3
:101CF0001DF80400802802DA601CC4B201E0A01CB8
:101D0000C4B2BC4200DB00241DF80400802803DAC2
:101D10001DF80400307002E03DF804003080B8F196
:101D2000280F17D1A01E1DF80000802802DA601EBF
:101D3000C4B201E0A01EC4B2FF2C00D13C461DF885
:101D40000400802803DA1DF80400307002E03DF83A
:101D5000040030803A4631466846FFF7C5FE044627
:101D6000FF2C00D1002432B0BDE8F0872E00000027
:101D70002D00000030313233343536373839000029
:101D80006162636465666768696A6B6C6D6E6F70CB
:101D90007172737475767778797A000041424344A2
:101DA00045464748494A4B4C4D4E4F50515253546B
:101DB00055565758595A000070B5064600240DE094
:101DC000002507E0802000FB0450074909680E54F5
:101DD000681CC5B2802DF5DB601CC4B2082CEFDB9B
:101DE00001F08CF970BD0000B0010020F0B5044690
:101DF0000F4615461E4606E02046621C94B2324647
:101E0000394600F019F82800A5F101018DB2F3D18F
:101E1000F0BDF0B507460C4615461E4606E02146C5
:101E2000621C94B23246384600F006F82800A5F14C
:101E300001018DB2F3D1F0BDF0B5144600257F2825
:101E400001DC3F2900DDF0BD0B46CF1701EB5777D2
:101E5000FF10C7F10707FAB2CF1701EB5777FF1052
:101E6000A1EBC707FEB2C6F107070123BB40DDB2F5
:101E700084B1802303FB02030F4F3F68FB5C2B43BD
:101E8000802707FB0207DFF830C0DCF800C00CF841
:101E900007300FE0802303FB0203074F3F68FB5C22
:101EA000AB43802707FB0207DFF80CC0DCF800C05B
:101EB0000CF8073000BFC6E7B001002070B504463B
:101EC0000D462B4622460249024800F005F870BD37
:101ED00000F803086F1400082DE9F047074688460C
:101EE00014461D46A14608EBC52004222146B847EA
:101EF0004E463088B0F5006F01DD012000E0002083
:101F00003188042901DA012100E00021084300D0D2
:101F100013E0328808EBC5202146B8473088001FFF
:101F200081B209F1040003F02FF98246718851450E
:101F300000D002E00120BDE8F0870020FBE70000B0
:101F400071B600BF0648006800F4E0600549084328
:101F5000001D03490860BFF3408F00BF00BFFEE7CC
:101F60000CED00E00000FA0510B504464848006892
:101F70000078FF2801D102F0EDF802F0F5F84448AE
:101F80000068406942490968896988421DD001207A
:101F900000F054FD3E490968886900F041FE0020C8
:101FA00000F04CFD3A490968486900F039FE3848AC
:101FB00000684069364909688861354800680078DA
:101FC00020F0010032490968087031480068007843
:101FD00010F0010F0FD0002000F030FD2C490968EF
:101FE000486900F01DFE2A480068007820F00100D2
:101FF000274909680870264800680069A04219D07E
:10200000012000F01BFD22490968086900F042F830
:10201000002000F013FD204600F03CF81C4800684A
:1020200004611B480068007820F002001849096824
:10203000087015E016480068007810F0020F0FD005
:10204000002000F0FBFC12490968C86800F022F883
:102050000F480068007820F002000D4909680870F8
:102060000B480068007810F0080F0FD0002000F037
:10207000E5FC07490968C86800F00CF804480068E6
:10208000007820F0080002490968087010BD0000BF
:10209000D0010020F0B59BB0064634460CB91BB009
:1020A000F0BD4F49887F02F0B7FA00204D4F0090F5
:1020B0003F687B8C4B4F3F683A8C4A4F3F68F98BA7
:1020C000484F3F68B88B02F06FFB46480068817943
:1020D00044480068401C405C4249096891F824105B
:1020E00090FBF1F0C5B23F48006890F824006843C7
:1020F00000EB400004EB80043B48007885422FD081
:1021000003F096F88789DFF8DCC00097DCF800C0A0
:10211000BCF822C0ACF1020C1FFA8CF3DFF8C4C08B
:10212000DCF800C0BCF820C0ACF1020C1FFA8CF245
:10213000DFF8B0C0DCF800C0BCF81EC00CF1010C28
:102140001FFA8CF1DFF89CC0DCF800C0BCF81CC0A2
:102150000CF1010C1FFA8CF002F0EEF92248057028
:10216000012533E01F480068C1681E480068827975
:102170001C480068401C805C00EB400001EB8000C4
:10218000A04204D103F054F80121417003E003F0B0
:102190004FF800214170214602A800F039FA02A848
:1021A00001F066F8681CC0B205460E49096891F84E
:1021B0002410884200DD0CE00C3403F039F8811D56
:1021C00003F030F800780A8810440880207A00284C
:1021D000C8D100BF03F02CF80021417000BF5EE7BA
:1021E000389F0020D00100208C01002070B50446EB
:1021F000207A0B2846D007DC072837D2DFE800F02A
:10220000990D37997162510016380728F5D2DFE829
:1022100000F0339071908A7A820047480068C06865
:10222000454909680861607A4349096889798842A3
:102230000CDD607A40490968887100213E480068D9
:1022400082793D480068401C815403E0607A3A4935
:1022500009688871384960680968C860364800684C
:10226000007840F0020034490968087061E0606855
:1022700008B1606880475CE0606810B1607A6168AE
:10228000884756E061680878FEF78DF90646617A5E
:10229000042200F0EBFA0546FEF7A3F96168087026
:1022A00047E0616891F90000FEF774F90646617A2B
:1022B000062200F0DBFA0546FEF77AF940B26168C3
:1022C000087036E061680888FEF76DF90646617AA5
:1022D000042200F0CBFA0546FEF783F96168088016
:1022E00027E0617A62681068072200F0BFFA61682F
:1022F00008601EE06068007808B9012000E0002056
:102300006168087015E061680868052100F0F0F860
:10231000616808600DE061680888052100F048F8F0
:102320006168088005E0617A3722606800F01CFA75
:1023300000BF00BF70BD0000D00100202DE9FE4F9E
:1023400004460E4615461F46DDE90C9A17480068FC
:10235000C089029000200190281B1FFA80F8B81B4A
:102360001FFA80FBD8451EDD1BE008FB0AF090FB3E
:10237000F9F20198411C89B20191824203DA0B48BB
:1023800000688089029002983B46224631460090C0
:10239000204602F01DFA2046611C8CB2A84200DBE8
:1023A00000E0E2E700BFBDE8FE8F0000B4010020BE
:1023B0002DE9F04389B00746884600240C263DA04D
:1023C00000F028FB1222002104A8FEF794FCB8B20A
:1023D00001F0A8FE0390B8B201F0A4FE0290B8B2DA
:1023E00001F0A0FE01909DF80E0000909DF80930CC
:1023F0009DF8042031A104A8FFF75EFA4BE000200D
:1024000000F01CFB701CC1B2224604A800F0B8FF0B
:10241000002000F0EBF80546252D02D10CB1601E1E
:10242000C4B2272D03D1B44201DA601CC4B2B44255
:1024300016D1262D01D1012000E00020282D01D148
:10244000012100E0002108430AD000208DF81B0084
:1024500004A801F0E6FD8146FEF7C6FA07461BE038
:1024600064B9262D01D1012000E00020282D01D1E2
:10247000012100E00021084300D00DE0B44206DA5B
:10248000601E04AA811842462846FFF74DFB002132
:10249000701E04AA1154B2E700BF012000F0CEFA6A
:1024A000701CC1B2012204A800F06AFF384609B0CE
:1024B000BDE8F083507574496E0000002530336428
:1024C0002E253033642E25303364000030B50748A4
:1024D0000068C46805490968C86800F08FFA0546B5
:1024E00005EB450004EB800030BD0000D00100206A
:1024F000F3B587B00F460024102635A000F08AFA05
:102500001222002102A8FEF7F6FB9DF81C009DF8A0
:102510001D10CDE900109DF81E309DF81F202EA142
:1025200002A8FFF7C9F945E0002000F087FA701C07
:10253000C1B2224602A800F023FF002000F056F8A6
:102540000546252D02D10CB1601EC4B2272D03D142
:10255000B44201DA601CC4B2B44210D1262D01D1BC
:10256000012000E00020282D01D1012100E0002100
:10257000084304D002A801F054FD07901BE064B9A1
:10258000262D01D1012000E00020282D01D10121BC
:1025900000E00021084300D00DE0B44206DA601EDE
:1025A00002AA81183A462846FFF7BEFA0021701E9B
:1025B00002AA1154B8E700BF012000F03FFA701CD6
:1025C000C1B2012202A800F0DBFE079809B0F0BDFD
:1025D000507574496E000000253033642E25303369
:1025E000642E253033642E253033640070B50546E3
:1025F00025B1284603F0AEF8044602E003F074F873
:10260000044614B16668707870BD0020FCE70000D5
:102610002DE9FF4105460C46207A0C2837D008DC0E
:1026200078D2DFE800F096159696282161969647B5
:10263000961A1A2838D006DC0D282FD0172840D03B
:10264000182867D146E01B2856D01C28F9D162E033
:1026500028462168FEF76EFF80E060680278284611
:102660002168FEF767FF79E06068028828462168E4
:10267000FEF760FF72E061680868FDF7E5FF064657
:102680000B46324628462168FEF754FF66E0606834
:10269000027828462168FEF74DFF5FE02846D4E91E
:1026A0000012FEF747FF59E02846D4E90012FEF772
:1026B00041FF53E06068026828462168FEF73AFF50
:1026C0004CE0606880470646324628462168FEF79F
:1026D00031FF43E060680078224B53F82020284601
:1026E0002168FEF727FF39E0606890F9002028464E
:1026F0002168FEF71FFF31E0606800786168497863
:10270000CDE9001060688378C27828462168FEF71A
:1027100011FF23E01DE06168098888B201F002FD25
:1027200003906168098888B201F0FCFC029061683E
:10273000098888B201F0F6FC01909DF80E00009027
:102740009DF809309DF8042028462168FEF7F2FE26
:1027500004E028462168FEF7EDFE00BF00BFBDE89B
:10276000FF810000800100202DE9F04786B08046FF
:102770000E46914600243BA000F04CF912220021A5
:1027800001A8FEF7B8FA01A9404601F017FC5BE08A
:10279000002000F053F9B01CC7B201A8805D80286A
:1027A00002DD2D2001A98855701E01A9085C802832
:1027B00001DA0020885523463A46314601A800F048
:1027C000BDFE0020FFF712FF0546252D02D10CB1FA
:1027D000601EC4B2272D04D1781EA04201DD601C0A
:1027E000C4B2781EA04210D1262D01D1012000E0F4
:1027F0000020282D01D1012100E00021084304D050
:10280000414601A801F0DAFB1FE064B9262D01D191
:10281000012000E00020282D01D1012100E000214D
:10282000084300D011E0BC420ADA601EC1B201A820
:10283000FFF7DAF882464A4651462846FFF70CFA77
:102840000021781E01AA1154A2E700BF012000F068
:10285000F5F823463A46314601A800F06FFE06B06F
:10286000BDE8F087507574496E0000002DE9FE4FF9
:1028700081460D4692460024681CC5B233A000F084
:10288000C9F80A2200216846FEF735FA4846FDF7E6
:10289000DBFE07463A460B462EA16846FFF70CF8CA
:1028A00045E0002000F0CAF8681CC1B22246684624
:1028B00000F066FD0020FFF799FE0646252E02D1A6
:1028C0000CB1601EC4B2272E03D1AC4201DA601CE9
:1028D000C4B2AC4210D1262E01D1012000E000206C
:1028E000282E01D1012100E00021084304D06846D0
:1028F000FEF7F6FF81461BE064B9262E01D10120C8
:1029000000E00020282E01D1012100E00021084331
:1029100000D00DE0AC4206DA601E6A4681185246CD
:102920003046FFF701F90021681E0DF80010B8E7E6
:1029300000BF012000F082F8681CC1B20122684685
:1029400000F01EFD4846BDE8FE8F0000507574493A
:102950006E000000252E33660000000070B50546AD
:10296000FF2023490968087022A0214909684861AD
:10297000002406E000211E480068401C0155601C30
:10298000C4B2052CF6DB0020194909688871184883
:102990000068C5601849887F01F03EFE0020144998
:1029A00009688883142012490968C8837F20104968
:1029B000096808843F200E490968488402F032FC07
:1029C00000780B490968498C094A1268D28B891A28
:1029D00091FBF0F00649096881F8240002200449BF
:1029E000096881F82500012001F04CFE70BD00004F
:1029F000D001002020000000389F00200146002068
:102A00000A4602E00C32431CD8B2137A002BF9D1EB
:102A10007047000010B5044607480068007840F091
:102A200002000549096808700348006844610020F5
:102A3000FFF79AFA10BD0000D001002030B504461F
:102A400034B9084D6B8BEA8A298BA88A01F0D4FD32
:102A5000012C06D1034D6B8BEA8AE98AE88A01F0E2
:102A6000CBFD30BD389F002008B50646B146282072
:102A700000F036FA68490860092000F031FA804613
:102A8000182000F02DFA0746002507E005EB450069
:102A9000404407EBC5014860681CC5B2032DF5DB57
:102AA0000321384602F06EFD01F05EFB02F012FEDB
:102AB000002002F043F90020009057480068438C42
:102AC00055480068028C0021084601F06DFE002088
:102AD000FFF7B4FF5148FEF73FFAFF20FEF742FA36
:102AE000FEF710FA00F0E8FD02F0E8F90120FFF728
:102AF000A5FF01F02FFB4846FFF730FF8BE0FFF703
:102B0000E5FC006844490968486143490968C868A8
:102B1000FFF72AFA40490968C868FFF76FFF3E4986
:102B20000968C8710020FFF761FD0446282C25D1F3
:102B300039480068C079401E374909688A793649A2
:102B40000968491C895C884210DD33480068817936
:102B500031480068401C405C401CC1B22E480068EF
:102B600082792D480068401C815407E000212A48E2
:102B70000068827928480068401C8154262C24D1A2
:102B800025480068817924480068401C405C80B179
:102B900021480068817920480068401C405C401E44
:102BA000C1B21D48006882791B480068401C8154EE
:102BB0000BE019480068C079401EC1B21648006891
:102BC000827915480068401C8154272C0FD1124986
:102BD0000968CA68104909688B790F490968491C56
:102BE000C95C01EB410102EB8100FFF7FFFA252CE4
:102BF00007D1002108480068827907480068401C16
:102C0000815405480068007840F0020002490968D4
:102C1000087002F0B2F872E7D0010020190F000826
:102C200038B5044604B938BD174DAB8B174D2D6828
:102C30002A8C164D2D68E98B144D2D68A88BFFF753
:102C4000D5F81148808B009010480068438C0F48DD
:102C50000068028C0021084601F0EEFB0A49C87F9B
:102C600001F0DAFC0420009008480068C38B074894
:102C70000068028C0021084601F096FD204600F015
:102C8000F7FA00BFCFE70000389F0020D0010020F6
:102C90002DE9FC4706460D463046FFF7BBFE0024F3
:102CA00083E00020FFF7CAFE1E20DFF8C0C1CDE997
:102CB0000004DCF800C0BCF822C0DFF8B091D9F8FD
:102CC0000090B9F81E90ACEB090808EBD87CDFF84F
:102CD0009C91D9F80090B9F81E9009EB6C0C0CF19E
:102CE0000A0C1FFA8CF3DFF884C1DCF800C0BCF8D2
:102CF00022C0DFF87891D9F80090B9F81E90ACEBBB
:102D0000090707EBD77CDFF86491D9F80090B9F890
:102D10001E9009EB6C0C1FFA8CF1DFF850C1DCF847
:102D200000C0BCF820C0ACF1020C1FFA8CF2DFF836
:102D30003CC1DCF800C0BCF81CC00CF1010C1FFA4F
:102D40008CF0FFF7FBFA4A49887F01F065FC4748A1
:102D50000068008C60431E2190FBF1F0283087B2A0
:102D60000120009041480068408C404A1268D28B94
:102D7000A0EB020808EBD8703C4A1268D28B02EB39
:102D800060000A3081B239480068438C3A4600201E
:102D900001F00AFD0020FFF751FE284602F022FC58
:102DA0000120FFF74BFE601CC4B21E2CFFF679AF6A
:102DB00002F03EFAB0F80C90DFF8B0C0CDF8009009
:102DC000DCF800C0BCF822C0DFF8A0A0DAF800A050
:102DD000BAF81EA0ACEB0A0707EBD77CDFF88CA093
:102DE000DAF800A0BAF81EA00AEB6C0C0CF10A0C81
:102DF0001FFA8CF3DFF874C0DCF800C0BCF822C006
:102E0000DFF868A0DAF800A0BAF81EA0ACEB0A0858
:102E100008EBD87CDFF854A0DAF800A0BAF81EA0BE
:102E20000AEB6C0C1FFA8CF1DFF840C0DCF800C034
:102E3000BCF820C0ACF1020C1FFA8CF2DFF82CC0F9
:102E4000DCF800C0BCF81CC00CF1010C1FFA8CF0BF
:102E500001F072FBFF200549096808700349096801
:102E6000C868FFF781F8BDE8FC870000D0010020AA
:102E7000389F002000BFFEE7054A1168486802E05D
:102E800009684A6810440A68002AF9D170470000AE
:102E90007400002002460A4B1868002106E0A2F1E7
:102EA0000803834200D107E0014600680368002B55
:102EB000F5D101B10B60704703680B6000BFFAE702
:102EC00074000020054908600021044A126811605E
:102ED0000821024A12685160704700007400002007
:102EE00010B503461048016803F1080083B20FE0F3
:102EF0000868401A4C68001B984208D3486842187A
:102F00005360086810600A6002F1080010BD09688B
:102F100008680028ECD1486842180020106053600F
:102F20000A6002F10800F1E7740000207047704762
:102F300070B5002100230F22C47804B3154C246817
:102F400004F4E064C4F5E064210AC1F10403CA405A
:102F5000447804FA03F184781440214309010E4CAB
:102F60000678A155047804F01F050124AC400578CB
:102F70006D11AD0005F1E025C5F8004109E00478C8
:102F800004F01F050124AC40044D0678761145F885
:102F9000264070BD0CED00E000E400E080E100E0C0
:102FA00002490143024A1160704700000000FA051F
:102FB0000CED00E07047000010B502480068FFF714
:102FC00069FF10BDB001002010B5044649480460F7
:102FD0004FF48060FFF784FF474908604548006868
:102FE000FEF742FB434A1268118F424A1268506B47
:102FF000FEF7C6FB3F4A1268918D3E4A1268906AFE
:10300000FEF7BEFB3B4A1268118C3A4A1268D0693F
:10301000FEF7B4FB0120FDF72DFE364A1268118C35
:10302000344A1268D069FEF7ABFB0021AE2000F0F5
:103030008DF80021D52000F089F80021502000F003
:1030400085F80021A82000F081F800213F2000F041
:103050007DF80021D32000F079F80021084600F027
:1030600075F80021402000F071F800218D2000F05B
:103070006DF80021142000F069F80021202000F0F4
:1030800065F80021022000F061F80021A12000F085
:103090005DF80021C02000F059F80021DA2000F08E
:1030A00055F80021122000F051F80021812000F095
:1030B0004DF80021EF2000F049F80021D92000F060
:1030C00045F80021F12000F041F80021DB2000F05C
:1030D0003DF80021302000F039F80021A42000F054
:1030E00035F80021A62000F031F80021AF2000F0D3
:1030F0002DF810BDAC010020B001002070B50024F7
:103100001EE004F1B001C8B2002100F01FF8002158
:10311000084600F01BF80021102000F017F80025E9
:103120000AE0802101FB0451074A1268505C01212A
:1031300000F00CF8681CC5B2802DF2DB601CC4B234
:10314000082CDEDB70BD0000B001002070B5044625
:103150000E4646B12A4A1268918D294A1268906A31
:10316000FEF70EFB07E0264A1268918D244A12688A
:10317000906AFEF703FB224A1268118F204A1268F8
:10318000506BFEF7FBFA002527E01D4A12681189F3
:103190001B4A12685068FEF7F1FA14F0800F08D04D
:1031A000174A1268918A164A12681069FEF7E8FAFF
:1031B00007E0134A1268918A114A12681069FEF7F3
:1031C000DDFA0F4A126811890D4A12685068FEF73D
:1031D000D7FA6006040E681CC5B2082DD5DB084A74
:1031E0001268118F064A1268506BFEF7C9FA044A3A
:1031F0001268918D024A1268906AFEF7C1FA70BD9A
:10320000AC010020F0B5561C7510074E06EB4104CA
:103210002B4605E034F8047B20F8017B401C5B1E44
:10322000002BF7D1F0BD00000060004070470000A7
:1032300010B5012002F090FF01240B48046000202B
:103240000A49088008460088074908600020091DCF
:1032500008604FF4E050054908800846008802499C
:103260000860002010BD0000405C00409E0100206E
:103270000FB410B5C4B047A8439003A8439A469929
:1032800003F09AF90E48006880780D490968097DB5
:1032900003AA0B4CCDE90021029024686389084CF5
:1032A00024682289064C2468E188054C2468A0889B
:1032B00000F0BAFF0020439044B010BC5DF814FB4E
:1032C000B40100200FB400B58FB011A80E9001A872
:1032D0000E9A109903F070F94FF47A7101A800F07A
:1032E000DDF800200E9001200FB05DF814FB000007
:1032F00010B5032209A10BA0FDF73EFD03220DA18D
:1033000010A0FDF739FD0322124913A0FDF734FD8B
:103310000322164916A0FDF72FFD10BD545035307D
:10332000322D5400426F6172645F4E616D653A25C3
:103330007300000053544D33324C313531524254F6
:10334000360000004350555F4D6F64656C3A25733D
:103350000000000000127A004370755F4F53435F16
:10336000465245513A2025644D687A0000A24A042D
:103370004370755F467265713A2025644D687A0026
:103380002DE9FC4707460D461646404991F82000B6
:1033900001F042F901F046FF40783D4A1268128C74
:1033A00000FB152101EBD170C0F34F0801242FE081
:1033B00001F038FF4178601C00FB01801FFA80F9A2
:1033C00001F030FF407804FB00801FFA80FA0320F0
:1033D00000902F480068438C4A460021504601F077
:1033E000E3F9601E385C8DF8040000208DF80500BC
:1033F000B44204D101F01CFF0121417003E001F04F
:1034000017FF0021417001A8FFF732FF601CC4B212
:10341000681EA042CCDC032000901D480068438C4D
:103420001B480068008C801E82B20021084601F013
:10343000BBF926B901F0FCFE0121417003E001F067
:10344000F7FE0021417013A0FFF712FF0520009046
:103450000F480068438C0E480068008C801E82B2C2
:103460000021084601F0A0F9681EB04204D101F025
:10347000DFFE0121417003E001F0DAFE002141701E
:1034800005A0FFF7F5FEBDE8FC870000389F00208F
:10349000D00100204E6F00005965730038B5054615
:1034A0000C4617A0FFF7B6FA174991F8200001F073
:1034B000B3F80420009015480068438C1348006856
:1034C000028C0021084601F06FF90020FFF7B6FAE0
:1034D0002846FFF7CDFE204602F084F80120FFF7D2
:1034E000ADFA2846FFF7C4FEFF20084909680870B6
:1034F00006490968C868FEF737FD012038BD00009D
:10350000496E666F72000000389F0020D0010020D5
:103510007047000000B585B06846FEF773F90322D6
:10352000694602A0FDF728FC05B000BD4F6E6C791E
:1035300049443A2573000000704700002DE9FF5F01
:103540000546894617461E464FF0010800200390A5
:10355000554991F8200001F05FF801F063FE4078D2
:10356000524A1268128C00FB192101EBD170C0F392
:103570004F0A012456E0B04504D101F059FE012163
:10358000417003E001F054FE0021417001F04AFE59
:103590004178601C00FB01A01FFA80FB01F042FE95
:1035A000407804FB00A080B20190032000903F48C7
:1035B0000068438C5A460021019801F0F5F8601E1E
:1035C000285C802810DD601E285C8DF80800285DCE
:1035D0008DF8090000208DF80A00A01CC4B208F183
:1035E000010000F0FF080CE0601E285C8DF8080068
:1035F00000208DF80900601CC4B208F1010000F041
:10360000FF089DF8080008B90120039003980128DD
:1036100005D120208DF8080000208DF8090002A8AF
:10362000FFF726FE781EA042A5DC032000901F486D
:103630000068438C1D480068008C801E82B2002107
:10364000084601F0B1F826B901F0F2FD0121417000
:1036500003E001F0EDFD0021417015A0FFF708FE29
:103660000520009011480068438C10480068008CC9
:10367000801E82B20021084601F096F8781EB04202
:1036800004D101F0D5FD0121417003E001F0D0FD2E
:103690000021417007A0FFF7EBFD01F0C9FD0021FB
:1036A0004170BDE8FF9F0000389F0020D00100203E
:1036B0004E6F00005965730010B5032108A0FDF797
:1036C0005BFBFFF715FEFFF723FFFFF723FFFDF777
:1036D00091FC00F013F8FFF72FFF00F02FF810BD5A
:1036E0000A546F732053797374656D20537461723B
:1036F000742E2E2E2E2E2E2E2E2E2E0010B5FEF7D0
:103700005DF9044603232246142102A0FDF734FB91
:1037100010BD00005461736B506F6F6C53697A6514
:103720003A256420627574206861732025642074D2
:1037300061736B206372656174652E0038B5002477
:103740001DE004EB44001549096801EB0010C06A54
:1037500098B10320009004EB44001049096801EB84
:103760000010038C04EB44000C49096801EB0010C5
:103770002146C26A0AA0FDF7FFFA601CC4B2142CED
:10378000DFDB601EC4B2FFF777FB054603232A4642
:1037900049F6404107A0FDF7EFFA38BD6000002070
:1037A0005461736B5B25645D4E616D653A257328CA
:1037B000256429004D656D6F727953697A653A25E4
:1037C000642062757420757365723A256400000088
:1037D00038B505462846FFF71DF9204991F8200025
:1037E00000F01AFF1FE00020FFF728F904200090E6
:1037F0001B480068438C1A480068028C0021084668
:1038000000F0D2FF01F014FD0121417015A0FFF777
:103810002FFD0020FEF7EAFE0446262C00D103E02F
:10382000282C00D100E0DEE700BF0120FFF706F9F9
:10383000042000900A480068438C09480068028C04
:103840000021084600F0B0FF01F0F2FC00214170B9
:1038500004A0FFF70DFD012038BD0000389F0020B7
:10386000D00100204F6B00002DE9F8438146002570
:1038700000264846FFF7CEF8354991F8200000F0C1
:10388000CBFE5BE03046FFF7D9F8032031490090CA
:103890000968098C01EB4107F91707EB9171C1F336
:1038A0008F022C490968B1F820804FEAE87108EBD3
:1038B00091718810274909684B8C002100F074FF32
:1038C00001F0B6FC457024A0FFF7D2FC0520214989
:1038D00000900968098C01EB4107F91707EB91711A
:1038E000C1F38F021B490968B1F820804FEAE871E3
:1038F00008EB91718810174909684B8C002100F082
:1039000053FF01F095FC0DB9012100E00021417049
:1039100012A0FFF7ADFC06B111E01EB90020FEF7C2
:1039200065FE0446262C00D10126282C00D1012654
:10393000252C00D10125272C00D10025A2E700BFAE
:1039400001F076FC002141702846BDE8F8830000B4
:10395000389F0020D00100204F6B00004E6F000008
:103960002DE9FE43002600270025F020FFF7B8FAD6
:10397000804600F0EFFB40E00027294623A0FFF738
:10398000A1FC002623E039467A1C97B2C1EB011155
:103990004FF0007202EB011105EB8502D200C2EB81
:1039A000021201EB0210F0224146FDF760FD4FF4D8
:1039B000FC601F21CA020023CDE90021029032469B
:1039C000F0214046FDF760FC06F1080086B2022EA9
:1039D000D9DB0020FEF70AFE0446252C03D1002D7A
:1039E00001DD681E85B2272C01D1681C85B2282C08
:1039F00000D103E0262C00D100E0BDE700BF404627
:103A0000FFF748FA01F0CEF9BDE8FE835061676523
:103A1000496E6465785B25645D205570446F776EF0
:103A2000457869740000000029B1064AD269024352
:103A3000044BDA6104E0034AD2698243014BDA6144
:103A4000704700000010024029B1064A9269024303
:103A5000044B9A6104E0034A92698243014B9A61E4
:103A6000704700000010024030B500210022002401
:103A700000232D4D6D6805F00C0121B1042905D0FE
:103A8000082923D105E0294D056022E0274D056076
:103A90001FE0254D6D6805F47012234D6D6805F427
:103AA0008034022505EB92421CB9214D5543056037
:103AB0000BE01D4D6D6805F400351DB11C4D5543DF
:103AC000056002E0194D5543056002E0174D0560A1
:103AD00000BF00BF144D6D6805F0F0010909154DD8
:103AE0006B5C0568DD4045600F4D6D6805F4E06175
:103AF000090A104D6B5C4568DD4085600A4D6D68B4
:103B000005F46051C90A0B4D6B5C4568DD40C5602A
:103B1000054D6D6805F44041890B074D6B5CC56828
:103B2000B5FBF3F5056130BD0010024000127A00CC
:103B300000093D000000002010000020014908603D
:103B400070470000D80042422DE9FE4300260027BE
:103B50000025F020FFF7C4F9804600F0FBFA41E0B1
:103B60000027294624A0FFF7ADFB002623E03946B5
:103B70007A1C97B2C1EB01114FF0006202EB011108
:103B800005EB8502D200C2EB021201EB0210F0221B
:103B90004146FDF76CFC4FF4FC601F21CA02002374
:103BA000CDE9002102903246F0214046FDF76CFB42
:103BB00006F1080086B2B6F5A07FD8DB0020FEF73C
:103BC00015FD0446252C03D1002D01DD681E85B2AC
:103BD000272C01D1681C85B2282C00D103E0262CAB
:103BE00000D100E0BCE700BF4046FFF753F901F009
:103BF000D9F8BDE8FE83000050616765496E6465D1
:103C0000785B25645D205570446F776E45786974E4
:103C10000000000010B501210148FDF767FD10BD4F
:103C2000000230007047000070B504460D462B4678
:103C300022460249024800F005F870BD00F803086A
:103C40008B1400082DE9F0478046894614461F462C
:103C500025462E463088001F81B2201D01F094FABF
:103C60007080328809EBC7202946C047BDE8F0873D
:103C70004FF6F8710140014A11607047505C0040F6
:103C800030B501460C4B1A7800200DE0C3B20B4C46
:103C900054F8233048F68F742340C4B22343C4B28F
:103CA000064D45F82430401C9042EFD341F080038C
:103CB000024C4C34236030BDF0000020005C00401A
:103CC00010B54A105300054A126892B202EBC002C6
:103CD000121D034C44F8123010BD0000505C00402F
:103CE0000060004010B502460F48006880B200EB4B
:103CF000C200801D0D4C04EB40033E290BDD481132
:103D000011F01F0F01D1441EA0B24FF4004444EA49
:103D100080241C6007E0481011F0010F01D0441C02
:103D2000A0B284021C6010BD505C004000600040E6
:103D300010B50A4B53F820304BF68F7403EA040297
:103D400011F4805F01D082F4805211F4005F01D041
:103D500082F40052014B43F8202010BD005C00406B
:103D6000074A52F820204BF68F7302EA030181F4D0
:103D7000805181F40051024A42F82010704700003F
:103D8000005C004010B54A105300044A126892B219
:103D900002EBC002024C44F8123010BD505C0040EF
:103DA00000600040044A126892B202EBC002921C0A
:103DB000024B43F812107047505C00400060004016
:103DC00010B50A4B53F8203048F6BF7403EA0402DA
:103DD00011F0100F01D082F0100211F0200F01D06D
:103DE00082F02002014B43F8202010BD005C00400F
:103DF000074A52F8202048F6BF7302EA030181F017
:103E0000100181F02001024A42F8201070470000A2
:103E1000005C0040054A52F8202048F68F131A40F3
:103E20000A43024B43F8202070470000005C00402A
:103E300010B500F001F810BD0CB500200190009005
:103E40003348006840F480303149086000BF304892
:103E5000006800F4003000900198401C0190009828
:103E600018B90198B0F5A06FF1D12948006800F4A5
:103E7000003010B10120009001E000200090009877
:103E8000012843D12348006840F010002149086010
:103E90000846006820F0030008600846006840F00B
:103EA000020008601A48406819494860084640689E
:103EB00048600846406840F48060486008464068B2
:103EC00020F47C1048600846406840F4E8104860E0
:103ED0000846006840F08070086000BF0C48006829
:103EE00000F000700028F9D00948406820F0030075
:103EF000074948600846406840F00200486000BF3B
:103F00000348406800F00C000828F9D10CBD0000FF
:103F1000001002400020024008B500F0D3F8012153
:103F200044F22400FFF790FD01210420FFF78CFDEF
:103F30004FF48070ADF8000003208DF802001420CB
:103F40008DF8030069460E48FDF703FB4FF48060CF
:103F5000ADF8000004208DF8030069460848FDF71D
:103F6000F8FA4FF40070ADF8000003208DF802005D
:103F700018208DF8030069460148FDF7EAFA08BDEC
:103F80000008014010B50020FFF7D8FD0121C80549
:103F9000FFF74AFD10BD000010B502460648006854
:103FA000438A32B98888C01A034C246820820020D2
:103FB00010BD08681844FBE79401002030B50346A3
:103FC0000C4600201946224605E011F8015B02F874
:103FD000015B451CA8B20D78002DF6D1157030BDDF
:103FE0002DE9F04106460D462C4637462846FDF79A
:103FF000D9FC04443046FDF7D5FC804618F1010099
:1040000001D1BDE8F08103E017F8010B04F8010BC2
:104010005FEA0800A8F10108F6D104F8010B00BF1F
:10402000EFE730B5014600230022002027E00C789E
:10403000302C01DB012400E000240D78392D01DC57
:10404000012500E000252C4209D002EB82044FF646
:10405000FF7505EA44020C78303C1444A2B20C7897
:104060002E2C05D10002FF2A00DDFF221043002282
:10407000491C1C465D1CEBB20F2C00DD02E00C78E5
:10408000002CD4D100BF0002104330BD10B5024651
:10409000087888B10CE0002305E0C818407808B91A
:1040A000104610BD5B1CD05CCC5CA042F5D0521C0D
:1040B00010780028EFD1F4E71046F2E710B501F0D0
:1040C0009FF910BD10B51348006840F00100114978
:1040D000086008464068104908400E494860084694
:1040E00000680E4908400B4908600846006820F443
:1040F000802008600846406820F4FE0048604FF4C5
:104100001F008860FFF794FE4FF0006004490860CC
:1041100010BD0000001002400000FFF8FFFFF6FE97
:1041200008ED00E008B501461F2000EAE1208DF807
:1041300000003F2000EA61108DF8010001F01F002F
:104140008DF80200BDF8002010469DF8022040EADC
:10415000024008BD10B503490968087BFDF72CFE35
:1041600010BD0000B4010020034804490860044861
:104170000449086070470000049F0020B40100203B
:104180001C9F0020B80100202DE9FE4F04460F4679
:104190009046A8F120052248006800794543204850
:1041A0000068806805441E4909684978081DC117E0
:1041B00000EB51714FEAE10B00262CE01948006832
:1041C0004078012808D117480068B0F810901548C9
:1041D0000068B0F80EA007E012480068B0F80E9032
:1041E00010480068B0F80CA00E480068408A0C4ADD
:1041F000CDE9009A029012681178094A1268127883
:1042000006FB02503B462246FDF73EF804F108004B
:1042100084B2701CC6B25E45D0DBBDE8FE8F0000E4
:10422000B8010020B40100202DE9FE4F05460E46DE
:1042300017469846DDF830A001200090A81C85B2F2
:10424000B81E87B2002002908346504600F08EF9D7
:10425000044614F4004F06D0C4F30E0474480068FA
:1042600090F8029003E07248006890F800900D9872
:10427000092872D2DFE800F0050C18202E415059B1
:104280006700681C80B20290701C1FFA80FB64E01B
:10429000791B081B00EBD07105EB610189B202911B
:1042A000701C1FFA80FB58E0381B401E80B2029041
:1042B000701C1FFA80FB50E0681C80B20290A8EBD3
:1042C0000601A1EB090000EBD07106EB61011FFABA
:1042D00081FB42E0791B081B00EBD07105EB61010B
:1042E00089B20291A8EB0601A1EB090000EBD071A5
:1042F00006EB61011FFA81FB2FE0381B401E80B2E4
:104300000290A8EB0601A1EB090000EBD07106EBCF
:1043100061011FFA81FB20E0681C80B20290A8EBCB
:104320000B00401E1FFA80FB17E0791B081B00EBF7
:10433000D07105EB610189B20291A8EB0B00401E20
:104340001FFA80FB09E0381B401E80B20290A8EBE8
:104350000B00401E1FFA80FB00BF00BF61E01AF88F
:10436000014B802C17DD4FF6FF7000EA04249AF809
:10437000000004430AF1010A2D480068C07801904A
:1043800022465946029800F07DF8DDE90110084404
:1043900080B2029021E00A2C0FD102950BEB0900AC
:1043A0001FFA80FB23480068858822480068C0887F
:1043B000484420490968C8800FE00D2C0DD01C48E6
:1043C000006840780190224659460298FFF7DCFECB
:1043D000DDE90110084480B202909AF80040802C78
:1043E00007DD13480068C1780298084480B2019044
:1043F00006E00F48006841780298084480B20190B6
:104400000198B8420DDD02950BEB09001FFA80FB05
:10441000C34501DDBDE8FE8F0098401CC0B200908E
:1044200000BF9AF80000002899DC00BFF2E7000006
:10443000B8010020B40100202DE9F04106460F46E6
:1044400014461D46DDF81880A01B82B2434639464B
:104450003046FDF7CBFCA01B82B2434629463046CE
:10446000FDF7C4FCE81B82B2434639463046FDF7EF
:10447000D0FCE81B82B2434639462046FDF7C9FC12
:10448000BDE8F0812DE9FE4705460F4690464046BF
:1044900000F088F8064626480068C088464324484D
:1044A0000068C0680644224A1268D178CA1701EB36
:1044B0005272D2101E4B1B68D878C31700EB53738F
:1044C000DB10B0EBC30301D0012300E000231A444A
:1044D0001FFA82F9002427E0164800684078012876
:1044E00004D114480068B0F810A003E01148006837
:1044F000B0F80EA00F480068418A0E480068808915
:104500000B4ACDE900A0029112689178084A12681E
:10451000927804FB02603B462A46FCF7B5FE05F1A3
:10452000080085B2601C84B24C45D5DBBDE8FE872F
:10453000B8010020B40100202DE9F04305460C46E7
:1045400016461F46DDF81C80701B401C1FFA80F9C0
:1045500007E02146621C94B243464A462846FDF7CE
:1045600045FCBC42F5DDBDE8F083000001460020BB
:1045700011E011F8013B802B08DD491C084A126844
:10458000D278024490B240F4004004E0044A126839
:104590005278024490B20A78002AEADC70470000A0
:1045A000B801002010B50346002100BF1AE01148F1
:1045B00000680069425C4FF6FF7000EA02220D4875
:1045C00000680469481C205C104482B2934205D103
:1045D0000C4601EBD470C0F34F0010BD481C81B2F3
:1045E000481C81B203480068808A8842DFDC0020D2
:1045F000F3E70000B801002010B5064C2468E08104
:10460000044C2468A281034C24682182014C246854
:10461000638210BDB401002010B504461248006842
:104620000470072C1DD2DFE804F01C04080C1014E1
:1046300018000E4800F02CF813E00D4800F028F8A0
:104640000FE00C4800F024F80BE00B4800F020F8D5
:1046500007E00A4800F01CF803E0094800F018F8E9
:1046600000BF00BF10BD0000B4010020847100082D
:1046700098710008AC710008C0710008D47100087E
:10468000E87100080149096888707047B40100208A
:1046900010B5044643480068846142480068806958
:1046A00040784049096808703E4800688069007891
:1046B0003C49096848703B4800688069407839493E
:1046C0000968887037480068806900784006000EE5
:1046D00034490968C870334A12685178CA1701EB27
:1046E0005272D2102F4B1B685878C31700EB5373CC
:1046F000DB10B0EBC30301D0012300E000231A4418
:10470000284B1B689B695B785A43264B1B681A71C0
:10471000244A1268D178CA1701EB5272D210214B89
:104720001B68D878C31700EB5373DB10B0EBC303DF
:1047300001D0012300E000231A441A4B1B689B6937
:104740005B785A43174B1B68DA801648006880690B
:104750004068144909688860124800688069C06828
:1047600010490968C8600F480068806900690D49F0
:10477000096808610B4909680869FDF77BF8094970
:1047800009688882074800688069806840B10549E7
:10479000096889698868FDF705F902490968C882CE
:1047A00010BD0000B801002030B5039C074D2D68F6
:1047B000A880064D2D68E980044D2D682A81034D9F
:1047C0002D686B81014D2D68AC8230BDB401002095
:1047D0002DE9F04F0746884691469A46DDF824B009
:1047E000A9EB0706AAEB0805002E66DB002D31DBDE
:1047F000AE4217DB304606EBD071A5EB61040EE04C
:104800005A4641463846FDF717FB002C04DD08F1F7
:1048100001001FFA80F8A41B781C87B22C444F4576
:10482000EEDDB1E0284605EBD071A6EB61040EE0A9
:104830005A4641463846FDF7FFFA002C02DD781C47
:1048400087B2641B08F101001FFA80F83444D04598
:10485000EEDD99E06D42AE4217DB304606EBD071DB
:10486000A5EB61040EE05A4641463846FDF7E4FAEE
:10487000002C04DDA8F101001FFA80F8A41B781CAD
:1048800087B22C444F45EEDD7EE0284605EBD07123
:10489000A6EB61040EE05A4641463846FDF7CCFAD5
:1048A000002C02DD781C87B2641BA8F101001FFAFE
:1048B00080F83444D045EEDA66E07642002D31DBF4
:1048C000AE4217DB304606EBD071A5EB61040EE07B
:1048D0005A4641463846FDF7AFFA002C04DD08F190
:1048E00001001FFA80F8A41B781E87B22C444F45A4
:1048F000EEDA49E0284605EBD071A6EB61040EE044
:104900005A4641463846FDF797FA002C02DD781EDC
:1049100087B2641B08F101001FFA80F83444D045C7
:10492000EEDD31E06D42AE4217DB304606EBD07172
:10493000A5EB61040EE05A4641463846FDF77CFA85
:10494000002C04DDA8F101001FFA80F8A41B781EDA
:1049500087B22C444F45EEDA16E0284605EBD071BD
:10496000A6EB61040EE05A4641463846FDF764FA6C
:10497000002C02DD781E87B2641BA8F101001FFA2B
:1049800080F83444D045EEDABDE8F08FFFF742F905
:1049900001211A48FCF7F2FE02211848FCF7EEFE4E
:1049A00004211648FCF7EAFE08211448FCF7E6FE4D
:1049B000642000F017FE01211048FCF7E1FE0221FF
:1049C0000E48FCF7DDFE04210C48FCF7D9FE082157
:1049D0000A48FCF7D5FE10E04FF47A7000F002FEB2
:1049E0004FF400410648FCF7C9FE642000F0FAFDD0
:1049F0004FF400410248FCF7C3FEEDE70010014010
:104A000000080140FFF788FAFFF7BCFA01F0D4FB79
:104A100001F0B4FB0FE04FF47A7000F0E3FD0648BC
:104A2000046806E0201D01F073FD201DFCF730F93D
:104A30002468002CF6D1EEE7D4010020FFF76CFAD1
:104A4000FFF7A0FA01F0B8FB01F098FB14A116489B
:104A500000F054FB15A1144800F050FB18A11248B7
:104A600000F04CFB18A1104800F048FB17A10E48BD
:104A700000F044FB19A10C4800F040FB13A10A48C8
:104A800000F03CFB1AA1084800F038FB1DA10648C5
:104A900000F034FB02E0642000F0A4FDFBE700001E
:104AA0007461736B310A0000D4010020706F72745E
:104AB0002E636667287063302C6F7574290A0000B6
:104AC0006C6F6F700A0000007B0A00002064656C48
:104AD00061792E6D732E313030300A0020706F7284
:104AE000742E736574287063302C30290A0000001E
:104AF00020706F72742E736574287063302C3129A6
:104B00000A0000007D0A000024A1264800F0F6FA01
:104B100025A1244800F0F2FA28A1224800F0EEFA7C
:104B20002BA1204800F0EAFA2EA11E4800F0E6FA78
:104B30002EA11C4800F0E2FA2DA11A4800F0DEFA7E
:104B400030A1184800F0DAFA32A1164800F0D6FA7F
:104B500035A1144800F0D2FA38A1124800F0CEFA7C
:104B60003AA1104800F0CAFA3DA10E4800F0C6FA7A
:104B700040A10C4800F0C2FA0A2000F033FD0BE01F
:104B80000848046806E0201D01F0C2FC201DFCF767
:104B90007FF82468002CF6D1F2E700007461736B93
:104BA000310A0000D8010020706F72742E636667AE
:104BB000287063312C6F7574290A0000706F72744D
:104BC0002E636667287063322C6F7574290A0000A3
:104BD000706F72742E636667287063332C6F757400
:104BE000290A00006C6F6F700A0000007B0A000049
:104BF00020706F72742E736574287063312C3029A5
:104C00000A0000002064656C61792E6D732E3130CE
:104C10000A00000020706F72742E73657428706330
:104C2000312C31290A00000020706F72742E7365D8
:104C300074287063322C31290A0000002064656CEE
:104C400061792E6D732E313030300A0020706F7212
:104C5000742E736574287063322C30290A000000AA
:104C600020706F72742E736574287063332C302932
:104C70000A0000007D0A00000A2000F0B3FC02E0F8
:104C8000642000F0AFFCFBE7B2B000250AE005EBC2
:104C90004500694601EB80001EA901EBC501486093
:104CA000681CC5B20A2DF2DB0A211EA800F06AFCBE
:104CB00010480078104908701BE00A2000F092FCB0
:104CC00000F012FD0646A6B174682079012804D0D0
:104CD000022805D003280BD106E02068804707E0B2
:104CE000207A2168884703E02168A068884700BFD0
:104CF00000BFE2E758000020800000209AB019E0D1
:104D00000A2000F06FFC642101A8FCF701F801A85B
:104D100001F0DEFB04466CB19DF8040050B19DF833
:104D200004008DF801006B4603220121024800783F
:104D300000F046FDE4E700008100002010B50446C5
:104D400000210948FDF7BAF830B900F043F84FF4F4
:104D50007A7106A0FEF7A2FB14B1204600F0C2F95A
:104D600000F020F810BD0000389F00204C6F6164F7
:104D7000204572726F722100704770470EE04FF449
:104D800080610748006800F0FFF90446AC4202D099
:104D9000FEF7B4F925460A2000F024FCEFE70000F6
:104DA000B001002000B5FF2009490968087000F033
:104DB00039FA007806490968498C054A1268D28B8D
:104DC000891A91FBF0F00249096881F8240000BDBE
:104DD000D001002010B500210A48C18201834FF4A0
:104DE000FC60084988821F21064841834FF6FF7105
:104DF0008183012181770221C177002000F004F82E
:104E000010BD0000389F002010B504464020054921
:104E1000088000210348FEF707FF14B1204600F088
:104E200061F910BD389F00207047000010B504469E
:104E3000044884770146887FFFF7EEFBFFF7B2FF57
:104E400010BD0000389F002010B50446064880F8C9
:104E50002040014691F82000FFF7DEFB4FF47A7105
:104E600002A0FEF71BFB10BD389F002053616D7040
:104E70006C65000000B503460248C377FFF792FF58
:104E800000BD0000389F002010B502A0FEF7A0FC76
:104E900010BD00004265696E67205265736574003D
:104EA00010B50446642004FB00F102A0FEF7F6FAF8
:104EB00010BD000048656C6C6F21000070B50A24BD
:104EC00013A0FDF7A7FD002414E000250EE0C4F1B7
:104ED0000700802101FB00501049085C802101FB84
:104EE00004510F4A12685054681CC5B2802DEEDB85
:104EF000601CC4B2082CE8DB4FF47A7000F072FB3F
:104F00000120FDF79BFD0020FCF756FF70BD00005F
:104F100041626F757420544F5300000022760108DF
:104F2000B001002010B508A0FEF79EFC28B14FF498
:104F30007A7107A0FEF7B2FA04E04FF47A7107A085
:104F4000FEF7ACFA10BD0000537572653F0000001B
:104F500043686F6F736520596573000043686F6F16
:104F60007365204E6F00000070B50546354800F0AF
:104F700065F9C4B235B1012D1CD0022D2ED0032D00
:104F80005CD143E0FF2C05D14FF47A712EA0FEF7DF
:104F900085FA70BD204600F055FB28B14FF47A71B8
:104FA0002DA0FEF77BFA04E04FF47A712EA0FEF7F5
:104FB00075FA43E040F6B833224A2F492F4800F0F3
:104FC000AFFA28B14FF47A712DA0FEF767FA04E02A
:104FD0004FF47A712EA0FEF761FA2FE0FF2C05D175
:104FE0004FF47A7118A0FEF759FAD2E7204600F084
:104FF00073FD28B14FF47A7129A0FEF74FFA04E04F
:105000004FF47A712BA0FEF749FA17E0FF2C05D177
:105010004FF47A710CA0FEF741FABAE7204600F08F
:105020008BFC28B14FF47A7126A0FEF737FA04E022
:105030004FF47A7127A0FEF731FA00BF00BF00BF1E
:10504000A7E700003C9F00204E6F2046696E642059
:105050005461736B0000000044656C6574652053F7
:10506000756363656564210044656C6574652046FD
:1050700061696C21000000001EEE00083D4A000836
:1050800043726561746520537563636565642100CF
:10509000437265617465204661696C2100000000FF
:1050A00053757370656E6420537563636565642121
:1050B0000000000053757370656E64204661696C72
:1050C00021000000526573756D652053756363653B
:1050D00065642100526573756D65204661696C21B8
:1050E0000000000010B50446214602A0FDF7D0FDE7
:1050F00010BD000057616974696E67002DE9F041C9
:1051000005460F462C682E463846FCF74BFC00F04F
:10511000FF08306870B908F10500FDF7E1FE306066
:105120000020316808603068011D3846FEF746FFF0
:10513000BDE8F08100E0246820680028FBD108F178
:105140000500FDF7CDFE20602068011D3846FEF702
:1051500035FF00202168086000BFE9E7014600290B
:1051600005DB092903DC01F13000C0B270470A29D0
:1051700005DB232903DC01F13700C0B2F6E701F1BA
:105180003D00C0B2F2E70000F0B502460C46FF2138
:10519000FF2500260BE012F8017B87EA0503084F84
:1051A000FF5C87EA0105074FF95C771CBEB2A64297
:1051B000F1DB08464FF6FF7707EA00202843F0BDF1
:1051C000D06E0008D06F000810B510480078132882
:1051D00004D00F480078401C0D4908700D48007835
:1051E000401C0C4908700846007864280DDD00203A
:1051F00008701423084A064801780848FCF77DF92E
:105200000749087000200249087010BD58000020AE
:10521000440000203C0000203D0000204000002011
:10522000500000200148006870470000B8010020CD
:105230000148006870470000B401002070B50546C1
:10524000002413E004EB4400094A126802EB00104A
:10525000C16A2846FBF772FD08B1204670BD601C8C
:1052600080B20446142801DBFF20F7E7EAE70000DC
:105270006000002010B54FF47070FDF731FE1E493C
:10528000086002201D49487000204860002428E082
:10529000012004EB4401184A126802EB0111088155
:1052A000002004EB4401144A126802EB01118861EA
:1052B000002104EB4400104A126802EB0010016068
:1052C000002004EB44010C4A126802EB0111C86192
:1052D00004EB4401084A126802EB01110884601CC7
:1052E000C4B2142CD4DB13200549087000200549F2
:1052F00008600549086010BD6000002050000020D3
:1053000058000020640000206800002070B50446AA
:10531000FFF7B0FF04E094E80F0000F001F910344B
:1053200020680028F7D100F02BF870BDFBF73EFF96
:10533000FCF796FB06E0FCF7ADFB642000F052F9A9
:1053400000F002F8F7E7000010B50C48046804B953
:1053500010BD0EE02468A07A10F0010F09D0A07AE9
:1053600010F0020F05D0E0688047A07A20F002001C
:10537000A07220680028EDD100BFE9E76800002096
:1053800038B51849B1F1807F00D31DE021F07F408E
:10539000401E4FF0E022506150170F22002807DA1C
:1053A00013071D0E104B00F00F04241F1D5503E0C2
:1053B00013071C0E0D4B1C5400BF00204FF0E022C1
:1053C00090610720106100BF4FF4FA6008A300222B
:1053D0000A490090132000F03BF8132000F044FB32
:1053E00038BD00004019010018ED00E000E400E0C5
:1053F0005461736B526F6F74000000002D530008EE
:1054000010B5FFF7E1FE00F01DFA0848407840288B
:1054100005D1032106A0FBF7AFFCFCF791FD0B487B
:10542000006808B100F01AFC10BD00005000002018
:105430005461736B2054696D654F75742057696CA6
:105440006C20544F5320526573657400680000202F
:105450002DE9F04704460D4691461F46DDF82080B1
:105460000DB9BDE8F08704EB44002C49096801EB55
:1054700000100089012800D0F3E704EB440027491D
:10548000096801EB0010008C98B91FFA88F0FDF74D
:1054900027FD064604EB4401204A126802EB011185
:1054A000A1F8208004EB44011C4A126802EB0111B0
:1054B000CE6104EB4402194B1B6803EB0212118C02
:1054C00004EB4402154B1B6803EB0212D06900F099
:1054D00091FB8246022104EB4400104A126802EB61
:1054E0000010018104EB44000C49096801EB001035
:1054F000456004EB44000949096801EB0010C762EC
:105500004A462946504600F077FA04EB4401034A24
:10551000126802EB0111086000BFA2E760000020E2
:105520002DE9F84305460E461746984600241AE032
:1055300004EB44001249096801EB0010008900B92E
:1055400012E004EB44000E49096801EB00100089E9
:10555000012800D108E0601C80B20446142802DB58
:105560000020BDE8F883E3E700BFE0B23B463246E7
:105570002946CDF80080FFF76BFF0120F1E700001E
:105580006000002010B5154A127802EB4202144B5D
:105590001B6803EB02129062104A127802EB42027F
:1055A0000F4B1B6803EB021282F8231000220B4BF7
:1055B0001B7803EB43030A4C246804EB031383F8C2
:1055C00024200023054A127802EB4202044C24688E
:1055D00004EB021282F8253010BD000058000020B4
:1055E0006000002010B504461348407801281FD001
:1055F00000201249097801EB4101114A126802EBBF
:10560000011188610D48007800EB40000C490968E1
:1056100001EB0010446110210848007800EB4000C5
:10562000074A126802EB0010018100F093FA02E0D1
:105630002046FBF71FFB10BD500000205800002043
:105640006000002010B50446142C01DB002010BDC2
:1056500004EB44001E49096801EB00100089012891
:1056600001D10020F3E7002004EB4401184A12683E
:1056700002EB0111C862002104EB4400144A1268D5
:1056800002EB00108161002004EB4401104A126813
:1056900002EB01114861012004EB44010C4A12683D
:1056A00002EB0111088104EB4401094A126802EB84
:1056B0000111C869FDF7EEFB002104EB4400044A28
:1056C000126802EB0010018400F044FA0120BEE7EA
:1056D000600000200248007802490870704700000E
:1056E000580000208100002070B51848007800EBB9
:1056F00040001749096801EB0014A06A08B90020AE
:1057000070BD94F8250018B91048007800F0BEF973
:1057100094F8250008B90020F2E704F12304D4F836
:105720000500617800EBC105607800F10100217887
:1057300090FBF1F201FB12006070A078A0F1010073
:10574000A070A4F123042846DAE7000058000020E6
:105750006000002070B506461748007800EB400056
:105760001649096801EB0014A06A08B9002070BD51
:1057700094F8250010B93046FFF734FF94F825005F
:1057800008B90020F3E704F12304D4F80500617898
:1057900000EBC105607800F10100217890FBF1F287
:1057A00001FB12006070A078A0F10100A070A4F1CC
:1057B00023042846DBE7000058000020600000209A
:1057C0002DE9F0470646884691469A46142E01DB9D
:1057D000BDE8F08706EB46001949096801EB0014A3
:1057E000A06A00B9F4E794F8250094F823108842E1
:1057F00020DA04F123046078A1780844217890FB32
:10580000F1F201FB1200C7B214F82309B84200DC20
:10581000DEE7A06A00EBC70585F800804A465046DF
:105820006968FBF757FA85F8019094F82500401C49
:1058300084F82500304600F065F800BFC8E7000096
:1058400060000020002056E000EB40012B4A126867
:1058500002EB01110989022902D0102947D11DE06C
:1058600000EB4001254A126802EB01118969491CCD
:1058700000EB4002214B1B6803EB0212916100EB2D
:1058800040011E4A126802EB0111896944F6206248
:10589000914202D940211A4A517029E0002100EBBF
:1058A0004002164B1B6803EB0212916100EB4001B2
:1058B000124A126802EB0111496941B9022100EB59
:1058C00040020E4B1B6803EB021211810EE000EB4D
:1058D00040010A4A126802EB01114969491E00EBB6
:1058E0004002064B1B6803EB0212516100E000BF4F
:1058F00000BF411CC8B21428A6DB7047600000201E
:1059000050000020142800DB704700EB4001094ADA
:10591000126802EB01110989012900D1F4E7102175
:1059200000EB4002034B1B6803EB0212118100BF26
:10593000EAE700006000002010B50446142C01DBEB
:10594000002010BD04EB44001549096801EB00106C
:105950000089012801D10020F3E704EB440010493D
:10596000096801EB00100089102801D10020E8E748
:1059700004EB44000A49096801EB00100089022881
:1059800001D10020DDE7022004EB4401044A126843
:1059900002EB0111088100F0DDF80120D1E70000E1
:1059A0006000002010B504460F480078A04200D1E6
:1059B00010BD0D48007800EB40000C49096801EB70
:1059C00000100B49086008480470007800EB4000A4
:1059D0000649096801EB0010006806490860FAF7FB
:1059E000DBFF00BFE4E7000058000020600000205B
:1059F0004C0000204800002030B503461846041F24
:105A000020462160041F204623600025041F2046F5
:105A10002560041F20462560041F20462560041FC2
:105A200020462560041F20462560041F204625606F
:105A3000041F20462560041F20462560041F2046C1
:105A40002560041F20462560041F20462560041F92
:105A500020462560041F204622604FF08075041FF9
:105A60002046256030BD000010B5044604EB44001C
:105A70000449096801EB0010006803490860FAF75F
:105A8000A4FF10BD600000204800002010B50446AF
:105A9000142C00DB10BD04EB44000E49096801EB37
:105AA00000100089012800D1F4E7042004EB440130
:105AB000084A126802EB01110881002104EB44003E
:105AC000044A126802EB0010416100F043F800BF85
:105AD000E0E700006000002010B50446142C01DB54
