:020000040800F2
:1000000030A20020450100087D470008492F000864
:10001000154400083B0E0008C192000800000000D3
:10002000000000000000000000000000855F0008E4
:10003000E516000800000000D9480008EF66000837
:100040004993000865480008896700085F010008B7
:10005000B91F0008E5560008E91D00085F01000807
:10006000191E0008391E0008591E00085F0100080B
:10007000AD120008D51200085F0100085F010008FA
:100080005F010008FD1200085F0100085F01000821
:100090005F010008410E0008610E0008791E00088B
:1000A000D96700083D68000819680008F96700086A
:1000B0005F0100085F0100085D680008D53A00088C
:1000C000B53A0008153B0008F53A0008655B0008E2
:1000D000815B0008798A0008CD8A00082D8B000812
:1000E000F51D00080157000821910008B1680008BB
:1000F00015690008F1680008D1680008A10B000824
:100100006D2000085F010008796800089D5B000809
:100110005F0100085F0100085F01000895680008A2
:10012000251300084D130008751300085F0100082F
:10013000DFF80CD000F06CFC00480047219D00085F
:1001400030A200200648804706480047FEE7FEE749
:10015000FEE7FEE7FEE7FEE7FEE7FEE7FEE7FEE777
:10016000296700083101000830B505462A460B46CC
:1001700012F8010B13F8014B08B1A042F8D01CB1E2
:10018000002802D06D1CF1E7284630BDF0B480EAAB
:100190000102D40F4200B2EB410F02D202460846E0
:1001A00011464A0042D0C30DDDB2C1F3C752AD1AA9
:1001B000202D35DAC1F3160141F4000204B1524298
:1001C000C5F1200602FA06F12A411044B3EBD05FD4
:1001D00023D0C4B1012DA0EBC35009DCF0BC4FF01B
:1001E000004202EAC35200F50000DBB200F06BBB34
:1001F000400000F1807000EBC350A0F1807040EA35
:10020000D170490009E0490841EAC071A0EBC35030
:1002100000F50000400800EBC350F0BC00F04ABB02
:100220006142012202EB4101001BF6E7F0BC70477E
:1002300081F00041AAE780F00040A7E780EA0102D0
:1002400010B502F00043400026D04A0023D04FEA08
:10025000106101EB1261C0F35600C2F3560240F484
:10026000000042F40002A0FB0220A1F17F014FEA4E
:100270000040140401D000F1010050EA124001D402
:100280004000491EC2B20C0604EBD010401C4008CE
:10029000802A02D003E0002010BD20F001000029D8
:1002A00000DA0020184310BD30B480EA010202F0E9
:1002B000004530F0004221F0004015D0A0B1C0F35D
:1002C000C753C2F3C754C2F31601C0F31600E41AB1
:1002D00041F4000140F400027D34914201D3641CDA
:1002E00000E04900002C02DA30BC002070474FF4D7
:1002F00000000023914201D3891A034340084FEACA
:100300004101F7D151B1914202D14FF0004105E0D6
:1003100002D24FF0010101E06FF0010103EBC45084
:10032000284430BC00F0C6BA2DE9FE4F804681EA71
:100330000300C00F0C46009021F0004123F000455F
:10034000B8EB0200A94105D24046214690461C4622
:100350000B46024623F00040104304D1404621469C
:1003600003B0BDE8F08F270DC7F30A00C3F30A51AD
:100370000290401A0190402866DAC3F3130040F45B
:10038000801B0098924620B10023D2EB030A63EB56
:100390000B0B01985946C0F14002504600F059FA43
:1003A00006460D4650465946019A00F071FA10EB88
:1003B00008006141002487EA115284EAE7731A4376
:1003C0003BD0009A3AB3019A012A4FEA075210DC57
:1003D000001B61EB02014FF0004202EA0752CDE937
:1003E0000042001C41F5801132462B4600F0A5FA70
:1003F000B6E7001B61EB0201001C41F580130018F9
:100400005B412018A2F5001747EB030140EAD570C5
:10041000B6196D4111E06D084FEA360645EAC07520
:100420004FEA0752001B61EB0201001C41F58011ED
:1004300049084FEA30000019514132462B4603B0BB
:10044000BDE8F04F00F06CBA009801224000002394
:10045000D0EB020263EBE073009821464FEAE074B0
:10046000B8EB000061EB0401E9E783F000435BE7D0
:1004700081F0004158E72DE9FE4F81EA030404F0C2
:10048000004421F0004100944FF0000B23F00043A2
:1004900050EA010402D052EA030404D100200146CC
:1004A00003B0BDE8F08FC3F30A54C1F30A552C44DE
:1004B000A4F2F3340194A0FB0254C1F3130141F4FC
:1004C0008011C3F3130343F4801301FB024400FBC8
:1004D000034E840A970A44EA815447EA8357A4FBEF
:1004E000076802958D0A05FB07854FEA932C04FBEC
:1004F0000C542705029D4FEA065847EA1637B5EB1C
:1005000008056EEB070C870E920E47EA811742EA48
:100510008312A7FB0201B6EB0B0164EB00042B0D69
:1005200043EA0C335E1844EB1C50DA465146E7FBB5
:100530000201C5F313044FEA0B3343EA14534FEAA5
:100540000432019C43EA0603A4F10C040294009CCB
:10055000CDE900B400F0F1F9A2E72DE9F04D81EA10
:10056000030404F0004B21F0004514464FF0000A4C
:1005700023F0004150EA050220D054EA01021DD0C8
:10058000C5F30A570246C5F31303C1F31300C1F3C1
:100590000A5640F4801543F48013A7EB0608101B9D
:1005A000D64608F2FD3873EB050002D308F10108C6
:1005B00001E092185B41B8F1000F03DA0020014618
:1005C000BDE8F08D00204FF48011064684460EE011
:1005D000171B73EB050705D3121B63EB05030643DB
:1005E0004CEA010C49084FEA300092185B4150EA8E
:1005F0000107EDD152EA030012D082EA040083EA37
:100600000501084303D100224FF0004308E0101B0E
:10061000AB4102D20122002302E06FF0010253102D
:100620001AEB06004CEB085110EB0A0041EB0B01F2
:10063000BDE8F04D00F074B9C10F80EAE0700844E5
:10064000CA079623002100F03EB9962300221146E6
:1006500000F039B900F0004220F00040C10DC0F3B5
:10066000160040F400007F2901DA00207047962927
:1006700003DCC1F19601C84001E096398840002AA8
:10068000F4D04042704720F00040C10DC0F3160086
:1006900040F400007F2901DA00207047962903DC2E
:1006A000C1F19601C840704796398840704770B5CF
:1006B000C1F30A5201F000450024C1F3130140F2D6
:1006C000FF3341F480119A4201DA002070BD40F2FC
:1006D00033439A42A2F2334203DC524200F0C8F89C
:1006E00000E090402C43F1D0404270BD00F0004249
:1006F00030F000400AD0C10D01F56071C0F3160062
:1007000042EA0151C20840071143704700200146E8
:100710007047000030B5002904DB4FF00044404230
:1007200064EB0101002B04DB4FF00044524264EB08
:1007300003038B4208BF824230BD000030B5002960
:1007400004DB4FF00044404264EB0101002B04DB6A
:100750004FF00044524264EB0303994208BF9042B9
:1007600030BD000001F0004330B421F0004150EAF8
:10077000010206D00A0DA2F56072C1F31301002A2E
:1007800002DC30BC00207047440F44EAC104C100C1
:10079000E01830BC00EBC25000F08CB8002801DB40
:1007A000C0F10040002901DBC1F1004181427047E6
:1007B000002801DBC0F10040002901DBC1F100414C
:1007C0008842704730B50B460146002020220124A4
:1007D00009E021FA02F59D4205D303FA02F5491B0F
:1007E00004FA02F52844151EA2F10102F1DC30BD25
:1007F0002DE9F05F0546002092469B468846064656
:10080000814640241BE0284641464746224600F0E8
:100810002FF853465A46C01A914110D31146184634
:10082000224600F016F82D1A67EB01084F462246C3
:100830000120002100F00DF817EB00094E41201EA9
:10084000A4F10104DFDC484631462A464346BDE8B0
:10085000F09F202A04DB203A00FA02F100207047C2
:100860009140C2F1200320FA03F3194390407047EE
:10087000202A04DB203A21FA02F00021704721FAF5
:1008800002F3D040C2F1200291400843194670475C
:10089000202A06DBCB17203A41FA02F043EAE07344
:1008A00006E041FA02F3D040C2F120029140084331
:1008B000194670470029A8BF7047401C490008BF6F
:1008C00020F00100704710B4B0FA80FC00FA0CF080
:1008D00050EA010404BF10BC704749B1CCF12004B8
:1008E00021FA04F411FA0CF118BF01212143084345
:1008F000A3EB0C01CB1D0106000A002BBEBF00209C
:1009000010BC704700EBC35010440029A4BF10BCBA
:100910007047401C490008BF20F0010010BC704720
:1009200010B5002B08DA401C41F1000192185B4120
:100930001A4301D120F0010010BD2DE9F04D92467F
:100940009B4611B1B1FA81F202E0B0FA80F2203296
:100950009046FFF77EFF04460F4640EA0A0041EA50
:100960000B0153465A46084303D120463946BDE899
:10097000F08D114653EA010015D0C8F140025046EF
:10098000FFF776FF05460E46504659464246FFF7AA
:1009900060FF084301D0012000E00020054346EA43
:1009A000E0762C4337430A984FEA4453A0EB080003
:1009B0004FEAD4240A304FF0000244EA47544FEA89
:1009C000D72502D500200146D1E70105101969415C
:1009D000DDE9084500196941BDE8F04DA0E7C1F324
:1009E0000A52C1F3130140F2FF3341F480119A42DD
:1009F00002DA00200146704740F233439A42A2F2E5
:100A0000334202DC5242FFF733BFFFF722BF000040
:100A1000064C074D06E0E06840F0010394E807004B
:100A200098471034AC42F6D3FFF786FB280D010837
:100A3000480D010882B02DE9FF1FEFF3038001B4D8
:100A4000684600F1400000E901400C480168C1F827
:100A500000D00B48D0F800D001BC80F30388BDE87B
:100A6000FF1F01B000BD0648D0F800D001BC80F3E4
:100A70000388BDE8FF1F01B000BD0000500000204A
:100A80004C00002008B50121084604F081FD012139
:100A90004FF4047004F09CFD1020ADF8000000201D
:100AA0008DF803006946024801F082FC08BD000091
:100AB0000010014010B50446FFF7E4FF204600F0A7
:100AC00001F810BD10B590B00446334800F072FC38
:100AD00032480590069400200790012008900020DD
:100AE00009900A904FF480700B9080000C902020A9
:100AF0000D9000020E9000200F9005A9264800F0EE
:100B0000FFFC0121244800F049FC002000908DF8F2
:100B1000040001208DF805004FF4602002900020B1
:100B2000039001208DF8100069461C484C3800F0F5
:100B30006FF84FF4404004F01FFD052301220E2101
:100B400016484C3800F08CF8012114484C3800F05D
:100B500040F8012111484C3800F030F80F484C386B
:100B600000F0DAF800BF0D484C3800F047F80028D4
:100B7000F9D10A484C3800F0DFF800BF07484C387C
:100B800000F032F80028F9D1012104484C3800F077
:100B9000C8F810B010BD0000080002404C2401400D
:100BA00010B5032101A000F0C9FC10BD414443333E
:100BB0005F49525148616E646C65720021B1826870
:100BC00042F00102826003E0826822F0010282604A
:100BD000704721B1826842F48072826003E08268CB
:100BE00022F4807282607047014600208A6812F009
:100BF000040F01D0012000E00020704701460020D2
:100C00008A6812F0080F01D0012000E00020704730
:100C100030B502460020002350680F4C20400D796B
:100C20000C6844EA05242043506090680B4C204037
:100C3000D1E902542C434D7944EA450420439060A5
:100C4000D06A20F470000C7C641EE4B2234340EAB6
:100C50000350D06230BD0000FFFEF0FFFDF7F1FF52
:100C6000F0B504460D4600200021092D11DDE06895
:100C7000A5F10A0606EB4607072606FA07F18843A0
:100C8000A5F10A0606EB460603FA06F10843E06002
:100C90000CE0206905EB4507072606FA07F18843B3
:100CA00005EB450603FA06F108432061072A0FDA2F
:100CB000606B561E06EB86071F2606FA07F188436F
:100CC000561E06EB860605FA06F10843606322E02D
:100CD0000D2A0FDA206BD61F06EB86071F2606FAB1
:100CE00007F18843D61F06EB860605FA06F108438E
:100CF000206310E0E06AA2F10D0606EB86071F26CE
:100D000006FA07F18843A2F10D0606EB860605FAFE
:100D100006F10843E062F0BD816841F0080181609E
:100D2000704721B1826842F4A002826003E08268C9
:100D300022F4A00282607047816841F00401816062
:100D4000704710B5044600212046FFF731FD01D25F
:100D5000204610BD00212046FFF76DFAF9E700009C
:100D600010B501210C4801F0FAFB0A2007F0A6FAA1
:100D70000121094801F0F1FB282007F09FFA012129
:100D8000054801F0ECFB0A2007F098FA012102481F
:100D900001F0E3FB10BD0000000C014010B5002184
:100DA000074803F0F7F9044644B9052105A000F00F
:100DB000C5FB0121024803F0EDF90446204610BDB1
:100DC000409D0020C5E4D6C3B2CECAFDC6ACC7F86C
:100DD000D2BBB4EDCEF3000006E04FF47A7100BF51
:100DE0000A00A1F10101FBD10200A0F10100F4D140
:100DF00070470146081100EB4000A1EB4000C0B273
:100E00007047F0B5034600201C460D46104603E02F
:100E100014F8016B05F8016B1600A2F10107BAB2D4
:100E2000F6D1F0BD30B5034601E003F8011B140014
:100E3000A2F10105AAB2F8D130BD00BFFEE7000063
:100E400010B5032101A000F079FB10BD43414E31E4
:100E50005F5258315F49525148616E646C6572004F
:100E600010B5032101A000F069FB10BD43414E31D4
:100E70005F5343455F49525148616E646C6572002F
:100E80002DE9F04105460E46424803F01FFBA842FB
:100E900002DC0020BDE8F08105EB45003D4901EB97
:100EA0008004142231463C4808F00FF9207A0928C2
:100EB00033D008DC02280FD0042837D0052823D0EF
:100EC000062863D116E00B280BD018284BD01A281F
:100ED00056D01D285AD12FE0606808B1606880475D
:100EE00054E0304601F0A2FE0746FFF7CCFB6168F4
:100EF00008704BE0304601F099FE0746FFF7AAFB69
:100F000040B26168087041E0304601F08FFE07464C
:100F1000FFF7B9FB6168088038E0304601F086FED3
:100F20000746FFF7B0FB616808602FE0304601F02C
:100F30007DFE6168086029E018A1304605F0BFFB1E
:100F400040B160680068627A01219140084361689D
:100F5000086007E060680068627A01219140884378
:100F60006168086012E00DA1304605F0A8FB18B1D9
:100F700001206168087002E000206168087005E0E7
:100F8000627A30466168FFF73CFF00BF00BF012076
:100F900080E7000018A00008004400405400000052
:100FA00070B504460D460A4803F090FAA04201DCF1
:100FB000002070BD04EB4400054A02EB8001284686
:100FC00003F060F9284601F093FEC6B23046F0E720
:100FD00018A000080246002110E0505C392801DD0D
:100FE000012000E00020535C302B01DA012300E0F7
:100FF0000023184301D000207047491C0B29ECDB6B
:101000000120F9E702E0002200F8012B0A00A1F11B
:10101000010399B2F7D1704710B5002400F090F8A1
:1010200004E0601CC4B2012000F034F84FF40071F9
:101030000F4801F089FA08B1642CF2DB642C01DB63
:10104000012010BD002404E0601CC4B2012000F0A7
:1010500021F84FF40071064801F076FA08B9642CC3
:10106000F2DB642C01DB0120EBE70020E9E7000064
:10107000000C0140002107E042F6E06100BF0A00D9
:10108000A1F1010399B2FAD10200A0F1010398B2D3
:10109000F2D17047002106E0072100BF0A00A1F14C
:1010A000010399B2FAD10200A0F1010398B2F3D181
:1010B000704700002DE9F04105460F462C78C4EB3F
:1010C000042084B26878204484B214F4004F10D015
:1010D00024F400442046FFF7B8FA06461549304686
:1010E000FFF7E2F8064631460020FFF7A1F8064672
:1010F00008E02046FFF7A9FA06460E493046FFF7FA
:10110000D3F806460C493046FFF752FB02D24FF0A7
:10111000010801E04FF0000808493046FFF73EFBA8
:1011200001D2012000E0002018EA000F00D03E604C
:10113000BDE8F08100002041000048C20000C84224
:1011400008B54FF40070ADF8000003208DF80200E0
:1011500048208DF803006946014801F029F908BDCF
:10116000000C014008B54FF40070ADF800000320FA
:101170008DF8020010208DF803006946014801F047
:1011800017F908BD000C01402DE9FC4105460F464A
:1011900000F076F8FFF740FF10B10020BDE8FC81B9
:1011A000002405E000F05CF80DF80400601CC4B2F7
:1011B000052CF7DB9DF800009DF8011008449DF810
:1011C000021008449DF803100844C6B29DF80400BC
:1011D000B04205D0052108A000F0B0F90020DDE7FD
:1011E00039466846FFF766FF29460DF10200FFF712
:1011F00061FF0020D2E70000D0A3D1E9CAA7B0DC8C
:101200000000000010B5002404E0601CC4B20120FE
:10121000FFF740FF4FF40071104801F095F908B155
:10122000642CF2DB002404E0601CC4B20120FFF750
:1012300031FF4FF40071094801F086F908B9642CB8
:10124000F2DB2320FFF726FF4FF40071034801F083
:101250007BF908B1012010BD0020FCE7000C014023
:1012600070B50024002506E06006040EFFF7CAFFF3
:101270000443681CC5B2082DF6DB204670BD000093
:1012800010B5FFF76FFF4FF40071074801F065F9E3
:101290000A20FFF7EFFE4FF40071034801F05FF9F9
:1012A0005020FFF7F7FE10BD000C014010B50321E0
:1012B00001A000F043F910BD444D41315F43686126
:1012C0006E6E656C325F49525148616E646C657236
:1012D0000000000010B5032101A000F02FF910BD9F
:1012E000444D41315F4368616E6E656C335F4952B6
:1012F0005148616E646C65720000000010B50321F6
:1013000001A000F01BF910BD444D41315F436861FD
:101310006E6E656C375F49525148616E646C6572E0
:101320000000000010B5032101A000F007F910BD76
:10133000444D41325F4368616E6E656C315F495266
:101340005148616E646C65720000000010B50321A5
:1013500001A000F0F3F810BD444D41325F436861D5
:101360006E6E656C325F49525148616E646C657295
:101370000000000010B5032101A000F0DFF810BD4F
:10138000444D41325F4368616E6E656C335F495214
:101390005148616E646C65720000000021B1026802
:1013A00042F00102026004E002684FF6FE731A4048
:1013B0000260704701684FF6FE7211400160002123
:1013C000016041608160C1604B49884208D14A494F
:1013D0000839496841F00F01474A083A51608AE0EC
:1013E00045491431884208D143490839496841F0D8
:1013F000F001414A083A51607DE03F492831884276
:1014000008D13D490839496841F470613A4A083ABF
:10141000516070E038493C31884208D1364908397A
:10142000496841F47041344A083A516063E03249F6
:101430005031884208D130490839496841F4702157
:101440002D4A083A516056E02B496431884208D150
:1014500029490839496841F47001274A083A51601E
:1014600049E025497831884208D12349083949683B
:1014700041F07061204A083A51603CE01F498842BF
:1014800006D1011F096841F00F01021F116032E00F
:101490001A491431884208D11849091F096841F0D6
:1014A000F001164A121F116025E0144928318842C4
:1014B00008D11249091F096841F470610F4A121FCF
:1014C000116018E00D493C31884208D10B49091FD1
:1014D000096841F47041094A121F11600BE0074985
:1014E0005031884207D10549091F096841F470212C
:1014F000024A121F116070470800024008040240AF
:1015000010B50022026847F6F0739A430C6A8B68A4
:1015100023430C6923434C6923438C692343CC69DF
:1015200023434C6A23438C6A23431A430260CB68EB
:1015300043600B6883604B68C36010BD0FB42DE936
:10154000F04186B000240125002656480078FF2887
:1015500001D1012000E0002052490978524A127856
:10156000914201D1012100E0002108437ED04FF4D7
:10157000806002F085FF07460DA805903846059A61
:101580000C9907F04DFF002005900DA805906946C5
:101590000C9801F016FA05462AE02046611CCCB2F0
:1015A0001DF80000012804D0022806D003281AD113
:1015B00015E0059840C8059019E00598C01D20F079
:1015C00007000590D0E90021DDF814C00CF1080CEB
:1015D0001046CDF814C0FFF76AF8064607E00598F4
:1015E00040C8059003E0059840C8059000BF00BFC3
:1015F0002800A5F10105D0D1059840C8059000202C
:1016000005902A480078FF2801D1012000E0002041
:1016100026490978B14201DB012100E0002108439D
:1016200038D02348007810F0010F07D02148007807
:1016300000F0C8FB10B1384600F04CF839461EA047
:1016400005F01CF81A48007810F0020F0DD01B4965
:10165000087800F0B7FB40B1384601F049FB8046FE
:1016600042463946164807F030FD00E015E01048C4
:10167000007810F0040F0DD01049487800F0A2FB5C
:1016800040B1384601F034FB8046424639460D48A9
:1016900007F01BFD384602F0CDFE06B0BDE8F001B4
:1016A0005DF814FB780000205C0000207A00002028
:1016B00079000020280000200D0A000029000020E9
:1016C00000380140004400400149087070470000A4
:1016D0007900002070470000014908707047000041
:1016E0007A000020704701460A2091FBF0F000EBE1
:1016F000400001EB4000C0B27047000010B5002070
:101700001A4908704FF4A07002F0BAFE1849086038
:10171000002406E0FF201749085517490855601CAA
:10172000C4B2052CF6DB00241DE000201049096836
:1017300001EB4411486103200D49096801EB441194
:10174000087200200A49096801EB44110861084940
:10175000096801EB4411C8600549096801EB4411AF
:101760008861601CC4B20A2CDFDB10BD6C00002055
:1017700070000020290000202E00002038B5002431
:101780003CE02048006800EB44100068002833D09B
:101790001C48006800EB4410C079012804D00228DE
:1017A0001ED0032827D110E00320009015480068C0
:1017B00000EB4410C3691348006800EB4410214655
:1017C000026811A0FFF7BAFE15E00E48006800EBB2
:1017D000441003232146026811A0FFF7AFFE0AE080
:1017E0000848006800EB44100323214602680CA05F
:1017F000FFF7A4FE00BF00BF601CC4B20A2CC0DB10
:1018000038BD0000700000204465766963655B2583
:10181000645D4E616D653A25735B25645D00000073
:101820004465766963655B25645D4E616D653A2547
:10183000730000002D4800782D4908702B4800786F
:10184000401C2A4908702A4800782A490968284A11
:10185000127801EB4211087127A126480068244A3A
:10186000127800EB42100160002022490968204AEA
:10187000127801EB4211487102201E4909681C4A86
:10188000127801EB4211C87101211A480068184A08
:10189000127800EB42100172184816490968144A80
:1018A000127801EB42114861154912480068104A4C
:1018B000127800EB4210C16100210E4800680C4A0A
:1018C000127800EB4210C16000200A490968084AFA
:1018D000127801EB42110861002106480068044AB1
:1018E000127800EB42108161704700006C0000200C
:1018F0007C0000207000002043545200C5240008E2
:101900006C9F00082C4800782C4908702A48007801
:10191000401C294908702948007829490968274A44
:10192000127801EB4211087126A125480068234A6C
:10193000127800EB421001600020214909681F4A1B
:10194000127801EB4211487103201D4909681B4AB6
:10195000127801EB4211C871012119480068174A39
:10196000127800EB42100172184815490968134AB1
:10197000127801EB421148610021114800680F4ABA
:10198000127800EB4210C1610D4800680B4A1278D2
:1019900000EB4210C160002009490968074A12782B
:1019A00001EB42110861002105480068034A1278E2
:1019B00000EB4210816170476C0000207F00002026
:1019C000700000204854313632310000C92E000822
:1019D0002D4800782D4908702B480078401C2A4972
:1019E00008702A4800782A490968284A127801EBC9
:1019F0004211087127A126480068244A127800EB9A
:101A000042100160002022490968204A127801EB47
:101A10004211487102201E4909681C4A127801EBE4
:101A20004211C87101211A480068184A127800EB67
:101A300042100172184816490968144A127801EBDD
:101A400042114861154912480068104A127800EBAB
:101A50004210C16100210E4800680C4A127800EB68
:101A60004210C16000200A490968084A127801EB57
:101A700042110861002106480068044A127800EB10
:101A800042108161704700006C0000207D00002042
:101A90007000002053494700C5240008B49F000887
:101AA00070B50546284607F0B3F904465F48005D67
:101AB000FF2808D15E4800785C4908555C480078EA
:101AC000401C5B4908705BA05849095D5B4A12687D
:101AD00002EB4111086000205449095D574A126821
:101AE00002EB4111487101205049095D534A1268C7
:101AF00002EB4111C87103204C49095D4F4A12683D
:101B000002EB411108724E484849095D4B4A126880
:101B100002EB411148614548005D4849096801EB05
:101B20004010C46147494148005D444A126802EBD5
:101B30004010C16044483D49095D404A126802EBCB
:101B40004111086100213948005D3C4A126802EBEE
:101B50004010816100203D4921F814004FF4967037
:101B600002F08EFC3A4941F82400284607F050F96B
:101B700004463848005DFF2808D12D4800783549D3
:101B800008552B480078401C2949087032A031497B
:101B9000095D2A4A126802EB4111086000202D49B4
:101BA000095D264A126802EB41114871012129485A
:101BB000005D224A126802EB4010C17103202549E2
:101BC000095D1E4A126802EB411108721C49214846
:101BD000005D1A4A126802EB401041611D48005D29
:101BE0001649096801EB4010C46116481949095D9E
:101BF000124A126802EB4111C86013481549095D89
:101C00000E4A126802EB4111086100201149095D7A
:101C10000A4A126802EB411188614FF4967002F093
:101C20002FFC0F4941F8240070BD00002E00002059
:101C30006C00002055534152527800007000002083
:101C4000D58B000899900008B98F0008C4000020C7
:101C50009C00002029000020555341525478000078
:101C6000B0000020284800782849087026480078ED
:101C7000401C2549087026A027490968234A127884
:101C800001EB421108600020234909681F4A1278BD
:101C900001EB4211487103201F4909681B4A127861
:101CA00001EB4211C87101211B480068174A1278E4
:101CB00000EB42100172194817490968134A12785B
:101CC00001EB421148610021134800680F4A127865
:101CD00000EB4210C16112490F4800680B4A1278AC
:101CE00000EB4210C1600F490B480068074A1278A8
:101CF00000EB42100161002007490968034A12788D
:101D000001EB4211886170476C00002090000020B8
:101D1000513235513136000070000020455D000819
:101D20001F9300080B93000810B503211DA0FFF7B7
:101D300005FC002433E02248006800EB44104069B1
:101D400058B31F48006800EB4410C079012804D044
:101D5000022815D003281FD10BE0194A126802EBA4
:101D60004412107F164A126802EB441251698847E8
:101D700012E01349096801EB4411486980470BE000
:101D80000F4A126802EB4412D0690D4A126802EB46
:101D900044125169884700BF00BF601CC4B20A2CBE
:101DA000C9DB10BD546F73204465766963652049B3
:101DB0006E69742E2E2E2E2E2E2E2E2E2E0000000C
:101DC000700000200146FF2901D10020704705481E
:101DD000006800EB4110406908B90020F6E70120D7
:101DE000F4E7000070000020012000F055F802F038
:101DF00013FA000010B5032101A0FFF79FFB10BDEF
:101E00004558544931355F31305F49525148616E10
:101E1000646C65720000000010B5032101A0FFF79B
:101E20008DFB10BD45585449325F49525148616E8F
:101E3000646C65720000000010B5032101A0FFF77B
:101E40007DFB10BD45585449335F49525148616E7E
:101E5000646C65720000000010B5032101A0FFF75B
:101E60006DFB10BD45585449345F49525148616E6D
:101E7000646C65720000000010B5032101A0FFF73B
:101E80005DFB10BD45585449395F355F4952514893
:101E9000616E646C65720000014908607047000063
:101EA00014040140002123498279002A3AD00A46CD
:101EB000126803689A430B461A600A1D1268036889
:101EC0009A430B1D1A60027911440A6803681A4389
:101ED0000A60184A0832126803689A43154B08339F
:101EE0001A601A1D126803689A43124B0C331A6069
:101EF0004279102A0ED11A1F126803681A430D4B3B
:101F000008331A601A1D126803681A43094B0C3310
:101F10001A600DE00749427911440A6803681A43C0
:101F20000A6005E0027911440A6803689A430A606E
:101F3000704700000004014030B5044604254FF40A
:101F4000302000F07FF80546042D17D10C480069B9
:101F500040F002000A49086108464461006940F007
:101F6000400008614FF4302000F06CF8054604484A
:101F7000006941F6FD71084001490861284630BDFD
:101F80000020024004200B49C96811F0010F01D064
:101F900001200EE00749C96811F0040F01D00220AA
:101FA00007E00449C96811F0100F01D0032000E0D8
:101FB000042070470020024010B5032101A0FFF764
:101FC000BDFA10BD464C4153485F49525148616EBD
:101FD000646C6572000000000348006940F08000F6
:101FE00001490861704700000020024070B50446B6
:101FF0000D460426F00200F025F80646042E11D105
:102000000948006940F00100074908612580F00295
:1020100000F018F806460448006941F6FE710840D1
:1020200001490861304670BD002002400248034962
:10203000486003484860704723016745002002401C
:10204000AB89EFCD00B502460423FFF79BFF0346A3
:1020500003E0FFF797FF0346521E012B01D1002A30
:10206000F7D102B90523184600BD000010B50321C1
:1020700001A0FFF763FA10BD46534D435F4952512B
:1020800048616E646C6572002DE9F84F82460C461B
:1020900017464FF00008002000908146504600F09F
:1020A00027FE00F0FF0BBBF1000F2FD000202070A7
:1020B000002529E01AF80560302E01DB012000E040
:1020C0000020392E01DC012100E00021084209D066
:1020D0004F4504D14046411C01F0FF082654012021
:1020E00000900FE0009868B14F4505D100224046AE
:1020F000411C01F0FF0822540020009009F101006A
:1021000000F0FF09681CC5B25D45D3DB4046BDE861
:10211000F88F70B50B46044603E014F8015B03F832
:10212000015B1500A2F10106B2B2F6D170BD2DE936
:10213000F0470646884614460027C146FFF776FF5B
:102140002046E11704EBD151C1F34F27E11704EB0F
:10215000D1514912B4EB412101D0781C87B200253E
:1021600007E04FF4007101FB0760FFF7E5FE681C14
:1021700085B2BD42F5DB002508E039F8021B2A468E
:102180006B1C9DB206EB4200FFF730FF2000A4F16C
:1021900001018CB2F1D1FFF71FFFBDE8F0870146C6
:1021A0000A461068704713B50246042301A903E0EC
:1021B00011F8010B02F8010B1800A3F10104E3B2BE
:1021C000F6D104201CBD70B504460025107820B15E
:1021D00016782068B0FBF6F085B2206808442060CD
:1021E0001078984203DA1078401C107002E02068E2
:1021F000401B206016782068B0FBF6F080B270BDFE
:102200000FB438B5044606A800902046009A0599F8
:1022100007F006F90020009038BC5DF814FB30B5DB
:1022200003460C46002514E01878802806DA13F8D7
:10223000010B24F8020B681C85B20AE059781A7861
:1022400041EA022000F01AF820809B1CA81C85B2ED
:10225000A41C18780028E7D1284630BD30B5ADF56C
:10226000017D04460D4601A92046FFF7D8FF294607
:1022700001A800F05FFD0DF5017D30BD024641F67D
:102280006F210AE0074800EB81004088904203D1AB
:10229000044830F821007047491E0029F2D100207F
:1022A000F9E7000050A1000810B50446294884420F
:1022B00008D10121042003F09BF90021042003F040
:1022C00097F946E02448844208D10121082003F010
:1022D0008FF90021082003F08BF93AE01F4884426F
:1022E00008D10121102003F083F90021102003F010
:1022F0007FF92EE01A48844208D10121202003F002
:1023000077F90021202003F073F922E01548844278
:1023100008D10121402003F06BF90021402003F097
:1023200067F916E01048844208D10121802003F0AB
:102330005FF90021802003F05BF90AE00B4884423A
:1023400007D10121801503F053F90021A01503F0F6
:102350004FF910BD00080140000C01400010014081
:102360000014014000180140001C01400020014001
:1023700030B500228B071C0F0F2303FA04F20B4B1E
:102380008C1053F824309343084C8D1044F82530BA
:1023900023468C1053F824308C07240F00FA04F4E1
:1023A0002343024C8D1044F8253030BD0800014015
:1023B0002DE9F041024600250026002000230024DC
:1023C000002791F803C00CF00F0591F803C01CF032
:1023D000100F03D091F802C04CEA050591F800C037
:1023E000BCF1000F31D0146800202BE04FF0010C3D
:1023F0000CFA00F3B1F800C00CEA03069E4220D1AB
:1024000083004FF00F0C0CFA03F7BC4305FA03FCF2
:102410004CEA040491F803C0BCF1280F06D14FF038
:10242000010C0CFA00FCC2F814C00AE091F803C0D9
:10243000BCF1480F05D14FF0010C0CFA00FCC2F8BA
:1024400010C0401C0828D1D31460B1F800C0BCF102
:10245000FF0F34DD546800202EE000F1080C4FF02F
:10246000010808FA0CF3B1F800C00CEA03069E421A
:1024700021D183004FF00F0C0CFA03F7BC4305FA8F
:1024800003FC4CEA040491F803C0BCF1280F05D109
:1024900000F1080C08FA0CF8C2F8148091F803C097
:1024A000BCF1480F07D100F1080C4FF0010808FA01
:1024B0000CF8C2F81080401C0828CED35460BDE848
:1024C000F081000038B5044636E01D4A6068811A84
:1024D000904217D009DC1B4940180DD0B0F5806F31
:1024E0000CD0B0F5006F13D10AE0B1F5806F0BD0BE
:1024F000B1F5006F0CD109E0042509E0082507E0DB
:10250000102505E0202503E0402501E0802500BFDF
:1025100000BF45F00100012103F05AF820788DF842
:1025200002002089ADF8000060788DF8030069464C
:102530006068FFF73DFF0C3420780028C5D138BD16
:102540000014014000F8FEBF0246002093680B42D1
:1025500001D0012000E00020704741617047016117
:10256000704700002DE9F04104460D46012717E0B1
:102570000F494FF4967248680021FEF753FC2B4632
:10258000322200210B4806F02FFDC6B246B10849A1
:102590004868214604F093F810B10120BDE8F081AD
:1025A0003800A7F10101CFB2E2D100BFF6E7000089
:1025B0009C000020004400402DE9F04104460D46F7
:1025C00001271FE013494FF4967248680021FEF777
:1025D00029FC2B46322200210F4806F005FDC6B229
:1025E00066B10C4948682146FDF7BEFD10B10120D7
:1025F000BDE8F0814FF47A7005F060FE4FF47A7018
:1026000005F05CFE3800A7F10101CFB2DAD100BFBE
:10261000EEE700009C000020004400402DE9F0415E
:1026200004460F4615464FF001081FE014494FF4C9
:10263000967248680021FEF7F5FB2B4632220021F6
:10264000104806F0D1FCC6B286B10D494868214653
:1026500004F035F810B10120BDE8F0810849486860
:10266000394604F02CF808B10120F5E75FEA0800CC
:10267000A8F1010101F0FF08D8D100BFECE700008C
:102680009C000020004400400246114623E00878E8
:102690002E281FD111F8010C302801DB012000E0A9
:1026A000002011F8013C392B01DC012300E000235C
:1026B00018420FD04878302801DB012000E00020CC
:1026C0004B78392B01DC012300E00023184201D0B4
:1026D00001207047491C08780028D8D100BFF8E7CE
:1026E00070B5022515E014A1174806F0FEFC4FF462
:1026F0007A7005F0E3FD002409E04FF4FA6213A1BB
:1027000014A000F037F800B10AE0601CC4B2032C3A
:10271000F3DB2800A5F10101CDB2E4D1012070BDA9
:10272000052110A0FEF70AFF1148006920F01000F3
:102730000F4908610020F2E741542B5149434C4FA7
:1027400053450D0A0000000000440040434C4F5325
:102750004500000041542B514953544154450D0A42
:1027600000000000536F636B6574B6CFBFAA000012
:102770002C9D002070B504460D4616460A233246AD
:102780002946204600F002F870BD00002DE9F04116
:1027900005460C4616461F4631E029461B4806F002
:1027A000A4FC1B494FF4967248680021FEF73AFBDF
:1027B000334632220021154806F016FC00F0FF08CF
:1027C000B8F1000F17D02078212808D110494868A7
:1027D000611CFDF7C9FC50B90120BDE8F0810C492E
:1027E00048682146FDF7C0FC08B10120F5E74FF429
:1027F0007A7005F063FD4FF47A7005F05FFD3800E4
:10280000A7F10101CFB2C8D100BFE6E70044004004
:102810009C00002070B50446002500BF2846691CB6
:10282000CDB20A2801DD032070BD05211EA0FEF7F0
:1028300085FE2048006920F010001E4908612046EE
:10284000FFF722FF40B14FF47A721BA11BA0FFF7E4
:1028500091FF50B90120E7E74FF47A7216A11BA04F
:10286000FFF788FF08B90120DEE74FF47A7005F022
:1028700025FD2146194806F038FC042218A11CA0A9
:1028800000F088F800B9C9E74FF4FA6005F016FDCA
:1028900005211AA0FEF752FE0648006940F010001C
:1028A000044908610020BFE7C1ACBDD3B5BD746366
:1028B000700000002C9D00204F4B000041542B5114
:1028C00049444E5349503D300D0A000041542B51AC
:1028D00049444E5349503D310D0A00000044004028
:1028E000414C524541445920434F4E4E45435400BC
:1028F000434F4E4E454354204F4B0000C6F4B6AFF5
:10290000536F636B6574B7FECEF1A3ACC1ACBDD39E
:10291000B7FECEF1C6F7000070B50546012622E0ED
:1029200014494FF4967248680021FEF77BFA2B4653
:1029300032220021104806F057FBC4B29CB10D4969
:1029400048680EA1FDF710FC28B105210DA0FEF787
:10295000F5FD002070BD0748224641680CA002F03A
:10296000B5F80120F6E73000A6F10101CEB2D7D1CB
:1029700000BFEFE79C00002000440040434C4F5351
:1029800045440000C1ACBDD3B1BBB9D8B1D500003E
:10299000523A00002DE9F04106460F461446002544
:1029A0000BE04FF47A7239463046FFF737FE10B12C
:1029B0000120BDE8F081681CC5B2A542F1DB002012
:1029C000F7E7F0B504460A4600230020002521461B
:1029D00033E00E78252E02D10125461CB0B2012D20
:1029E0002AD10E78642E06D1AC461E465F1CBBB2BF
:1029F00002F806C000250E78662E07D14FF0020CB3
:102A00001E465F1CBBB202F806C000250E78732E6E
:102A100007D14FF0030C1E465F1CBBB202F806C084
:102A200000250E78632E07D14FF0040C1E465F1C64
:102A3000BBB202F806C00025491C0E78002EC8D192
:102A4000F0BD00002DE9FE4305460F4600261C4858
:102A5000006800901A48001D00680290184808306D
:102A60000068019000241BE014E05DF824003E2182
:102A7000B0FBF1F201FB1208404605F001FA3146C5
:102A8000721CD6B268545DF824003E21B0FBF1F010
:102A90004DF824005DF824000028E6D1601CC4B283
:102AA000032CE1DB0F26384605F0EAF93246761CA6
:102AB000A85400223146761C6A543046BDE8FE8395
:102AC000E8F7FF1F0FB438B5044606A8009020466B
:102AD000009A059906F0A4FC00200090204600F022
:102AE00007F9C0B238BC5DF814FB2DE9FF4F8BB07D
:102AF000044691469A4600260025AB46B9F1420F9E
:102B000009D0B9F1440F0CD0B9F1480F0CD0B9F18C
:102B10004F0F0CD102E04FF0020B08E04FF0080B12
:102B200005E04FF00A0B02E04FF0100B00BF00BFB2
:102B300000210C98FDF732FE09D22D2004F8010B7C
:102B400000200C99FDF774FB0C90701CC6B20C9819
:102B5000FDF780FD07463846FDF76EFD00900C99A5
:102B6000FDF769FB0C9000BF97FBFBF00BFB1070AF
:102B700000F0FF08B8F1090F02DD08F1370001E0AD
:102B800008F13000C2B22846691CCDB201A90A542E
:102B900097FBFBF7002FE7DC7019C6B203E001A832
:102BA000405D04F8010B2800A5F10101CDB2F6D17A
:102BB000BAF1000F01DD012000E00020B9F1440F5F
:102BC00001D1012100E00021084226D0701CC6B2CC
:102BD0002E2004F8010B19E05846FDF72DFD00905A
:102BE0000C99FDF72BFB0C900C98FDF74CFDC5B232
:102BF00005F1300004F8010B2846FDF726FD009092
:102C00000C99FDF718FB0C90701CC6B25FEA0A0025
:102C1000AAF1010101F0FF0ADED100202070701C32
:102C2000C0B206460FB0BDE8F08F00002DE9FC5F92
:102C300005460026B346B1464FF07E5A44E015F8EB
:102C4000014B2D2C01D101263EE02E2C02D14FF05C
:102C5000010B39E0302C2EDB392C2CDCBBF1000FC2
:102C60000ED11F494846FDF7E9FA8146A4F130002C
:102C7000FDF7E2FC07464946FDF788FA814623E066
:102C80005046FDF733FD0746164A174BFDF7F3FB99
:102C9000CDE90001FDF766FD8246A4F13000FDF7A5
:102CA000CBFC80465146FDF7C9FA07464946FDF779
:102CB0006DFA814608E026B10C494846FDF7BEFA98
:102CC00081464846BDE8FC9F28780028B7DC26B13D
:102CD00006494846FDF7B2FA81464846F2E7000049
:102CE000000020419A9999999999B93F000080BFB5
:102CF00010B5014600200A4601E0431C98B212F8C4
:102D0000014B002CF9D110BD002000210CE001EB9B
:102D10004102074B1B6803EB02121289012A01D002
:102D2000421CD0B24A1CD1B21429F0DB704700001B
:102D30006400002070B504460E46002507E0228896
:102D4000701905A1FFF7BEFE284485B2A41C208897
:102D50000028F4D1284670BD2530347800000000EA
:102D60000246002039B950784FF6FF7303EA00207D
:102D70001378184306E010784FF6FF7303EA00203B
:102D800053781843704700000149088870470000D5
:102D9000E0F7FF1F10B504462AA1204603F08FFC80
:102DA00008B1012010BD28A1204603F088FC08B11D
:102DB0000220F7E725A1204603F081FC08B103209B
:102DC000F0E723A1204603F07AFC08B10420E9E7EC
:102DD00020A1204603F073FC08B10520E2E71EA104
:102DE000204603F06CFC08B10620DBE71BA120465F
:102DF00003F065FC08B10720D4E719A1204603F0D1
:102E00005EFC08B10820CDE716A1204603F057FC70
:102E100008B10920C6E714A1204603F050FC08B110
:102E20000A20BFE711A1204603F049FC08B10B209E
:102E3000B8E70FA1204603F042FC08B10C20B1E72F
:102E40000120AFE74A616E00466562004D61720085
:102E5000417072004D6179004A756E004A756C00D0
:102E600041756700536570004F6374004E6F7600C4
:102E70004465630070B505460024291901220DA0A0
:102E8000FFF702F92044C4B20AA0FFF783FF064609
:102E9000281932460AA1FFF715FE2044C4B22919A9
:102EA000002204A0FFF7F0F82044C4B20020285507
:102EB000204670BD4D6179202033203230313600FC
:102EC0002D253032642D000010B500240F48FFF787
:102ED000F9FA562000F03CF8302000F039F80020D4
:102EE00000F036F80A2000F033F8032000F030F844
:102EF000062000F02DF800BF05E0FF21204600F07D
:102F0000B7FD601CC4B2202CF7DB10BDCC9F0008BD
:102F100010B5002480210A48FFF716FB00B90224EF
:102F200040210748FFF710FB00B9012401210548A3
:102F3000FFF70AFB012800D10424204610BD000041
:102F4000001001400008014001E001F065F9FCE7D4
:102F500010B504464FF400410B48FFF7FEFA03207A
:102F600000F044F80421802000F010F808212046E9
:102F700000F00CF84FF400410348FFF7F0FA04208A
:102F800000F034F810BD00000010014070B5044698
:102F90000D46002624E04FF480411348FFF7DDFA88
:102FA000032000F023F814F0800F05D04FF40051F7
:102FB0000D48FFF7D4FA04E04FF400510A48FFF738
:102FC000CCFA032000F012F84FF480410648FFF7D6
:102FD000C6FA6006040E012000F008F8701CC6B2A4
:102FE000AE42D8DB70BD00000010014000EB400194
:102FF00088B200BF0100A0F1010290B2FAD170477F
:1030000010B5002400BF12E00A4A125D02F00F0161
:103010006206100E00F02CFD064A125D111101220D
:1030200002EB4402D0B200F023FD601CC4B2102CAD
:10303000EADB10BD209E00203EB58820B44908730D
:103040000A4692F8BD1092F8BC0000F0BBF9B049F6
:103050000868FDF74BFB044622460B46ADA16846C7
:10306000FFF7CEF8684600F093FCA9494868FDF7E1
:103070003DFB044622460B46A6A16846FFF7C0F872
:10308000684600F02DFCA548007940F00200A349F5
:1030900008710846807940F0010088719C48007BE7
:1030A000C873012048729A498868FDF71FFB0446DF
:1030B0004FF066329A4BFDF741FB05D29748407AB4
:1030C00040F004009549487291498868FDF70EFB6D
:1030D00004464FF03332934BFDF730FB05D28F4857
:1030E000407A40F002008D49487289498868FDF7AE
:1030F000FDFA044600228C4BFDF720FB05D28748E1
:10310000407A40F0080085494872814890F8C20032
:10311000632801DA012000E000207D4991F8C21007
:10312000002901DD012100E00021084206D07B4892
:10313000007940F010007949087105E0774800797E
:1031400020F0100075490871714890F8C20063289A
:1031500001DA012000E000206D4991F8C2100A292F
:1031600001DD012100E00021084206D06B48007912
:1031700040F020006949087105E06848007920F0B6
:10318000200066490871624890F8C200632801DA9D
:10319000012000E000205E4991F8C210142901DDF1
:1031A000012100E00021084206D05C48007940F08F
:1031B00040005A49087105E05848007920F0400065
:1031C000564908715248007C10F0100F06D0534841
:1031D000807B40F040005149887305E04F48807B78
:1031E00020F040004D4988734948007C10F0030FDF
:1031F00006D04A48007940F001004849087105E0CE
:103200004648007920F00100444908714048007C9C
:1032100010F00C0F06D04148407940F001003F49C2
:10322000487105E03D48407920F001003B49487174
:103230003748007C10F0050F06D03848807B40F0FE
:1032400080003649887305E03448807B20F0800098
:10325000324988732E48007C10F00A0F06D02F48A0
:10326000807B40F020002D49887305E02B48807B4F
:1032700020F02000294988732548007C10F0800F39
:1032800006D02648007940F004002449087105E082
:103290002248007920F00400204908711C4890F869
:1032A000C600FF2806D11D48407B40F040001B4966
:1032B000487305E01948407B20F0400017494873E7
:1032C0001348007C10F0400F06D01448407B20F0DB
:1032D00020001249487305E01048407B40F0200070
:1032E0000E4948730A48007C10F0200F06D00B48A6
:1032F000807B40F00A000949887305E00748807B1D
:1033000020F00A0005498873FFF77AFE3EBD0000F1
:103310002C9D0020252E326620200000209E0020BB
:1033200066660E4033330F400000104070B505460E
:10333000002404E0002016490855601CC4B2102C7B
:10334000F8DB14A000F024FB052D18D2DFE805F00F
:1033500003070B0F130011A000F0C2FA13E011A035
:1033600000F0BEFA0FE011A000F0BAFA0BE011A0D5
:1033700000F0B6FA07E011A000F0B2FA03E007A0EF
:1033800000F0AEFA00BF00BFFFF73AFE70BD0000CC
:10339000209E0020424F4F540000000054502D301A
:1033A0000000000030432D310000000055432D3255
:1033B0000000000055502D330000000030502D3328
:1033C00000000000F8B504460D460A2095FBF0F118
:1033D00000FB11502B49085C8DF800000A2095FB7A
:1033E000F0F0085C8DF801000A2094FBF0F100FB7E
:1033F00011402449085C8DF802000A2094FBF0F08B
:10340000C6B21EB900208DF8030008E0012E03D1DA
:1034100006208DF8030002E00C208DF803001A4806
:10342000007828B19DF8000040F010008DF80000F1
:103430001548007808B9012000E000201249087002
:103440009DF8030040F080008DF803009DF8030014
:1034500040F010008DF803009DF80010142000F0DB
:10346000F1FA9DF80110162000F0ECFA9DF8021018
:10347000182000F0E7FA9DF803101A2000F0E2FA95
:10348000F8BD00000EA0000893000020F0B587B042
:103490000446002504E000206A494855681CC5B26E
:1034A000102DF8DB052C2AD2DFE804F0032A51792D
:1034B000A1006549D1F8DC00FDF718F9064632464F
:1034C0000B4662A104A8FEF79BFE5F49D1F8E0001D
:1034D000FDF70CF9064632460B465CA101A8FEF743
:1034E0008FFE04A800F054FA01A800F0F9F955483D
:1034F000007940F0020053490871A020887391E0E0
:103500005149D1F8E400FDF7F1F8064632460B4682
:103510004EA104A8FEF774FE4B49D1F8E800FDF770
:10352000E5F8064632460B4648A101A8FEF768FEBC
:1035300004A800F02DFA01A800F0D2F941488079E2
:1035400040F001003F498871A02088736AE03E493D
:103550008869FDF7CBF8064632460B463BA104A826
:10356000FEF74EFE3849C869FDF7C0F806463246F8
:103570000B4636A101A8FEF743FE04A800F008FAA6
:1035800001A800F0ADF92F48007940F002002D4964
:1035900008710846007940F00100087142E02A49AC
:1035A000086AFDF7A3F8064632460B4629A104A88F
:1035B000FEF726FE2449486AFDF798F8064632468B
:1035C0000B4624A101A8FEF71BFE04A800F0E0F9B9
:1035D00001A800F085F91B48807940F001001949E5
:1035E00088710846407940F0010048711AE01BA13B
:1035F00004A8FEF705FE144890F8C62018A101A8FB
:10360000FEF7FEFD04A800F0C3F901A800F068F978
:1036100000200D4908730B48807B40F00A000949DF
:10362000887300BF00BF00200649C873064A92F89D
:10363000BD1092F8BC00FFF7C5FEFFF7E1FC07B034
:10364000F0BD0000209E00202C9D0020252E32661B
:1036500020200000252E32662000000020202000BF
:103660002530336420202000FEB508208B490873E4
:103670000A4692F8BD1092F8BC00FFF7A3FE88A09E
:1036800000F086F9854991F8C400FCF7DEFF064694
:10369000FDF72CF8044622460B4683A16846FEF748
:1036A000AFFD684600F01CF98148007940F0020047
:1036B0007F4908710846807940F001008871774899
:1036C000007BC8730120487274498868FDF70EF8C2
:1036D00004464FF06632774BFDF730F805D2744858
:1036E000407A40F00400724948726C498868FCF7DF
:1036F000FDFF04464FF033326F4BFDF71FF805D244
:103700006B48407A40F00200694948726349886812
:10371000FCF7ECFF04460022684BFDF70FF805D2DA
:103720006348407A40F00800614948725B49886804
:10373000FCF7DCFF04464FF06632614BFCF7FEFFFE
:1037400005D25B48407A40F010005949487253480E
:1037500090F8C200632806DA5548007940F010005E
:103760005349087105E05248007920F01000504993
:1037700008714A4890F8C200322806DA4C480079AD
:1037800040F020004A49087105E04948007920F0DE
:10379000200047490871414890F8C200142806DA11
:1037A0004348007940F040004149087105E0404835
:1037B000007920F040003E4908713848007C10F044
:1037C000100F06D03A48807B40F04000384988739B
:1037D00005E03748807B20F04000354988732F484A
:1037E000007C10F0030F06D03148007940F0010052
:1037F0002F49087105E02E48007920F001002C497E
:1038000008712648007C10F00C0F06D0284840793B
:1038100040F001002649487105E02548407920F034
:103820000100234948711D48007C10F0050F06D0A7
:103830001F48807B40F080001D49887305E01C48CC
:10384000807B20F080001A4988731448007C10F0B7
:103850000A0F06D01648807B40F020001449887378
:1038600005E01348807B20F02000114988730B4845
:1038700090F8B00010F0200F06D00D48807B40F08B
:103880000A000B49887305E00948807B20F00A0094
:1038900007498873FFF7B4FBFEBD00002C9D002094
:1038A0002D55502D00000000252E326620200000EE
:1038B000209E002066660E4033330F40000010400B
:1038C0006666104070B505460C46044801682846F7
:1038D00002F000FE265C304670BD00008000002033
:1038E0007CB5064600243546082200216846FDF7CF
:1038F00099FA1CE028782E280CD028782349FFF765
:10390000E1FF1DF8041008430DF80400601CC4B268
:103910006D1C09E06D1C1D492E20FFF7D3FF1DF81B
:10392000041008430DF80400032C00DD02E02878A1
:103930000028DFD100BF6D4617E014492E20FFF7A5
:10394000C1FF9DF8011008420ED0032409E0601E5B
:103950001DF800000DF804000021601E0DF8001095
:10396000C4B2002C01DDF2E700E0E6E700BF00246E
:1039700009E015F8011B0A2202EB4402D0B200F064
:1039800061F8601CC4B2042CF3DB7CBDF99F000815
:103990007CB5064600243546082200216846FDF71E
:1039A00041FA1CE028782E280CD028782449FFF70B
:1039B00089FF1DF8041008430DF80400601CC4B210
:1039C0006D1C09E06D1C1E492E20FFF77BFF1DF8C2
:1039D000041008430DF80400032C00DD02E02878F1
:1039E0000028DFD100BF6D46062417E014492E20C1
:1039F000FFF768FF9DF8011008420ED0032409E08C
:103A0000601E1DF800000DF804000021601E0DF876
:103A10000010C4B2002C01DDF2E700E0E6E700BFD1
:103A2000002409E015F8011B0622A2EB4402D0B2E3
:103A300000F008F8601CC4B2042CF3DB7CBD00006D
:103A4000E49F000870B504460D4605F00F012046BE
:103A500000F00EF82911621CD0B200F009F82046DF
:103A600004EBD0714910014A555470BD209E0020CE
:103A700070B504460D464FF400410D48FEF76DFD4C
:103A80000320FFF7B3FA0321A020FFF77FFAA10676
:103A9000080E0621FFF77AFA2907080E0421FFF71E
:103AA00075FA4FF400410248FEF759FD70BD000061
:103AB0000010014010B5032101A0FDF73FFD10BD2E
:103AC000493243315F45525F49525148616E646CDF
:103AD0006572000010B5032101A0FDF72FFD10BD98
:103AE000493243315F45565F49525148616E646CBB
:103AF0006572000010B5032101A0FDF71FFD10BD88
:103B0000493243325F45525F49525148616E646C9D
:103B10006572000010B5032101A0FDF70FFD10BD77
:103B2000493243325F45565F49525148616E646C79
:103B30006572000010B504460120A0470320A0478D
:103B400010BD2DE9FF47074616461C46DDE90C89E6
:103B50009DF804004006000E0190002C16DD38464A
:103B600000F0C0F8012201A9384600F076F80546B9
:103B700035B93846FFF7DEFF002004B0BDE8F08716
:103B800022463146384600F068F80546384600F0CF
:103B9000A9F89DF8040040F001000190012201A95C
:103BA000384600F05AF805464A464146384600F085
:103BB00006F80546384600F0ACF82846DDE72DE962
:103BC000F04704460E461546A94628E04FF0000887
:103BD000002714E07806070E0320A0470A2006F00D
:103BE00097F80520A04708B147F001070420A04737
:103BF0000A2006F08DF808F1010000F0FF08B8F186
:103C0000080FE7DB06F8017B002D04DD00212046CC
:103C100000F00DF803E00121204600F008F828002C
:103C2000A5F10101CDB2D1D14846BDE8F08770B50C
:103C300004460D4615B10120A04701E00220A0472F
:103C40000320A0470A2006F063F80420A0470A20BA
:103C500006F05EF80120A04770BD2DE9F04704464C
:103C60000E461546A94639E016F8018B002717E0E5
:103C700018F0800F02D00120A04701E00220A047E9
:103C80000320A0470A2006F043F80420A0470A209A
:103C900006F03EF8781CC7B24FEA48604FEA106859
:103CA000082FE5DB0120A0470320A0470A2006F0EB
:103CB0002FF80520A04782460A2006F029F80420A4
:103CC000A0470A2006F024F8BAF1000F04D0A9EBAF
:103CD0000500C0B2BDE8F087681EC5B2002DC3D193
:103CE0004846F7E710B504460320A047052006F034
:103CF0000FF80120A0470A2006F00AF80220A0478A
:103D00000A2006F005F80420A0470A2006F000F873
:103D100010BD10B504460220A047142005F0F8FF9E
:103D20000320A0470A2005F0F3FF0120A0471E2032
:103D300005F0EEFF10BD2DE9FF47074614461D466E
:103D4000DDE90C899DF804004006000E019038461C
:103D5000FFF7C8FF012201A93846FFF77EFF06469C
:103D600036B93846FFF7E6FE002004B0BDE8F0871C
:103D70002A4621463846FFF770FF06464A46414626
:103D80003846FFF76AFF06463846FFF7C2FF30465F
:103D9000EBE7000008B50121082001F019FC08201C
:103DA000ADF8000001208DF8020048208DF80300D6
:103DB00069460848FEF7FCFA0420ADF8000001202F
:103DC0008DF8020010208DF8030069460148FEF7C7
:103DD000EFFA08BD001001402DE9F0410546094900
:103DE0002846FCF72BFA0746FCF74DFC86B2A6F5F1
:103DF0006170322190FBF1F0C4B284F020042046BF
:103E0000BDE8F081000048437CB5044607226946BE
:103E1000002000F0B1F805460DB900207CBD9DF8EA
:103E2000001001F07F00FCF7E4FFA0719DF8011085
:103E300001F07F00FCF7DDFF60719DF8021001F0DA
:103E40003F00FCF7D6FF20719DF8031001F03F0002
:103E5000FCF7CFFFA0709DF8041001F01F00FCF7E5
:103E6000C8FF60709DF80500FCF7C3FF20709DF847
:103E70000600FCF7BEFFE0700120CFE701460020FE
:103E800006291BD2DFE801F01A03070B0F130822E3
:103E90000B4B1A6112E00822094B5A610EE0042212
:103EA000074B1A610AE00422054B5A6106E0044AF6
:103EB000926812F0080F00D0012000BF00BF7047C9
:103EC0000010014038B50024FFF764FF0122694665
:103ED000122000F051F804469DF800005D2847D0FC
:103EE0001021072000F0D8F804409021082000F0AD
:103EF000D3F804401F48FFF76FFF00909DF80010B3
:103F00000A2000F0C9F8044000210B2000F0C4F89A
:103F100004405D21122000F0BFF8044000231A463F
:103F20001946184600F038F804400021084600F011
:103F3000B3F804400021012000F0AEF804408021D5
:103F4000022000F0A9F804400121032000F0A4F8A9
:103F500004400121042000F09FF8044000210520C6
:103F600000F09AF804400621084600F095F8044055
:103F7000204638BD0000C04037B582B00C4615461B
:103F8000012302AA6F210348CDE90045FFF7D9FDBF
:103F900005B030BD7D3E00082DE9F84381460F464F
:103FA00090461C4601264046FDF79DFB8DF800001B
:103FB0003846FDF798FB8DF801004846FDF793FB66
:103FC0008DF8020014F0010F05D09DF8000040F0BC
:103FD00080008DF8000014F0020F05D09DF801005C
:103FE00040F080008DF8010014F0040F05D09DF81A
:103FF000020040F080008DF80200002509E01DF865
:10400000051005F10C02D0B200F046F80640681C1D
:10401000C5B2032DF3DB002C05DDD021082000F014
:104020003BF8064004E09021082000F035F80640F7
:104030003046BDE8F8837CB50446A079FDF753FB14
:104040008DF800006079FDF74EFB8DF801002079B6
:10405000FDF749FB40F080008DF80200A078FDF7E5
:1040600042FB8DF803006078FDF73DFB8DF80400FE
:104070002078FDF738FB8DF80500002507E01DF8D6
:104080000510E8B200F008F80640681CC5B2072D1C
:10409000F5DB30467CBD000003B583B0012004A9E8
:1040A000034603AACDE900106F210248FFF743FE43
:1040B00005B000BD7D3E0008F0B502460024002397
:1040C00000202EE00D78302D01DB012500E00025D9
:1040D0000E78392E01DC012600E00026354209D099
:1040E00000EB80054FF6FF7606EA45000D78303D7F
:1040F0000544A8B20D782E2D04D11D465E1CF3B2E6
:10410000505500200D783A2D04D11D465E1CF3B2A7
:1041100050550020491C2546661CF4B2142D00DDC4
:1041200002E00D78002DCDD100BF9080F0BD2DE9CB
:10413000F04780460D460024002618E018F80600D7
:10414000FCF783FA81462819002344224946FEF7EA
:10415000CCFC0746E019C4B2032E03D13A21601EFD
:10416000295402E02E21601E2954701CC6B2042E70
:10417000E4DBB8F80400FCF768FA8146281900234C
:1041800044224946FEF7B1FC0746E019C4B2204676
:10419000BDE8F08770B504460D462B46224602491D
:1041A000024800F005F870BD00F80308132100086C
:1041B0002DE9F0470746884614461D46A14608EB00
:1041C000C52004222146B8474E463088B0F5006F1E
:1041D00001DD012000E000203188042901DA0121FD
:1041E00000E00021084300D013E0328808EBC5202E
:1041F0002146B8473088001F81B209F1040003F05E
:1042000055FE82467188514500D002E00120BDE88C
:10421000F0870020FBE7000071B600BF0648006889
:1042200000F4E06005490843001D03490860BFF33E
:10423000408F00BF00BFFEE70CED00E00000FA0574
:1042400030B50246002000BF02F07F03D2090AB158
:1042500043F080030446451CE8B20B55002AF3D115
:1042600030BD70B5054625B1284604F0FDF804467A
:1042700002E004F0C3F8044614B16668304670BD2D
:104280000020FCE7F0B59DB005460C46607A48B1C9
:10429000627A04A96068FCF7B4FD0020617A04AA80
:1042A000505403E004A9606802F0D6F9207A0D2882
:1042B00039D009DC77D2DFE800F0A310A3A3231CD8
:1042C0005CA3A342A3152F0017380728F2D2DFE81A
:1042D00000F03D4697306B79580028462168FDF77D
:1042E0008FFF92E06068027828462168FDF788FF1A
:1042F0008BE06068028828462168FDF781FF84E032
:1043000061680868FCF7F2F906460B463246284613
:104310002168FDF775FF78E060680278284621681B
:10432000FDF76EFF71E02846D4E90012FDF768FF43
:104330006BE004AA28462168FDF762FF65E060682B
:10434000026828462168FDF75BFF5EE060688047F1
:104350000646324628462168FDF752FF55E0606860
:1043600000782B4B53F8202028462168FDF748FFA2
:104370004BE0606890F9002028462168FDF740FF77
:1043800043E060680068667A0123B340184201D0B8
:10439000012000E000201E4B53F820202846216811
:1043A000FDF72EFF31E02BE0606800786168497806
:1043B000CDE9001060688378C27828462168FDF74F
:1043C0001FFF22E06168098888B202F0EDF90390CE
:1043D0006168098888B202F0E7F90290616809888B
:1043E00088B202F0E1F901909DF80E0000909DF86E
:1043F00009309DF8042028462168FDF701FF04E0FC
:1044000028462168FDF7FCFE00BF00BF1DB0F0BDCF
:104410008800002000BFFEE7054A1168486802E0F6
:1044200009684A6810440A68002AF9D170470000F8
:104430007400002002460A4B1868002106E0A2F131
:104440000803834200D107E0014600680368002B9F
:10445000F5D101B10B60704703680B6000BFFAE74C
:1044600074000020054908600021044A12681160A8
:104470000821024A12685160704700007400002051
:1044800010B503461048016803F1080083B20FE03D
:104490000868401A4C68001B984208D348684218C4
:1044A0005360086810600A6002F1080010BD0968D6
:1044B00008680028ECD1486842180020106053605A
:1044C0000A6002F10800F1E77400002001460020B4
:1044D0000A4602E00C32431CD8B2137A002BF9D101
:1044E000704730B5039C7E2505707F25057382706B
:1044F0004170C373447330BD2DE9F05F06460C462E
:1045000091469A46DDF828B00C9F002584F8039068
:1045100084F804A084F808B0678117B1F81CE08023
:1045200001E00020E08022782846691C8DB23254D8
:10453000E07B50B9A2782846691C8DB2325462786B
:104540002846691C8DB232540CE0E07B012809D169
:1045500062782846691C8DB23254A2782846691CBC
:104560008DB23254E2782846691C8DB232542279D9
:104570002846691C8DB23254E08802122846691C14
:104580008DB23254A2792846691C8DB23254BFB123
:10459000227A2846691C8DB232546089021228465C
:1045A000691C8DB23254A27A2846691C8DB23254ED
:1045B000628971190B98FCF724FC6089284485B244
:1045C000607B012810D12946304603F06FFC8046FD
:1045D0004FEA28222846691C8DB232542846691CAD
:1045E0008DB206F800800BE0607B022808D1681EBF
:1045F00081B2304603F07AFC29466A1C95B27054A9
:10460000227B2846691C8DB232542846BDE8F09FB3
:104610002DE9F05F06468B4614460025AA46012088
:10462000A07329466D1C705C2178884200D099E007
:10463000E07B50B92846691C8DB2305C61788842B5
:1046400000D093E0681C85B220E0E07B01281DD1FA
:104650002846691C8DB216F80080A078404501D02C
:10466000012000E00020B8F1FF0F01D0012100E09F
:104670000021084200D079E0681C85B2B8F1FF0F34
:1046800002D14FF0010901E04FF000092846691CF2
:104690008DB2305CE0702846691C8DB2305C2071B0
:1046A0002846691C8DB2305CE080E0884FF6FF71CF
:1046B00001EA0020E080E08829466A1C95B2715C1E
:1046C0000843E080E08800B32846691C8DB2305C66
:1046D00020722846691C8DB2305C608160894FF67B
:1046E000FF7101EA00206081608929466A1C95B249
:1046F000715C08436081AA466089284485B2E188DC
:104700006089C01C814200D034E0607B022809D15E
:104710002946304603F0EAFB0746715DB94200D0F6
:104720001CE010E0607B01280CD12946304603F0E4
:10473000BDFB074670190121FEF712FBB84200D0FD
:104740000CE000E000BFB9F1010F02D10620A07318
:1047500001E00020A0735046BDE8F09F0220A07346
:104760000020F9E70520A0730020F5E70620A073DC
:104770000020F1E70120A0730020EDE77047000062
:1047800070B5002100230F22C4780CB3164C2468A6
:1047900004F4E064C4F5E064210AC1F10403CA40F2
:1047A000447804FA03F184781440214309010F4C42
:1047B0000678A155047804F01F050124AC40057863
:1047C0006D114FF0E02606EB8505C5F8004109E0C4
:1047D000047804F01F050124AC40054D06787611DD
:1047E00045F8264070BD00000CED00E000E400E05C
:1047F00080E100E002490143024A11607047000075
:104800000000FA050CED00E010B588B00022694602
:104810000BA000F0D7FA044674B16846FCF7DAFB47
:1048200050B10522694609A0FCF788FE0B220C490D
:104830000DF10200FCF7E5FA204608B010BD0000BB
:1048400041542B435343413F0D0A0000B6CCD0C521
:10485000D6D0D0C4BAC5C2EB3A5B25735D00000068
:10486000FC9D002010B5032101A0FCF767FE10BDE0
:104870005056445F49525148616E646C6572000045
:1048800001490862704700000000424210B502462C
:1048900000200C4B186820F00300104318600A4BEE
:1048A0001B6843F00403084C2360012901D130BF89
:1048B00000E020BF044B1B6823F00403024C23607C
:1048C00010BD00000070004010ED00E001490860DC
:1048D00070470000A00442427047000010B5032258
:1048E00009A10BA0FCF72AFE03220DA110A0FCF7E2
:1048F00025FE0322124913A0FCF720FE03221649CD
:1049000016A0FCF71BFE10BD5450353030000000DF
:10491000426F6172645F4E616D653A2573000000FD
:1049200053544D33324C313531524254360000002D
:104930004350555F4D6F64656C3A2573000000006D
:1049400000127A004370755F4F53435F46524551E2
:104950003A2025644D687A0000A24A044370755FCE
:10496000467265713A2025644D687A0070470000F0
:104970001FB50948006801900748001D00680290B3
:1049800005480830006803900320009003A001A9A7
:104990000EC9FCF7D3FD1FBDE8F7FF1F49432043B5
:1049A0006F64653A255820255820255800000000DE
:1049B0007047000010B5032108A0FCF7BFFDFFF70A
:1049C0008DFFFFF7D3FFFFF7D3FFFCF7D7FE00F013
:1049D00013F8FFF7EDFF00F02FF810BD0A546F73C6
:1049E0002053797374656D2053746172742E2E2E6A
:1049F0002E2E2E2E2E2E2E0010B5FEF785F90446F3
:104A000003232246142102A0FCF798FD10BD0000EC
:104A10005461736B506F6F6C53697A653A256420EB
:104A200062757420686173202564207461736B2043
:104A30006372656174652E0038B500241DE004EBD7
:104A400044001549096801EB0010C06A98B10320C1
:104A5000009004EB44001049096801EB0010038C3E
:104A600004EB44000C49096801EB00102146C26ABE
:104A70000AA0FCF763FD601CC4B2142CDFDB601ECF
:104A8000C4B2FFF7C9FC054603232A4649F6404154
:104A900007A0FCF753FD38BD640000205461736B20
:104AA0005B25645D4E616D653A2573282564290098
:104AB0004D656D6F727953697A653A256420627528
:104AC0007420757365723A25640000002DE9F04189
:104AD00005460E4617460522294608A0FCF72EFD7E
:104AE000002407E0325D0523214605A0FCF726FDE2
:104AF000601C84B2BC42F5DBBDE8F0812573000088
:104B00004275665B25645D3D3078257800000000C5
:104B100010B50A4890F8B00010F0200F0DD000F04A
:104B20004FFB04462CB10522214605A0FCF706FDEB
:104B300003E0052107A0FCF701FD10BD2C9D00201E
:104B4000B7A2CBCDC5E4D6C3D6A1CAA7B0DC5B253E
:104B5000645D0000B7A2CBCDC5E4D6C3D6A14F4B50
:104B60000000000000B599B00948B0F8AA3000F183
:104B70008A0208A16846FDF743FB052269460CA09E
:104B8000FCF7DCFC6846FDF745FE19B000BD0000EF
:104B90002C9D002041542B51494F50454E3D2254ED
:104BA0004350222C222573222C25640D0A0000007C
:104BB000C1ACBDD3B5BD3A257300000010B54FF4AC
:104BC0007A7229A129A0FDF7D5FD08B9012010BDF1
:104BD00000F0DEF8284981F8C200052127A0FCF783
:104BE000ADFC052128A0FCF7A9FC4FF47A7229A19D
:104BF00029A0FDF7BFFD02234FF47A7229A126A058
:104C0000FDF7C4FD20B9052127A0FCF797FC03E0C0
:104C1000052127A0FCF792FC02234FF47A7226A10B
:104C200027A0FDF7B3FD40B1052128A0FCF786FCC5
:104C30000220114981F8C3000FE002234FF47A7279
:104C400026A11FA0FDF7A2FD38B1052125A0FCF784
:104C500075FC0420084981F8C300052125A0FCF754
:104C60006DFC0020B3E700002139390041542B438B
:104C700053510D0A000000002C9D0020BCECB2E94D
:104C8000D0C5BAC500000000D5FDD4DAD7A2B2E184
:104C9000000000003000000041542B435245473FC4
:104CA0000D0A000035000000B1BEB5D8BFA8000055
:104CB000CDE2B5D8BFA800004D4F42494C45000099
:104CC00041542B434F50533F0D0A0000D6D0B9FA40
:104CD000D2C6B6AF53494DBFA8000000554E494358
:104CE0004F4D0000D6D0B9FAC1AACDA853494DBF47
:104CF000A8000000D7A2B2E1B3C9B9A60000000025
:104D000070B50546002410222146641C6A54FF2217
:104D10002146641C6A5400222146641C6A54042201
:104D20002146641C6A54291916A0FCF76AF820442D
:104D300084B204222046611C8CB22A5402222046EE
:104D4000611C8CB22A5400222146601C84B26A5431
:104D50003C222146601C84B26A5400222046611C19
:104D60008CB22A5410222046611C8CB22A54291974
:104D70000648FCF746F8204484B2A01E6870E0B2F2
:104D800070BD00004D515454000000007E9D002075
:104D900008B5694605A000F06FF89DF800100522DF
:104DA00005A0FCF7CBFB9DF8000008BD41542B4348
:104DB00053510D0A00000000D0C5BAC5C7BFB6C820
:104DC0003A2564002DE9F84F82460C4617464FF00D
:104DD00000080020009081465146254804F085F9DE
:104DE00024494FF4967248680021FCF71BF84FF4F1
:104DF0007A73322200211E4804F0F6F800F0FF0B0F
:104E0000BBF1000F30D00020207000252AE01948A7
:104E10004068465D302E01DB012000E00020392E85
:104E200001DC012100E00021084209D04F4504D1F6
:104E30004046411C01F0FF082654012000900FE07D
:104E4000009868B14F4505D100224046411C01F051
:104E5000FF0822540020009009F1010000F0FF0932
:104E6000681CC5B25D45D2DB4046BDE8F88F000046
:104E7000004400409C0000202DE9F04780460C468D
:104E80000025AA464146234804F02FF922494FF451
:104E9000967248680021FBF7C5FF4FF47A733222FF
:104EA00000211C4804F0A0F800F0FF09B9F1000F40
:104EB0002CD000202070002626E017484068875D2F
:104EC000302F01DB012000E00020392F01DC01211F
:104ED00000E0002108420DD0605D00EB800040063C
:104EE000000E6055615DA7F13000084460554FF039
:104EF000010A07E0BAF1000F04D0681CC5B2002017
:104F000060558246701CC6B24E45D6DB2846BDE8C9
:104F1000F0870000004400409C00002010B54FF4D2
:104F200080713B48FDF71BFB40F24C4003F0C6F993
:104F3000052138A0FCF702FB4FF480713448FDF7DF
:104F40000CFB40F24C4003F0B9F94FF400513448E7
:104F5000FDF705FB40F24C4003F0B0F9052131A00C
:104F6000FCF7ECFA4FF400512D48FDF7F6FA4FF438
:104F70007A7003F0A3F94FF480712D48FDF7E4FA3D
:104F8000012804D105212BA0FCF7D8FA01E001206B
:104F900010BD43F2B06003F091F94FF47A7228A18A
:104FA00028A0FDF7E7FB08B90220F1E7052127A0BB
:104FB000FCF7C4FA4FF47A7003F080F94FF4FA6208
:104FC0001FA126A0FDF7D6FB08B90320E0E70521C5
:104FD00024A0FCF7B3FA4FF47A7219A124A0FDF7CC
:104FE000C9FB08B90420D3E7052124A0FCF7A6FAE1
:104FF000FFF7E4FD04462CB10522214623A0FCF76F
:105000009DFA03E0052125A0FCF798FA0020BFE7F0
:105010000010014047505253C9CFB5E700000000CF
:10502000000C014047505253BFAABBFA00000000D9
:1050300000080140BFAABBFAB3C9B9A6000000002E
:105040004F4B000041540D0A000000004154D6B8F7
:10505000C1EED6B4D0D0B3C9B9A600004154453092
:105060000D0A0000C9E8D6C3B2BBBBD8CFD400003C
:1050700041542B4350494E3F0D0A0000B2E9BFB4E2
:10508000CAC7B7F1D3D050494E000000C1ACBDD360
:10509000CDF8CAA7B0DC5B25645D0000C1ACBDD310
:1050A000CDF8C2E7B3C9B9A60000000010B50446A8
:1050B0004FF47A7003F002F94FF47A7220A122A023
:1050C000FDF758FB08B9012010BD8CB94FF47A7276
:1050D00024A125A0FDF74EFB08B90220F4E74FF408
:1050E0007A7220A123A0FDF745FB08B90420EBE765
:1050F000012C11D14FF47A721AA123A0FDF73AFBCB
:1051000008B90320E0E74FF47A7216A119A0FDF761
:1051100031FB08B90420D7E74FF47A7211A11DA022
:10512000FDF728FB08B90520CEE74FF47A720DA1F0
:105130001EA0FDF71FFB08B90620C5E70020C3E746
:1051400043504D530000000041542B43504D533DFC
:10515000224D54222C224D54222C224D54220D0A31
:10516000000000004F4B000041542B434D47463D8B
:10517000300D0A0041542B435343533D22554353B2
:1051800032220D0A0000000041542B434D47463D9A
:10519000310D0A0041542B43534D503D31372C31D2
:1051A00036372C302C380D0A0000000041542B43B8
:1051B0004E4D493D322C312C302C302C300D0A0014
:1051C00010B5B2B0002440F6B83003F077F8684666
:1051D000FFF796FD0446224616A11A4803F085FF04
:1051E0004FF4FA6118A0FDF7E7F900B10EE04FF4B3
:1051F000FA6115A0FDF7E0F900B107E04FF4FA619C
:1052000011A0FDF7D9F900B100E000BF22466946C0
:105210000C4803F05AFF4FF47A710CA0FDF7CCF95B
:1052200010B9022032B010BD4FF4FA60FDF774FBE4
:105230000020F7E741542B514953454E443D256426
:105240000D0A0000004400403E00000053454E445B
:10525000204F4B002DE9F043FFB04FF0020900242E
:1052600032222146641C02A842544C4400222146AA
:10527000641C425410222146641C425401195048B7
:10528000FBF7BFFD204484B200222046611C8CB293
:1052900002A90A5401222046611C8CB202A90A54B8
:1052A000081948A1FDF70EFC204484B24449523944
:1052B0000868FBF71BFA05460B4602A908192A469F
:1052C00045A1FDF7FFFB204484B23D4952394868AF
:1052D000FBF70CFA05460B4602A908192A463EA11F
:1052E000FDF7F0FB204484B2354952398868FBF75A
:1052F000FDF905460B4602A908192A4636A1FDF715
:10530000E1FB204484B22E49523991F8C200FBF7E8
:105310009CF90746FBF7EAF905460B4602A908196E
:105320002A462DA1FDF7CEFB204484B224495239F0
:10533000D1F8C800FBF7DAF905460E462049523984
:10534000D1F8CC00FBF7D2F907460B4602A90819A1
:105350003A4626A1CDE90056FDF7B4FB204484B2BD
:1053600002A9081927A1FDF7ADFB204484B2A4EBE4
:105370000901481E0DF10901FEF762FF224622A134
:10538000254803F0B2FE4FF4FA6124A0FDF714F9AA
:1053900018B901207FB0BDE8F083224602A91E485B
:1053A00003F093FE4FF47A711DA0FDF705F908B9DB
:1053B0000220EFE74FF4FA60FDF7AEFA0020E9E7CC
:1053C0007E9D00207B2273656E736F7244617461F1
:1053D00073223A5B000000007B2276616C756522C7
:1053E0003A2B252E32667D2C000000007B226C615A
:1053F00074223A252E37662C226C6E67223A252EAF
:1054000037667D005D7D000041542B514953454E68
:10541000443D25640D0A0000004400403E000000A9
:1054200053454E44204F4B0010B5B2B00024C0226B
:105430002146641C0DF8012000222146641C0DF851
:105440000120224611A1154803F04FFE4FF4FA61E6
:1054500013A0FDF7B1F810B9012032B010BD2246FB
:1054600069460E4803F031FE4FF47A710DA0FDF746
:10547000A3F808B90220F0E74FF4FA60FDF74CFA00
:1054800008B90020E9E70020E7E7000041542B516C
:105490004953454E443D25640D0A00000044004038
:1054A0003E00000053454E44204F4B0030B5E9B05C
:1054B0000546002400BF2146621CD4B201EB410224
:1054C00002EBC102214950180B2264A9FBF799FC99
:1054D00000208DF89B0164A8FBF77CFD10B901202A
:1054E00069B030BD022C01DD0020F9E70120FFF793
:1054F000DDFD694664A8FCF7B1FE00208DF82C00A4
:105500006A4613A1164803F0F0FD052264A915A010
:10551000FCF714F84FF47A7002F0D0FE6946284682
:10552000FCF79CFE2846FDF7E3FB00220DF8202047
:1055300069460B4803F0D9FD1A21094803F0BCFD68
:105540004FF47A710AA0FDF737F8B4E7689D0020A0
:1055500041542B434D47533D222573220D0A000031
:1055600000440040B7A2CBCDB5BD5B25735D000004
:10557000434D47530000000001460020034A506895
:1055800020F4404008435060704700000010024083
:1055900029B1064A52690243044B5A6104E0034AA6
:1055A00052698243014B5A6170470000001002406B
:1055B00029B1064AD2690243044BDA6104E0034A86
:1055C000D2698243014BDA6170470000001002404B
:1055D00029B1064A92690243044B9A6104E0034AE6
:1055E00092698243014B9A617047000000100240AB
:1055F00029B1064AD2680243044BDA6004E0034A48
:10560000D2688243014BDA6070470000001002400C
:1056100030B500210022002400232D4D6D6805F0D7
:105620000C0121B1042905D0082923D105E0294D19
:10563000056022E0274D05601FE0254D6D6805F4EB
:105640007012234D6D6805F48034022505EB9242FB
:105650001CB9214D554305600BE01D4D6D6815F4D7
:10566000003F03D01C4D5543056002E0194D5543E2
:10567000056002E0174D056000BF00BF144D6D6866
:1056800005F0F0010909154D6B5C0568DD404560CA
:105690000F4D6D6805F4E061090A104D6B5C4568BB
:1056A000DD4085600A4D6D6805F46051C90A0B4DF7
:1056B0006B5C4568DD40C560054D6D6805F4404193
:1056C000890B074D6B5CC568B5FBF3F5056130BD13
:1056D0000010024000127A0000093D000000002086
:1056E0001000002010B5032101A0FBF727FF10BD1B
:1056F0005243435F49525148616E646C65720000C9
:1057000010B5032101A0FBF719FF10BD525443410E
:105710006C61726D5F49525148616E646C657200D4
:1057200000B599B040F2DC5307A20BA16846FCF724
:1057300067FD052269460FA0FBF700FF6846FDF7ED
:1057400069F819B000BD00006C696E6B2E746C694D
:105750006E6B2E696F00000041542B51494F50452C
:105760004E3D22544350222C222573222C25640DB9
:105770000A000000C1ACBDD3B5BD3A2573000000DE
:1057800010B59AB0002401A9081915A1FDF79AF9DE
:105790000444052201A917A0FBF7D0FE224618A158
:1057A0001B4803F0A2FC4FF4FA611AA0FCF704FFB7
:1057B00010B901201AB010BD224601A9144803F007
:1057C00084FC4FF47A7114A0FCF7F6FE08B90220AD
:1057D000F0E74FF4FA60FDF79FF80020EAE70000D9
:1057E000313233343536373839313233343541425A
:1057F00000000000B7A2CBCDCDB73A257300000062
:1058000041542B514953454E443D25640D0A000037
:10581000004400403E00000053454E44204F4B00E2
:1058200030B5D1B0002500BF002406A908196AA12F
:10583000FDF748F9044406A9081968A1FDF742F9E3
:10584000044406A9081969A1FDF73CF9044406A916
:1058500008196AA1FDF736F90444E9B201A8FDF779
:10586000F1F806A9081901AA68A1FDF72BF904446B
:1058700010226B4901A8FBF7C4FA06A9081969A10F
:10588000FDF720F90444002006A90090081904231C
:1058900003226AA1FDF716F9044406A908196EA1AE
:1058A000FDF710F9044401A8FDF7E4FA06A9081968
:1058B00001AA6EA1FDF706F9204484B206A90819D1
:1058C00072A276A1FDF7FEF8204484B2052206A953
:1058D00077A0FBF733FE224678A17C4803F005FC55
:1058E0004FF4FA617AA0FCF767FE10B9012051B0BD
:1058F00030BD224606A9754803F0E7FB4FF47A71E4
:1059000074A0FCF759FE08B90220F0E74FF4FA60E2
:10591000FDF702F871484068007830281AD16F48C6
:1059200040684078312815D1052229466CA0FBF744
:1059300005FE681C85B2052229466EA0FBF7FEFD18
:105940003C2D06DD052229466FA0FBF7F7FDE8B2E6
:10595000CDE769E761484068007830283BD15F486F
:1059600040684078302836D1052229466CA0FBF7E4
:10597000E5FDFF212A48523880F8B41040F25B71EF
:10598000A0F8AA106B4981616B49C1616949016244
:10599000694941623C2180F8B510052180F8B610B4
:1059A00000F18A0165A000F057FE1D49103166A084
:1059B00000F052FE0B221A49163965A0FBF721FAB6
:1059C0001749243165A000F047FE01F0FDFF01F00A
:1059D0005BF800208BE727E77B000000226D6574F1
:1059E000686F64223A2231222C00000022656E7416
:1059F0005F6B6579223A223335222C00226465766A
:105A00006963655F6964223A22222C00226465760C
:105A10006963655F6E6F223A222573222C000000B5
:105A20007E9D0020226465766963655F6E616D65A9
:105A3000223A22CEC2CAAAB6C8222C002268775FB8
:105A400076657273696F6E223A2225642E25642E64
:105A50002564222C00000000226465765F6D6F646F
:105A600065223A225450353030222C002263726570
:105A70006174655F64617465223A22257320313850
:105A80003A30363A3033222C0000000053544D3364
:105A9000324C31353152425436000000226D63756C
:105AA0005F6D6F6465223A222573227D000000003D
:105AB000B7A2CBCDC4DAC8DD2573000041542B5109
:105AC0004953454E443D25640D0A00000044004002
:105AD0003E00000053454E44204F4B009C000020E8
