:020000040800F2
:1050000060A2002045510008059100088583000832
:105010009D8D0008455E000835DA0008000000009C
:1050200000000000000000000000000065AD000866
:10503000A16B0008000000001D92000873B5000875
:10504000D5DA00080192000801B600085F51000897
:105050005D73000885A40008217200085F510008F4
:105060005172000871720008917200085F510008C7
:10507000D1620008F96200085F5100085F51000822
:105080005F510008216300085F5100085F5100086C
:105090005F510008495E0008695E0008B1720008AF
:1050A00049BA0008ADBA000889BA000869BA000810
:1050B0005F5100085F510008CDBA000885840008E0
:1050C00065840008C5840008A584000845A9000877
:1050D00061A900084DD30008A1D3000801D400083D
:1050E0002D720008A1A4000829DA000821BB0008DD
:1050F00085BB000861BB000841BB0008B95B000824
:10510000117400085F510008E9BA00087DA9000881
:10511000A5D20008F9D200085F51000805BB0008BD
:105120004963000871630008996300085F51000833
:10513000DFF80CD000F078FC00480047F1E30008ED
:1051400060A200200648804706480047FEE7FEE7C9
:10515000FEE7FEE7FEE7FEE7FEE7FEE7FEE7FEE727
:105160007DB500083151000830B505462A460B468A
:1051700012F8010B13F8014B08B1A042F8D01CB192
:10518000002802D06D1CF1E7284630BDF0B480EA5B
:105190000102D40F4200B2EB410F02D20246084690
:1051A00011464A0042D0C30DDDB2C1F3C752AD1A59
:1051B000202D35DAC1F3160141F4000204B1524248
:1051C000C5F1200602FA06F12A411044B3EBD05F84
:1051D00023D0C4B1012DA0EBC35009DCF0BC4FF0CB
:1051E000004202EAC35200F50000DBB200F077BBD8
:1051F000400000F1807000EBC350A0F1807040EAE5
:10520000D170490009E0490841EAC071A0EBC350E0
:1052100000F50000400800EBC350F0BC00F056BBA6
:105220006142012202EB4101001BF6E7F0BC70472E
:1052300081F00041AAE780F00040A7E780EA010280
:1052400010B502F00043400026D04A0023D04FEAB8
:10525000106101EB1261C0F35600C2F3560240F434
:10526000000042F40002A0FB0220A1F17F014FEAFE
:105270000040140401D000F1010050EA124001D4B2
:105280004000491EC2B20C0604EBD010401C40087E
:10529000802A02D003E0002010BD20F00100002988
:1052A00000DA0020184310BD30B480EA010202F099
:1052B000004530F0004221F0004015D0A0B1C0F30D
:1052C000C753C2F3C754C2F31601C0F31600E41A61
:1052D00041F4000140F400027D34914201D3641C8A
:1052E00000E04900002C02DA30BC002070474FF487
:1052F00000000023914201D3891A034340084FEA7A
:105300004101F7D151B1914202D14FF0004105E086
:1053100002D24FF0010101E06FF0010103EBC45034
:10532000284430BC00F0D2BA2DE9FE4F804681EA15
:105330000300C00F0C46009021F0004123F000450F
:10534000B8EB0200A94105D24046214690461C46D2
:105350000B46024623F00040104304D1404621464C
:1053600003B0BDE8F08F270DC7F30A00C3F30A515D
:105370000290401A0190402866DAC3F3130040F40B
:10538000801B0098924620B10023D2EB030A63EB06
:105390000B0B01985946C0F14002504600F065FAE7
:1053A00006460D4650465946019A00F07DFA10EB2C
:1053B00008006141002487EA115284EAE7731A4326
:1053C0003BD0009A3AB3019A012A4FEA075210DC07
:1053D000001B61EB02014FF0004202EA0752CDE9E7
:1053E0000042001C41F5801132462B4600F0B1FA14
:1053F000B6E7001B61EB0201001C41F580130018A9
:105400005B412018A2F5001747EB030140EAD57075
:10541000B6196D4111E06D084FEA360645EAC075D0
:105420004FEA0752001B61EB0201001C41F580119D
:1054300049084FEA30000019514132462B4603B06B
:10544000BDE8F04F00F078BA009801224000002338
:10545000D0EB020263EBE073009821464FEAE07460
:10546000B8EB000061EB0401E9E783F000435BE780
:1054700081F0004158E72DE9FE4F81EA030404F072
:10548000004421F0004100944FF0000B23F0004352
:1054900050EA010402D052EA030404D1002001467C
:1054A00003B0BDE8F08FC3F30A54C1F30A552C448E
:1054B000A4F2F3340194A0FB0254C1F3130141F4AC
:1054C0008011C3F3130343F4801301FB024400FB78
:1054D000034E840A970A44EA815447EA8357A4FB9F
:1054E000076802958D0A05FB07854FEA932C04FB9C
:1054F0000C542705029D4FEA065847EA1637B5EBCC
:1055000008056EEB070C870E920E47EA811742EAF8
:105510008312A7FB0201B6EB0B0164EB00042B0D19
:1055200043EA0C335E1844EB1C50DA465146E7FB65
:105530000201C5F313044FEA0B3343EA14534FEA55
:105540000432019C43EA0603A4F10C040294009C7B
:10555000CDE900B400F0FDF9A2E72DE9F04D81EAB4
:10556000030404F0004B21F0004514464FF0000AFC
:1055700023F0004150EA050220D054EA01021DD078
:10558000C5F30A570246C5F31303C1F31300C1F371
:105590000A5640F4801543F48013A7EB0608101B4D
:1055A000D64608F2FD3873EB050002D308F1010876
:1055B00001E092185B41B8F1000F03DA00200146C8
:1055C000BDE8F08D00204FF48011064684460EE0C1
:1055D000171B73EB050705D3121B63EB050306438B
:1055E0004CEA010C49084FEA300092185B4150EA3E
:1055F0000107EDD152EA030012D082EA040083EAE7
:105600000501084303D100224FF0004308E0101BBE
:10561000AB4102D20122002302E06FF001025310DD
:105620001AEB06004CEB085110EB0A0041EB0B01A2
:10563000BDE8F04D00F080B9C10F80EAE070084489
:10564000CA079623002100F04AB99623002211468A
:1056500000F045B90EB540F2334102910021CDE989
:1056600000110A460B4600F074F903B000BD00F0CB
:10567000004220F00040C10DC0F3160040F40000CD
:105680007F2901DA00207047962903DCC1F19601D9
:10569000C84001E096398840002AF4D04042704763
:1056A00020F00040C10DC0F3160040F400007F2937
:1056B00001DA00207047962903DCC1F19601C84049
:1056C000704796398840704770B5C1F30A5201F0AF
:1056D00000450024C1F3130140F2FF3341F480116F
:1056E0009A4201DA002070BD40F233439A42A2F29E
:1056F000334203DC524200F0C7F800E090402C43F4
:10570000F1D0404270BD00F0004230F000400AD0BD
:10571000C10D01F56071C0F3160042EA0151C208E3
:1057200040071143704700200146704730B50029FB
:1057300004DB4FF00044404264EB0101002B04DB2A
:105740004FF00044524264EB03038B4208BF824295
:1057500030BD000030B5002904DB4FF0004440426A
:1057600064EB0101002B04DB4FF00044524264EB78
:105770000303994208BF904230BD000001F000438E
:1057800030B421F0004150EA010206D00A0DA2F522
:105790006072C1F31301002A02DC30BC00207047A4
:1057A000440F44EAC104C100E01830BC00EBC25011
:1057B00000F08CB8002801DBC0F10040002901DBBB
:1057C000C1F1004181427047002801DBC0F1004077
:1057D000002901DBC1F100418842704730B50B461A
:1057E000014600202022012409E021FA02F59D4211
:1057F00005D303FA02F5491B04FA02F52844151EE5
:10580000A2F10102F1DC30BD2DE9F05F0546002078
:1058100092469B4688460646814640241BE0284621
:1058200041464746224600F02FF853465A46C01AD2
:10583000914110D311461846224600F016F82D1A51
:1058400067EB01084F4622460120002100F00DF8C9
:1058500017EB00094E41201EA4F10104DFDC48468D
:1058600031462A464346BDE8F09F202A04DB203A11
:1058700000FA02F1002070479140C2F1200320FAA3
:1058800003F3194390407047202A04DB203A21FAA1
:1058900002F00021704721FA02F3D040C2F1200249
:1058A0009140084319467047202A06DBCB17203A5F
:1058B00041FA02F043EAE07306E041FA02F3D04015
:1058C000C2F1200291400843194670470029A8BF41
:1058D0007047401C490008BF20F00100704710B419
:1058E000B0FA80FC00FA0CF050EA010404BF10BCCE
:1058F000704749B1CCF1200421FA04F411FA0CF1FB
:1059000018BF012121430843A3EB0C01CB1D010665
:10591000000A002BBEBF002010BC704700EBC35034
:1059200010440029A4BF10BC7047401C490008BFA8
:1059300020F0010010BC704710B5002B08DA401CA5
:1059400041F1000192185B411A4301D120F001009E
:1059500010BD2DE9F04D92469B4611B1B1FA81F28E
:1059600002E0B0FA80F220329046FFF77EFF044654
:105970000F4640EA0A0041EA0B0153465A460843E3
:1059800003D120463946BDE8F08D114653EA0100A7
:1059900015D0C8F140025046FFF776FF05460E4687
:1059A000504659464246FFF760FF084301D00120A8
:1059B00000E00020054346EAE0762C4337430A988E
:1059C0004FEA4453A0EB08004FEAD4240A304FF0CA
:1059D000000244EA47544FEAD72502D50020014689
:1059E000D1E7010510196941DDE908450019694150
:1059F000BDE8F04DA0E7C1F30A52C1F3130140F234
:105A0000FF3341F480119A4202DA002001467047C8
:105A100040F233439A42A2F2334202DC5242FFF791
:105A200033BFFFF722BF0000064C074D06E0E068D9
:105A300040F0010394E8070098471034AC42F6D3D5
:105A4000FFF77AFB585501087855010882B02DE917
:105A5000FF1FEFF3038001B4684600F1400000E946
:105A600001400C480168C1F800D00B48D0F800D0C4
:105A700001BC80F30388BDE8FF1F01B000BD0648EC
:105A8000D0F800D001BC80F30388BDE8FF1F01B04F
:105A900000BD00004C0000204800002008B5012196
:105AA000084604F055FC01214FF4047004F070FC2A
:105AB0001020ADF8000000208DF803006946024870
:105AC00001F09AFE08BD00000010014010B5044628
:105AD000FFF7E4FF204600F001F810BD10B590B0CC
:105AE0000446334800F078FC3248059006940020C4
:105AF000079001200890002009900A904FF48070D0
:105B00000B9080000C9020200D9000020E90002041
:105B10000F9005A9264800F005FD0121244800F05A
:105B20004FFC002000908DF8040001208DF8050046
:105B30004FF4602002900020039001208DF81000A7
:105B400069461C484C3800F06FF84FF4404004F0B0
:105B5000F3FB052301220E2116484C3800F08CF887
:105B6000012114484C3800F040F8012111484C380C
:105B700000F030F80F484C3800F0DAF800BF0D485C
:105B80004C3800F047F80028F9D10A484C3800F0AA
:105B9000DFF800BF07484C3800F032F80028F9D190
:105BA000012104484C3800F0C8F810B010BD0000C6
:105BB000080002404C24014010B5032101A000F070
:105BC00011FF10BD414443335F49525148616E6437
:105BD0006C65720021B1826842F00102826003E0CC
:105BE000826822F001028260704721B1826842F42B
:105BF0008072826003E0826822F480728260704763
:105C0000014600208A6812F0040F01D0012000E054
:105C100000207047014600208A6812F0080F01D06A
:105C2000012000E00020704730B50246002000232C
:105C300050680F4C20400D790C6844EA052420433D
:105C4000506090680B4C2040D1E902542C434D79B0
:105C500044EA450420439060D06A20F470000C7C34
:105C6000641EE4B2234340EA0350D06230BD00001A
:105C7000FFFEF0FFFDF7F1FFF0B504460D460020F2
:105C80000021092D11DDE068A5F10A0606EB4607A3
:105C9000072606FA07F18843A5F10A0606EB460631
:105CA00003FA06F10843E0600CE0206905EB4507C4
:105CB000072606FA07F1884305EB450603FA06F1C5
:105CC00008432061072A0FDA606B561E06EB860731
:105CD0001F2606FA07F18843561E06EB860605FACC
:105CE00006F10843606322E00D2A0FDA206BD61F0D
:105CF00006EB86071F2606FA07F18843D61F06EB38
:105D0000860605FA06F10843206310E0E06AA2F176
:105D10000D0606EB86071F2606FA07F18843A2F157
:105D20000D0606EB860605FA06F10843E062F0BDB3
:105D3000816841F008018160704721B1826842F4B6
:105D4000A002826003E0826822F4A00282607047B1
:105D5000816841F0040181607047000010B50021A6
:105D6000074802F0DBFE044644B9052105A000F017
:105D700039FE0121024802F0D1FE0446204610BD42
:105D8000609D0020C5E4D6C3B2CECAFDC6ACC7F83C
:105D9000D2BBB4EDCEF3000006E04FF47A7100BF41
:105DA0000A00A1F10101FBD10200A0F10100F4D130
:105DB00070470146081100EB4000A1EB4000C0B263
:105DC0007047000030B50246002441F66F2316E00C
:105DD000E01800EBD07569100B4830F821009042B4
:105DE00004D1094800EB8100408830BD064830F8F6
:105DF0002100904201DA4C1C00E04B1E00BF9C4287
:105E0000E6DD0020F1E7000010E80008F0B50346E9
:105E100000201C460D46104603E014F8016B05F8FF
:105E2000016B1600A2F10107BAB2F6D1F0BD30B590
:105E3000034601E003F8011B1400A2F10105AAB218
:105E4000F8D130BD00BFFEE710B5032101A000F07E
:105E5000C9FD10BD43414E315F5258315F49525127
:105E600048616E646C65720010B5032101A000F0FA
:105E7000B9FD10BD43414E315F5343455F49525117
:105E800048616E646C6572002DE9F04105460E466E
:105E9000424802F0DFFFA84202DC0020BDE8F081AA
:105EA00005EB45003D4901EB8004142231463C4896
:105EB00007F08FFD207A092833D008DC02280FD0A4
:105EC000042837D0052823D0062863D116E00B28F4
:105ED0000BD018284BD01A2856D01D285AD12FE0A5
:105EE000606808B16068804754E0304602F0D0F83E
:105EF0000746FFF7D5FB616808704BE0304602F0BB
:105F0000C7F80746FFF7B3FB40B26168087041E08D
:105F1000304602F0BDF80746FFF7C2FB6168088013
:105F200038E0304602F0B4F80746FFF7B9FB616885
:105F300008602FE0304602F0ABF86168086029E0A5
:105F400018A1304605F0FDFA40B160680068627A39
:105F50000121914008436168086007E060680068BB
:105F6000627A0121914088436168086012E00DA1C6
:105F7000304605F0E6FA18B101206168087002E0C9
:105F800000206168087005E0627A30466168FFF7BA
:105F90003DFF00BF00BF012080E7000090E6000841
:105FA000004400405400000070B504460D460A4805
:105FB00002F050FFA04201DC002070BD04EB440061
:105FC000054A02EB8001284602F020FE284602F036
:105FD000C1F8C6B23046F0E790E60008024600215C
:105FE00010E0505C392801DD012000E00020535C06
:105FF000302B01DA012300E00023184301D00020F8
:106000007047491C0B29ECDB0120F9E702E0002274
:1060100000F8012B0A00A1F1010399B2F7D17047F2
:1060200010B5002400F094F804E0601CC4B2012014
:1060300000F038F8114801881148006801F0A8FC08
:1060400008B1642CF1DB642C01DB012010BD0024BD
:1060500004E0601CC4B2012000F024F80748018865
:106060000748006801F094FC08B9642CF1DB642C4B
:1060700001DB0120EAE70020E8E7000088000020BB
:106080008C000020002107E042F6E06100BF0A001A
:10609000A1F1010399B2FAD10200A0F1010398B273
:1060A000F2D17047002106E0072100BF0A00A1F1EC
:1060B000010399B2FAD10200A0F1010398B2F3D121
:1060C000704700002DE9F04105460F462C78C4EBDF
:1060D000042084B26878204484B214F4004F10D0B5
:1060E00024F400442046FFF7B0FA0646154930462E
:1060F000FFF7DAF8064631460020FFF799F8064622
:1061000008E02046FFF7A1FA06460E493046FFF7A1
:10611000CBF806460C493046FFF756FB02D24FF04B
:10612000010801E04FF0000808493046FFF742FB44
:1061300001D2012000E0002018EA000F00D03E60EC
:10614000BDE8F08100002041000048C20000F0429C
:1061500008B508480088ADF8000003208DF802005B
:1061600048208DF8030069460348006801F044FBAD
:1061700008BD0000880000208C00002008B50848F9
:106180000088ADF8000003208DF8020010208DF883
:10619000030069460348006801F02EFB08BD0000BB
:1061A000880000208C0000202DE9FC4105460E46A9
:1061B00000F074F8FFF734FF10B10120BDE8FC8156
:1061C000002405E000F05AF80DF80400601CC4B289
:1061D000052CF7DB9DF800009DF8011008449DF8A0
:1061E000021008449DF803100844C7B29DF804004B
:1061F000B84201D00120E1E71DB131466846FFF702
:1062000061FF26B129460DF10200FFF75BFF002078
:10621000D4E7000010B5002404E0601CC4B20120E3
:10622000FFF740FF134801881348006801F0B0FBF6
:1062300008B1642CF1DB002404E0601CC4B201202E
:10624000FFF730FF0B4801880B48006801F0A0FB06
:1062500008B9642CF1DB2320FFF724FF05480188EF
:106260000548006801F094FB08B1012010BD002032
:10627000FCE70000880000208C00002070B500249E
:10628000002506E06006040EFFF7C4FF0443681C07
:10629000C5B2082DF6DB204670BD000010B5FFF733
:1062A0006DFF094801880948006801F07AFB0A205F
:1062B000FFF7E8FE044801880448006801F073FB1A
:1062C0005020FFF7EFFE10BD880000208C0000205A
:1062D00010B5032101A000F085FB10BD444D4131F4
:1062E0005F4368616E6E656C325F49525148616E02
:1062F000646C65720000000010B5032101A000F07D
:1063000071FB10BD444D41315F4368616E6E656C39
:10631000335F49525148616E646C65720000000041
:1063200010B5032101A000F05DFB10BD444D4131CB
:106330005F4368616E6E656C375F49525148616EAC
:10634000646C65720000000010B5032101A000F02C
:1063500049FB10BD444D41325F4368616E6E656C10
:10636000315F49525148616E646C657200000000F3
:1063700010B5032101A000F035FB10BD444D4132A2
:106380005F4368616E6E656C325F49525148616E61
:10639000646C65720000000010B5032101A000F0DC
:1063A00021FB10BD444D41325F4368616E6E656CE8
:1063B000335F49525148616E646C657200000000A1
:1063C00021B1026842F00102026004E002684FF667
:1063D000FE731A400260704701684FF6FE7211406A
:1063E00001600021016041608160C1604B498842C9
:1063F00008D14A490839496841F00F01474A083A2B
:1064000051608AE045491431884208D1434908392E
:10641000496841F0F001414A083A51607DE03F4946
:106420002831884208D13D490839496841F47061F2
:106430003A4A083A516070E038493C31884208D104
:1064400036490839496841F47041344A083A516084
:1064500063E032495031884208D1304908394968EF
:1064600041F470212D4A083A516056E02B496431BD
:10647000884208D129490839496841F47001274AFE
:10648000083A516049E025497831884208D12349CA
:106490000839496841F07061204A083A51603CE08F
:1064A0001F49884206D1011F096841F00F01021FF0
:1064B000116032E01A491431884208D11849091F85
:1064C000096841F0F001164A121F116025E01449D5
:1064D0002831884208D11249091F096841F47061C6
:1064E0000F4A121F116018E00D493C31884208D153
:1064F0000B49091F096841F47041094A121F1160D4
:106500000BE007495031884207D10549091F096846
:1065100041F47021024A121F1160704708000240C6
:106520000804024010B50022026847F6F0739A434F
:106530000C6A8B6823430C6923434C6923438C69A1
:106540002343CC6923434C6A23438C6A23431A4375
:106550000260CB6843600B6883604B68C36010BD0A
:1065600008B50121082003F013FF0D480088ADF89D
:10657000000010208DF8030003208DF8020069460A
:106580000848006801F038F90548018805480068A6
:1065900001F009FA00F0B2F900F006F808BD0000B9
:1065A000900000209400002010B5002400F0BEF8F8
:1065B00004E0601CC4B2012000F028F811480188F2
:1065C0001148006801F0E4F908B1C82CF1DBC82CCF
:1065D00001DB012010BD002404E0601CC4B20120D6
:1065E00000F014F8074801880748006801F0D0F966
:1065F00008B9F02CF1DBF02C01DB0120EAE70020E8
:10660000E8E700009000002094000020002106E050
:10661000062100BF0A00A1F1010399B2FAD10200DC
:10662000A0F1010398B2F3D1704700002DE9FE4FAD
:10663000824600F089F900F061F9FFF7B5FF0446E2
:1066400014B10120BDE8FE8FCC2000F089F9BE20F6
:1066500000F086F9002405E000F0BEF80DF8040013
:10666000601CC4B2092CF7DB0821684606F0DEF88E
:1066700004469DF80800A04205D0052126A000F0A0
:10668000B1F90020DEE79DF8010007281EDD9DF826
:106690000100C043C0B28DF801009DF80000C04366
:1066A000C0B28DF800009DF801904FF6FF7000EA2F
:1066B00009299DF8000040EA09094846FEF7C5FF90
:1066C00005460021FEF7B7FD83460DE09DF80190D9
:1066D0004FF6FF7000EA09299DF8000040EA090919
:1066E0004846FEF7B2FF83465846FFF70CF80746C8
:1066F00000220C4BFEF7BFFE0546FFF73FF883462E
:10670000BAF1000F05D008495846FEF7CDFDCAF88A
:106710000000002096E70000D0A3D1E9B4EDCEF34D
:10672000000000000000E43F0000204108B50848D8
:106730000088ADF8000003208DF8020048208DF895
:10674000030069460348006801F056F808BD0000E0
:10675000900000209400002008B508480088ADF89B
:10676000000003208DF8020010208DF80300694618
:106770000348006801F040F808BD000090000020C8
:106780009400002010B5FFF7E7FF11480188114879
:10679000006801F006F90220FFF738FF0C48018875
:1067A0000C48006801F0FFF8FFF7C0FF0520FFF775
:1067B0002DFF074801880748006801F0E9F808B193
:1067C000012400E000243220FFF720FF204610BD06
:1067D000900000209400002070B50026012508E0FC
:1067E000FFF7D0FF0446E00140EA6600C6B2681C2D
:1067F000C5B2082DF4DD304670BD000070B5064608
:106800000C4600253A4890F8B00010F0400F23D015
:106810004FF40071374800F0DBF821463046FFF7AF
:10682000C3FC78B134480078401C334908700846EE
:1068300000780A285ADD2E48006920F440702C495F
:10684000086153E000202C4908702948006940F491
:1068500040702749086149E04FF40071254800F075
:1068600069F83046FFF7E2FE05468DB12248007810
:10687000401C21490870084600780A2811DDFFF7FE
:106880006FFE1B48006920F480701949086108E018
:106890000020194908701648006940F480701449B6
:1068A00008614FF48071134800F044F82046FFF768
:1068B000BDFE05468DB110484078401C0E49487019
:1068C000084640780A2811DDFFF74AFE08480069AB
:1068D00020F400700649086108E00020064948706D
:1068E0000348006940F400700149086170BD000070
:1068F0004C9D0020000C0140A900002010B5FFF7BE
:106900002BFF0A4801880A48006801F04AF840F263
:10691000EE20FFF77BFE054801880548006801F07E
:1069200042F80F20FFF772FE10BD0000900000201B
:1069300094000020024A1060024A11807047000053
:10694000940000209000002010B5FFF7D7FFFFF75C
:106950002BFECC2000F004F8442000F001F810BD1C
:1069600070B50446FFF7F8FE01252AE004F00106A1
:10697000641096B1144801881448006801F011F8B9
:106980000220FFF743FE104801881048006801F01C
:106990000AF83C20FFF73AFE11E00B4801880B484B
:1069A000006800F0FEFF3C20FFF730FE064801883B
:1069B0000648006800F0F7FF0220FFF727FE681C7A
:1069C000C5B2082DD2DD70BD9000002094000020DB
:1069D000024A1060024A1180704700008C000020BB
:1069E000880000200FB42DE9F04186B00024012575
:1069F000002654480078FF2801D1012000E0002043
:106A000050490978504A1278914201D1012100E0A1
:106A1000002108437ED04FF4806002F0F5F98046F3
:106A20000DA805904046059A0C9907F061F80020E2
:106A300005900DA8059069460C9801F0EAF9054605
:106A400027E02046611CCCB21DF80000012804D0CC
:106A5000022806D0032817D112E0059840C80590F7
:106A600016E00598C01D20F007000590D0E9002130
:106A7000059F083710460597FEF726FE064607E0F5
:106A8000059840C8059003E0059840C8059000BFF0
:106A900000BF2800A5F10105D3D1059840C8059095
:106AA0000020059029480078FF2801D1012000E04E
:106AB000002026490978B14201DB012100E00021D4
:106AC000084337D0414622A004F01AFD214800783F
:106AD00010F0020F0DD02049087800F08FFB40B174
:106AE000404601F037FB07463A4641461B4806F050
:106AF00070FF1848007810F0040F0FD0164948783E
:106B000000F07CFB50B1404601F024FB07463A46BA
:106B1000414600E011E0124806F05BFF11480068B2
:106B200040B1404601F016FBC7B2394640460D4A17
:106B300012689047404602F041F906B0BDE8F00106
:106B40005DF814FB7C000020580000207E0000202F
:106B50000D0A00007D0000202800002000380140C0
:106B60000044004078000020FF2001490870704771
:106B70007C0000200248007802490870704700003D
:106B8000580000207C000020014908707047000078
:106B90007D00002001490870704700007E00002041
:106BA000704701460A2091FBF0F000EB400001EB3A
:106BB0004000C0B27047000010B500201A490870AC
:106BC0004FF4A07002F020F918490860002406E094
:106BD000FF201749085517490855601CC4B2052CF9
:106BE000F6DB00241DE000201049096801EB441188
:106BF000486103200D49096801EB44110872002027
:106C00000A49096801EB441108610849096801EB68
:106C10004411C8600549096801EB44118861601C92
:106C2000C4B20A2CDFDB10BD6C0000207000002015
:106C3000280000202D00002038B5002454E02C4806
:106C4000006800EB4410006800284BD0284800681A
:106C500000EB4410C079012806D0022820D0032878
:106C600013D0042832D126E0032000902048006889
:106C700000EB4410C3691E48006800EB4410214635
:106C800002681CA0FFF7AEFE2BE01948006800EB7D
:106C900044100323214602681CA0FFF7A3FE20E056
:106CA0001348006800EB441003232146026817A034
:106CB000FFF798FE15E00E48006800EB4410032330
:106CC0002146026811A0FFF78DFE0AE0084800681F
:106CD00000EB44100323214602680CA0FFF782FE5C
:106CE00000BF00BF601CC4B20A2CA8DB38BD000086
:106CF000700000204465766963655B25645D4E61C4
:106D00006D653A25735B25645D0000004465766916
:106D100063655B25645D4E616D653A257300000017
:106D20002D4908602D4909782D4A11702B490978A1
:106D3000491C2A4A11702A4909782A4A1268284BA4
:106D40001B7802EB4312117127A1264A1268244BCB
:106D50001B7802EB431211600021224A1268204B7B
:106D60001B7802EB4312517102211E4A12681C4B20
:106D70001B7802EB4312D17101211A4A1268184B99
:106D80001B7802EB43121172184A16490968144B1A
:106D90001B7801EB43114A6112490968104A1278C5
:106DA00001EB4211C86100220E4909680C4B1B78A7
:106DB00001EB4311CA6000210A4A1268084B1B7894
:106DC00002EB43121161074A1268054B1B7802EB74
:106DD0004312916170470000C00000206C00002049
:106DE0008000002070000020494F00000D7900084D
:106DF0002C4909782C4A11702A490978491C294ADA
:106E0000117029490978294A1268274B1B7802EB2F
:106E10004312117126A1254A1268234B1B7802EBFD
:106E2000431211600021214A12681F4B1B7802EBAC
:106E30004312517104221D4909681B4B1B7801EB59
:106E40004311CA71012219490968174B1B7801EBDC
:106E500043110A721849154A1268134B1B7802EB4A
:106E600043125161114909680F4A127801EB42112E
:106E7000C86100220D4909680B4B1B7801EB4311D7
:106E8000CA600021094A1268074B1B7802EB4312C3
:106E90001161002205490968034B1B7801EB43117E
:106EA0008A6170476C000020A6000020700000205E
:106EB00049534C3132303800B588000870B505466A
:106EC000284606F029FC04465F48005DFF2808D1EB
:106ED0005E4800785C4908555C480078401C5B4976
:106EE00008705BA05849095D5B4A126802EB4111CA
:106EF000086000205449095D574A126802EB4111AD
:106F0000487101205049095D534A126802EB411152
:106F1000C87103204C49095D4F4A126802EB4111C8
:106F200008724E484849095D4B4A126802EB41110C
:106F300048614548005D4849096801EB4010C4615B
:106F400047494148005D444A126802EB4010C16065
:106F500044483D49095D404A126802EB411108610D
:106F600000213948005D3C4A126802EB4010816103
:106F700000203D4921F814004FF4967001F044FFC1
:106F80003A4941F82400284606F0C6FB0446384832
:106F9000005DFF2808D12D480078354908552B4859
:106FA0000078401C2949087032A03149095D2A4AFD
:106FB000126802EB4111086000202D49095D264A44
:106FC000126802EB4111487101212948005D224AF3
:106FD000126802EB4010C17103202549095D1E4A69
:106FE000126802EB411108721C492148005D1A4ADF
:106FF000126802EB401041611D48005D16490968A6
:1070000001EB4010C46116481949095D124A126823
:1070100002EB4111C86013481549095D0E4A126818
:1070200002EB4111086100201149095D0A4A12680A
:1070300002EB411188614FF4967001F0E5FE0F49B3
:1070400041F8240070BD00002D0000206C000020DD
:10705000555341525278000070000020A9D4000816
:10706000A1D90008C1D80008F8000020D0000020F5
:10707000280000205553415254780000E4000020BD
:10708000284800782849087026480078401C25497F
:10709000087026A027490968234A127801EB42119B
:1070A00008600020234909681F4A127801EB421149
:1070B000487103201F4909681B4A127801EB4211ED
:1070C000C87101211B480068174A127800EB421072
:1070D0000172194817490968134A127801EB4211E5
:1070E00048610021134800680F4A127800EB4210F3
:1070F000C16112490F4800680B4A127800EB421038
:10710000C1600F490B480068074A127800EB421033
:107110000161002007490968034A127801EB421116
:10712000886170476C000020A40000205732355160
:10713000313600007000002025AB0008C1DA0008DD
:10714000ADDA000810B5032124A0FFF74BFC0024A2
:1071500041E02948006800EB44104069C8B3264864
:10716000006800EB4410C079012806D0022817D02F
:1071700003280ED004282BD11EE01F4A126802EB10
:107180004412107F1C4A126802EB4412516988476E
:107190001EE01949096801EB44114869804717E06E
:1071A000154A126802EB4412D069134A126802EBC6
:1071B0004412516988470BE00F4A126802EB4412EF
:1071C000D0690D4A126802EB44125169884700BF2A
:1071D00000BF601CC4B20A2CBBDB10BD546F73200F
:1071E00044657669636520496E69742E2E2E2E2EB5
:1071F0002E2E2E2E2E000000700000200146FF29AA
:1072000001D1002070470548006800EB411040693B
:1072100008B90020F6E70120F4E700007000002024
:10722000012000F055F801F0BBFC000010B503216F
:1072300001A0FFF7D7FB10BD4558544931355F31E8
:10724000305F49525148616E646C65720000000005
:1072500010B5032101A0FFF7C5FB10BD45585449E7
:10726000325F49525148616E646C657200000000E3
:1072700010B5032101A0FFF7B5FB10BD45585449D7
:10728000335F49525148616E646C657200000000C2
:1072900010B5032101A0FFF7A5FB10BD45585449C7
:1072A000345F49525148616E646C657200000000A1
:1072B00010B5032101A0FFF795FB10BD45585449B7
:1072C000395F355F49525148616E646C65720000E8
:1072D00001490860704700001404014030B50446BD
:1072E00004254FF4302000F07FF80546042D17D117
:1072F0000C48006940F002000A49086108464461F0
:10730000006940F0400008614FF4302000F06CF854
:1073100005460448006941F6FD71084001490861CD
:10732000284630BD0020024004200B49C96811F0F6
:10733000010F01D001200EE00749C96811F0040FC8
:1073400001D0022007E00449C96811F0100F01D0F4
:10735000032000E0042070470020024010B5032104
:1073600001A0FFF73FFB10BD464C4153485F495217
:107370005148616E646C657200000000034800694A
:1073800040F0800001490861704700000020024081
:1073900070B504460D460426F00200F025F80646B6
:1073A000042E11D10948006940F001000749086125
:1073B0002580F00200F018F806460448006941F6FE
:1073C000FE71084001490861304670BD002002404E
:1073D00002480349486003484860704723016745F5
:1073E00000200240AB89EFCD00B502460423FFF731
:1073F0009BFF034603E0FFF797FF0346521E012B56
:1074000001D1002AF7D102B90523184600BD0000BA
:1074100010B5032101A0FFF7E5FA10BD46534D4317
:107420005F49525148616E646C6572002DE9F84FF6
:1074300082460D4617464FF0000800200090814616
:10744000504600F087FE00F0FF0BBBF1000F35D077
:107450000020287000262FE01AF80640302C01DBAF
:10746000012000E00020392C01DC012100E0002196
:1074700008402E2C01D1012100E00021084309D051
:107480004F4504D14046411C01F0FF082C54012017
:1074900000900FE0009868B14F4505D100224046AA
:1074A000411C01F0FF082A540020009009F101005E
:1074B00000F0FF09701CC6B25E45CDDB4046BDE85A
:1074C000F88F2DE9F84F82460D4617464FF0000819
:1074D000002000908146504600F03CFE00F0FF0B7B
:1074E000BBF1000F3BD000202870002635E01AF8D1
:1074F0000640302C01DB012000E00020392C01DCAB
:10750000012100E0002108420BD1462C01DC0120C2
:1075100000E00020412C01DB012100E000210842B5
:1075200009D04F4504D14046411C01F0FF082C54BE
:10753000012000900FE0009868B14F4505D100226E
:107540004046411C01F0FF082A540020009009F138
:10755000010000F0FF09701CC6B25E45C7DB404663
:10756000BDE8F88F2DE9F84F82460C4617464FF0DC
:107570000008002000908146504600F0EBFD00F02E
:10758000FF0BBBF1000F2FD000202070002529E059
:107590001AF80560302E01DB012000E00020392EB2
:1075A00001DC012100E00021084209D04F4504D14F
:1075B0004046411C01F0FF082654012000900FE0D6
:1075C000009868B14F4505D100224046411C01F0AA
:1075D000FF0822540020009009F1010000F0FF098B
:1075E000681CC5B25D45D3DB4046BDE8F88F2DE988
:1075F000F05F80460C460027BA46BB46404600F086
:10760000A9FD00F0FF09B9F1000F20D00020207083
:1076100000251AE018F805603A2E01D14FF0010B51
:10762000BBF1000F0FD0222E06D1BAF1000F00D00F
:107630000EE04FF0010A06E0BAF1000F03D0384621
:10764000791CCFB22654681CC5B24D45E2DB00BFA1
:1076500000223846791CCFB222543846BDE8F09F4C
:1076600070B50B46044603E014F8015B03F8015BB8
:107670001500A2F10106B2B2F6D170BD2DE9F047B6
:107680000646884614460027C146FFF7A1FE20465D
:10769000E11704EBD151C1F34F27E11704EBD151AE
:1076A0004912B4EB412101D0781C87B2002507E0D4
:1076B0004FF4007101FB0760FFF710FE681C85B2F4
:1076C000BD42F5DB002508E039F8021B2A466B1C99
:1076D0009DB206EB4200FFF75BFE2000A4F1010122
:1076E0008CB2F1D1FFF74AFEBDE8F08701460A46A9
:1076F0001068704713B50246042301A903E011F88E
:10770000010B02F8010B1800A3F10104E3B2F6D15A
:1077100004201CBD70B504460025107820B11678F1
:107720002068B0FBF6F085B220680844206010782D
:10773000984203DA1078401C107002E02068401B69
:10774000206016782068B0FBF6F080B270BD0FB4F0
:1077500038B5044606A800902046009A059906F020
:10776000C7F90020009038BC5DF814FB30B5034623
:107770000C46002514E01878802806DA13F8010B6F
:1077800024F8020B681C85B20AE059781A7841EA9D
:10779000022000F01BF820809B1CA81C85B2A41CB2
:1077A00018780028E7D1284630BD30B5ADF5017D09
:1077B00004460D4601A92046FFF7D8FF294601A837
:1077C00000F0EAFC0DF5017D30BD0000024641F6F7
:1077D0006F210AE0074800EB81004088904203D106
:1077E000044830F821007047491E0029F2D10020DA
:1077F000F9E7000010E800082DE9F04102460025F5
:107800000026002000230024002791F803C00CF07C
:107810000F0591F803C01CF0100F03D091F802C0BF
:107820004CEA050591F800C0BCF1000F31D0146896
:1078300000202BE04FF0010C0CFA00F3B1F800C06F
:107840000CEA03069E4220D183004FF00F0C0CFA85
:1078500003F7BC4305FA03FC4CEA040491F803C0A7
:10786000BCF1280F06D14FF0010C0CFA00FCC2F855
:1078700014C00AE091F803C0BCF1480F05D14FF0E5
:10788000010C0CFA00FCC2F810C0401C0828D1D32F
:107890001460B1F800C0BCF1FF0F34DD5468002063
:1078A0002EE000F1080C4FF0010808FA0CF3B1F8D3
:1078B00000C00CEA03069E4221D183004FF00F0C5A
:1078C0000CFA03F7BC4305FA03FC4CEA040491F8F4
:1078D00003C0BCF1280F05D100F1080C08FA0CF820
:1078E000C2F8148091F803C0BCF1480F07D100F131
:1078F000080C4FF0010808FA0CF8C2F81080401C80
:107900000828CED35460BDE8F081000038B50446A5
:1079100036E01D4A6068811A904217D009DC1B4985
:1079200040180DD0B0F5806F0CD0B0F5006F13D1BA
:107930000AE0B1F5806F0BD0B1F5006F0CD109E012
:10794000042509E0082507E0102505E0202503E0CF
:10795000402501E0802500BF00BF45F00100012166
:1079600002F016FD20788DF802002089ADF80000A5
:1079700060788DF8030069466068FFF73DFF0C34BE
:1079800020780028C5D138BD0014014000F8FEBFA2
:107990000246002093680B4201D0012000E0002045
:1079A0007047416170470161704700002DE9F04167
:1079B00004460D4601271DE012494FF496724868AF
:1079C0000021FEF734FA2B46322200210E4805F042
:1079D0008FFFC6B276B10B48052241680BA0FFF7B6
:1079E00001F808494868214603F0ABFD10B10120B9
:1079F000BDE8F0813800A7F10101CFB2DCD100BFB2
:107A0000F6E70000D000002000440040B7B5BBD826
:107A10003A25730D0A0000002DE9F04104460D4699
:107A2000012725E016494FF4967248680021FEF7B9
:107A3000FEF92B4632220021124805F059FFC6B24A
:107A400096B10F48052241680FA0FEF7CBFF0C4905
:107A500048682146FDF788FB10B10120BDE8F081A0
:107A60004FF47A7005F0F2F84FF47A7005F0EEF802
:107A70003800A7F10101CFB2D4D100BFEEE700007A
:107A8000D000002000440040B7B5BBD83A25730DA4
:107A90000A0000002DE9F04104460F4615464FF05C
:107AA000010825E017494FF4967248680021FEF757
:107AB000BEF92B4632220021134805F019FFC6B249
:107AC000B6B110480522416810A0FEF78BFF0D49A2
:107AD0004868214603F035FD10B10120BDE8F08172
:107AE00008494868394603F02CFD08B10120F5E744
:107AF0005FEA0800A8F1010101F0FF08D2D100BF40
:107B0000ECE70000D000002000440040B7B5BBD82F
:107B10003A25730D0A0000000246114623E008785A
:107B20002E281FD111F8010C302801DB012000E0C4
:107B3000002011F8013C392B01DC012300E0002377
:107B400018420FD04878302801DB012000E00020E7
:107B50004B78392B01DC012300E00023184201D0CF
:107B600001207047491C08780028D8D100BFF8E7E9
:107B700070B504460D4616460A233246294620466D
:107B800000F002F870BD00002DE9F04105460C46FA
:107B900016461F4637E029461E4805F02AFF1E49B3
:107BA0004FF4967248680021FEF741F933463222BD
:107BB0000021184805F09CFE00F0FF08B8F1000F06
:107BC0001DD015480522416814A0FEF70BFF207850
:107BD000212808D110494868611CFDF7C5FA50B941
:107BE0000120BDE8F0810C4948682146FDF7BCFA48
:107BF00008B10120F5E74FF47A7005F027F84FF44B
:107C00007A7005F023F83800A7F10101CFB2C2D194
:107C100000BFE6E700440040D0000020B7B5BBD865
:107C200025730D0A0000000070B50446002500BF52
:107C30002846691CCDB2052801DD032070BD052151
:107C40001EA0FEF7CFFE2048006920F010001E495C
:107C500008612046FFF760FF40B14FF47A721BA124
:107C60001BA0FFF785FF50B90120E7E74FF47A72B8
:107C700016A11BA0FFF77CFF08B90120DEE74FF437
:107C80007A7004F0E3FF2146194805F0B2FE0422A1
:107C900018A11CA000F0A6F800B9C9E74FF4FA60DB
:107CA00004F0D4FF05211AA0FEF79CFE06480069E7
:107CB00040F01000044908610020BFE7C1ACBDD30B
:107CC000B7FECEF1C6F700004C9D00204F4B0000E0
:107CD00041542B5149444E5349503D300D0A000048
:107CE00041542B5149444E5349503D310D0A000037
:107CF00000440040414C524541445920434F4E4EB0
:107D000045435400434F4E4E454354204F4B0000D3
:107D1000C1ACBDD3B3C9B9A60000000070B505461B
:107D2000012622E014494FF4967248680021FEF7BC
:107D30007EF82B4632220021104805F0D9FDC4B24E
:107D40009CB10D4948680EA1FDF70EFA28B1052136
:107D50000DA0FEF747FE002070BD0748224641688F
:107D60000CA001F047FB0120F6E73000A6F101016D
:107D7000CEB2D7D100BFEFE7D000002000440040D2
:107D8000434C4F5345440000C1ACBDD3B1BBB9D83F
:107D9000B1D50000BDD3CAD53A00000070B5044685
:107DA000012610E023464FF496720021094805F0A1
:107DB0009FFDC5B23DB108480522416807A0FEF706
:107DC00011FE012070BD3000A6F10101CEB2E9D153
:107DD00000BFF7E700440040D0000020523A25736E
:107DE000000000002DE9F04106460F46144600252C
:107DF0000BE04FF47A7239463046FFF74BFE10B174
:107E00000120BDE8F081681CC5B2A542F1DB00206D
:107E1000F7E7F0B504460A46002300200025214676
:107E200033E00E78252E02D10125461CB0B2012D7B
:107E30002AD10E78642E06D1AC461E465F1CBBB21A
:107E400002F806C000250E78662E07D14FF0020C0E
:107E50001E465F1CBBB202F806C000250E78732ECA
:107E600007D14FF0030C1E465F1CBBB202F806C0E0
:107E700000250E78632E07D14FF0040C1E465F1CC0
:107E8000BBB202F806C00025491C0E78002EC8D1EE
:107E9000F0BD00002DE9FE4305460F4600261C48B4
:107EA000006800901A48001D0068029018480830C9
:107EB0000068019000241BE014E05DF824003E21DE
:107EC000B0FBF1F201FB1208404604F079FC3146A8
:107ED000721CD6B268545DF824003E21B0FBF1F06C
:107EE0004DF824005DF824000028E6D1601CC4B2DF
:107EF000032CE1DB0F26384604F062FC3246761C88
:107F0000A85400223146761C6A543046BDE8FE83F0
:107F1000E8F7FF1FFEB505460026194800680090E7
:107F20001748001D0068029015480830006801904D
:107F300000241BE014E05DF824003E21B0FBF1F2C8
:107F400001FB1207384604F03BFC3146721CD6B2E6
:107F500068545DF824003E21B0FBF1F04DF8240098
:107F60005DF824000028E6D1601CC4B2032CE1DBDC
:107F700000223046711CCEB22A543046FEBD0000AD
:107F8000E8F7FF1F014600200A78302A01DB0122B2
:107F900000E000220B78392B01DC012300E00023F4
:107FA0001A4203D00A781207100E24E00A78412AF8
:107FB00001DB012200E000220B78462B01DC0123CB
:107FC00000E000231A4204D00A78D21F1207100ED4
:107FD00011E00A78612A01DB012200E000220B781F
:107FE000662B01DC012300E000231A4203D00A784B
:107FF000D21F1207100E4A78302A01DB012200E05E
:1080000000224B78392B01DC012300E000231A42C7
:1080100004D04A78303A0244D0B224E04A78412A67
:1080200001DB012200E000224B78462B01DC01231A
:1080300000E000231A4204D04A78373A0244D0B212
:1080400011E04A78612A01DB012200E000224B782E
:10805000662B01DC012300E000231A4203D04A789A
:10806000573A0244D0B270470FB438B5044606A858
:1080700000902046009A059905F03AFD00200090F6
:10808000204600F067F8C0B238BC5DF814FB000071
:108090002DE9FC5F05460026B346B1464FF07E5AF7
:1080A00044E015F8014B2D2C01D101263EE02E2C89
:1080B00002D14FF0010B39E0302C2EDB392C2CDCB7
:1080C000BBF1000F0ED11F494846FDF7B7F88146B6
:1080D000A4F13000FDF7B0FA07464946FDF756F81F
:1080E000814623E05046FDF70EFB0746164A174B24
:1080F000FDF7C1F9CDE90001FDF740FB8246A4F18F
:108100003000FDF799FA80465146FDF797F807468B
:108110004946FDF73BF8814608E026B10C49484640
:10812000FDF78CF881464846BDE8FC9F287800287A
:10813000B7DC26B106494846FDF780F88146484637
:10814000F2E70000000020419A9999999999B93F66
:10815000000080BF10B5014600200A4601E0431C24
:1081600098B212F8014B002CF9D110BD002000216B
:108170000CE001EB4102074B1B6803EB0212128972
:10818000012A01D0421CD0B24A1CD1B21429F0DB22
:10819000704700006000002070B504460E460025C0
:1081A00007E02288701905A1FFF75EFF284485B219
:1081B000A41C20880028F4D1284670BD25303478CE
:1081C000000000000246002039B950784FF6FF73D6
:1081D00003EA00201378184306E010784FF6FF7387
:1081E00003EA0020537818437047000001490888CB
:1081F00070470000E0F7FF1F10B504462AA1204693
:1082000003F09FF908B1012010BD28A1204603F01A
:1082100098F908B10220F7E725A1204603F091F96B
:1082200008B10320F0E723A1204603F08AF908B142
:108230000420E9E720A1204603F083F908B10520D6
:10824000E2E71EA1204603F07CF908B10620DBE737
:108250001BA1204603F075F908B10720D4E719A146
:10826000204603F06EF908B10820CDE716A120469C
:1082700003F067F908B10920C6E714A1204603F00E
:1082800060F908B10A20BFE711A1204603F059F9AF
:1082900008B10B20B8E70FA1204603F052F908B14E
:1082A0000C20B1E70120AFE74A616E00466562002D
:1082B0004D617200417072004D6179004A756E0027
:1082C0004A756C0041756700536570004F63740018
:1082D0004E6F76004465630070B505460024291989
:1082E00001220DA0FFF73EF92044C4B20AA0FFF717
:1082F00083FF0646281932460AA1FFF7B5FE20443F
:10830000C4B22919002204A0FFF72CF92044C4B2FA
:1083100000202855204670BD4A756E203138203225
:10832000303136002D253032642D000010B586B076
:10833000002414E004EB4401002202EBC1001822E7
:10834000694605F0A9FB0098401C00D108E0601CBC
:10835000C4B2012004F07AFCFF2C00DB00E0E9E766
:1083600000BF0522214603A0FEF73CFB204606B0D5
:1083700010BD0000B4F2D3A1BCC7C2BCCBF7D2FD84
:108380002564000001E000F00BFCFCE770B504463A
:108390000D46002620E040211148FFF702FB032094
:1083A00000F020F814F0800F04D020210C48FFF7D3
:1083B000FAFA03E020210A48FFF7F3FA032000F05D
:1083C00011F840210648FFF7EEFA6006040E01207E
:1083D00000F008F8701CC6B2AE42DCDB70BD0000D5
:1083E0000010014000EB400188B200BF0100A0F185
:1083F000010290B2FAD1704770B504460D4605F0FF
:108400000F01204600F00EF82911621CD0B200F0D6
:1084100009F8204604EBD0714910014A555470BD4B
:108420004C9E002070B504460D4680210C48FFF795
:10843000B8FA0320FFF7D6FF0321A020FFF7A6FF1D
:10844000A106080E0621FFF7A1FF2907080E042147
:10845000FFF79CFF80210248FFF7A5FA70BD0000DE
:108460000010014010B5032101A0FEF7BBFA10BDBA
:10847000493243315F45525F49525148616E646CE5
:108480006572000010B5032101A0FEF7ABFA10BD24
:10849000493243315F45565F49525148616E646CC1
:1084A0006572000010B5032101A0FEF79BFA10BD14
:1084B000493243325F45525F49525148616E646CA4
:1084C0006572000010B5032101A0FEF78BFA10BD04
:1084D000493243325F45565F49525148616E646C80
:1084E0006572000010B504460120A0470320A04794
:1084F00010BD2DE9FF47074616461C46DDE90C89ED
:108500009DF804004006000E0190002C16DD384650
:1085100000F0C0F8012201A9384600F076F80546BF
:1085200035B93846FFF7DEFF002004B0BDE8F0871C
:1085300022463146384600F068F80546384600F0D5
:10854000A9F89DF8040040F001000190012201A962
:10855000384600F05AF805464A464146384600F08B
:1085600006F80546384600F0ACF82846DDE72DE968
:10857000F04704460E461546A94628E04FF000088D
:10858000002714E07806070E0320A0470A2005F014
:1085900027FF0520A04708B147F001070420A047A6
:1085A0000A2005F01DFF08F1010000F0FF08B8F1F6
:1085B000080FE7DB06F8017B002D04DD00212046D3
:1085C00000F00DF803E00121204600F008F8280033
:1085D000A5F10101CDB2D1D14846BDE8F08770B513
:1085E00004460D4615B10120A04701E00220A04736
:1085F0000320A0470A2005F0F3FE0420A0470A202C
:1086000005F0EEFE0120A04770BD2DE9F0470446BD
:108610000E461546A94639E016F8018B002717E0EB
:1086200018F0800F02D00120A04701E00220A047EF
:108630000320A0470A2005F0D3FE0420A0470A200B
:1086400005F0CEFE781CC7B24FEA48604FEA1068CA
:10865000082FE5DB0120A0470320A0470A2005F0F2
:10866000BFFE0520A04782460A2005F0B9FE04207F
:10867000A0470A2005F0B4FEBAF1000F04D0A9EB20
:108680000500C0B2BDE8F087681EC5B2002DC3D199
:108690004846F7E710B504460320A047052005F03B
:1086A0009FFE0120A0470A2005F09AFE0220A04765
:1086B0000A2005F095FE0420A0470A2005F090FE50
:1086C00010BD10B504460220A047142005F088FE16
:1086D0000320A0470A2005F083FE0120A0471E20AA
:1086E00005F07EFE10BD2DE9FF47074614461D46E6
:1086F000DDE90C899DF804004006000E0190384623
:10870000FFF7C8FF012201A93846FFF77EFF0646A2
:1087100036B93846FFF7E6FE002004B0BDE8F08722
:108720002A4621463846FFF770FF06464A4641462C
:108730003846FFF76AFF06463846FFF7C2FF304665
:10874000EBE7000070B504460D4685B104EB44022A
:108750000F4B1B6803EB8202118904EB44020C4BA4
:108760001B6803EB82025068FFF71DF90FE004EB72
:108770004402074B1B6803EB8202118904EB44029D
:10878000034B1B6803EB82025068FFF70AF970BDC8
:10879000C00000202DE9F041054609492846FCF7B4
:1087A0004DFD0746FCF77CFF86B2A6F561703221CD
:1087B00090FBF1F0C4B284F020042046BDE8F081C3
:1087C000000048437CB5044607226946002000F0BB
:1087D000D1F805460DB900207CBD9DF8001001F0D0
:1087E0007F00FDF7E6FAA0719DF8011001F07F000F
:1087F000FDF7DFFA60719DF8021001F03F00FDF710
:10880000D8FA20719DF8031001F03F00FDF7D1FA6E
:10881000A0709DF8041001F01F00FDF7CAFA607007
:108820009DF80500FDF7C5FA20709DF80600FDF7DC
:10883000C0FAE0700120CFE770B504460025062C91
:1088400033D2DFE804F032030C151E27184A1268F1
:108850001189174A12685068FFF7A5F825E0144AF5
:1088600012681189124A12685068FFF79AF81CE0E2
:108870000F4A1268918A0E4A12681069FFF793F83E
:1088800013E00B4A1268918A094A12681069FFF7CF
:1088900088F80AE0064A12681189054A1268506889
:1088A000FFF776F800B1012500BF00BF284670BD74
:1088B000C800002038B5054600242C480560006833
:1088C000FFF724F801226946122000F053F804460D
:1088D0009DF800005D2847D01021072000F0DAF84D
:1088E00004409021082000F0D5F804402048FFF70C
:1088F00051FF00909DF800100A2000F0CBF80440D2
:1089000000210B2000F0C6F804405D21122000F089
:10891000C1F8044000231A461946184600F03AF8F8
:1089200004400021084600F0B5F804400021012071
:1089300000F0B0F804408021022000F0ABF80440C1
:108940000121032000F0A6F804400121042000F0DA
:10895000A1F804400021052000F09CF80440062105
:10896000084600F097F80440204638BDC8000020B3
:108970000000C04037B582B00C461546012302AA5C
:108980006F210348CDE90045FFF7B3FD05B030BDC9
:10899000398800082DE9F84381460F4690461C4669
:1089A00001264046FEF7FDF88DF800003846FEF738
:1089B000F8F88DF801004846FEF7F3F88DF802004C
:1089C00014F0010F05D09DF8000040F080008DF8F4
:1089D000000014F0020F05D09DF8010040F0800067
:1089E0008DF8010014F0040F05D09DF8020040F04E
:1089F00080008DF80200002509E01DF8051005F142
:108A00000C02D0B200F046F80640681CC5B2032D37
:108A1000F3DB002C05DDD021082000F03BF80640F8
:108A200004E09021082000F035F806403046BDE80B
:108A3000F8837CB50446A079FEF7B3F88DF8000002
:108A40006079FEF7AEF88DF801002079FEF7A9F8FD
:108A500040F080008DF80200A078FEF7A2F88DF8B3
:108A600003006078FEF79DF88DF804002078FEF78B
:108A700098F88DF80500002507E01DF80510E8B20C
:108A800000F008F80640681CC5B2072DF5DB30463B
:108A90007CBD000003B583B0012004A9034603AAEE
:108AA000CDE900106F210248FFF71DFE05B000BDA3
:108AB0003988000810B545F2555000F029F8062015
:108AC00000F01AF84FF47F6000F01CF800F00CF88A
:108AD00000F002F810BD00004CF6CC4001490860DF
:108AE00070470000003000404AF6AA2001490860A3
:108AF00070470000003000400149486070470000A6
:108B0000003000400149886070470000003000409C
:108B100001490860704700000030004070B504460D
:108B20000D462B4622460249024800F005F870BD6A
:108B300000F80308617600082DE9F04707468846EB
:108B400014461D46A14608EBC52004222146B8471D
:108B50004E463088B0F5006F01DD012000E00020B6
:108B60003188042901DA012100E00021084300D006
:108B700013E0328808EBC5202146B8473088001F33
:108B800081B209F1040003F031FE8246718851453B
:108B900000D002E00120BDE8F0870020FBE70000E4
:108BA00071B600BF0648006800F4E060054908435C
:108BB000001D03490860BFF3408F00BF00BFFEE700
:108BC0000CED00E00000FA0510B5052106A0FDF748
:108BD00009FF08A10B4804F00CFF4FF47A710AA0BA
:108BE000FEF7E4FE10BD0000C9BEB3FDCFFBCFA26F
:108BF0000000000041542B434D47443D312C340DBF
:108C00000A000000004400404F4B0000F0B59DB04A
:108C100005460C46607A48B1627A04A96068FDF79F
:108C2000F5F80020617A04AA505403E004A96068B2
:108C300002F054FC207A0D2839D009DC77D2DFE825
:108C400000F0A310A3A3231C5CA3A342A3152F0031
:108C500017380728F2D2DFE800F03D4697306B79ED
:108C6000580028462168FEF772FD92E0606802789D
:108C700028462168FEF76BFD8BE060680288284675
:108C80002168FEF764FD84E061680868FCF73BFD3D
:108C900006460B46324628462168FEF758FD78E026
:108CA0006068027828462168FEF751FD71E0284689
:108CB000D4E90012FEF74BFD6BE004AA28462168B8
:108CC000FEF745FD65E06068026828462168FEF70A
:108CD0003EFD5EE0606880470646324628462168D1
:108CE000FEF735FD55E0606800782B4B53F82020E7
:108CF00028462168FEF72BFD4BE0606890F90020C4
:108D000028462168FEF723FD43E060680068667A24
:108D10000123B340184201D0012000E000201E4B87
:108D200053F8202028462168FEF711FD31E02BE0A2
:108D30006068007861684978CDE9001060688378E0
:108D4000C27828462168FEF702FD22E061680988A2
:108D500088B202F061FE03906168098888B202F06F
:108D60005BFE02906168098888B202F055FE0190AE
:108D70009DF80E0000909DF809309DF804202846CB
:108D80002168FEF7E4FC04E028462168FEF7DFFCDA
:108D900000BF00BF1DB0F0BD9C00002000BFFEE77B
:108DA000054A1168486802E009684A6810440A6880
:108DB000002AF9D1704700007400002002460A4BD7
:108DC0001868002106E0A2F10803834200D107E001
:108DD000014600680368002BF5D101B10B607047B4
:108DE00003680B6000BFFAE77400002005490860C3
:108DF0000021044A126811600821024A1268516079
:108E0000704700007400002010B503461048016848
:108E100003F1080083B20FE00868401A4C68001B99
:108E2000984208D3486842185360086810600A6086
:108E300002F1080010BD096808680028ECD14868F4
:108E400042180020106053600A6002F10800F1E748
:108E500074000020014600200A4602E00C32431C48
:108E6000D8B2137A002BF9D1704730B5039C7E2518
:108E700005707F25057382704170C373447330BDE4
:108E80002DE9F05F06460C4691469A46DDF828B07B
:108E90000C9F002584F8039084F804A084F808B09F
:108EA000678117B1F81CE08001E00020E0802278A3
:108EB0002846691C8DB23254E07B50B9A27828460E
:108EC000691C8DB2325462782846691C8DB23254C6
:108ED0000CE0E07B012809D162782846691C8DB23C
:108EE0003254A2782846691C8DB23254E278284662
:108EF000691C8DB2325422792846691C8DB23254D5
:108F0000E08802122846691C8DB23254A2792846A4
:108F1000691C8DB23254BFB1227A2846691C8DB2C9
:108F20003254608902122846691C8DB23254A27AEA
:108F30002846691C8DB23254628971190B98FCF76E
:108F400065FF6089284485B2607B012810D12946DD
:108F5000304603F04BFC80464FEA28222846691C25
:108F60008DB232542846691C8DB206F800800BE0A1
:108F7000607B022808D1681E81B2304603F072FC83
:108F800029466A1C95B27054227B2846691C8DB212
:108F900032542846BDE8F09F2DE9F05F06468B4627
:108FA00014460025AA460120A07329466D1C705C5A
:108FB0002178884200D099E0E07B50B92846691CAE
:108FC0008DB2305C6178884200D093E0681C85B235
:108FD00020E0E07B01281DD12846691C8DB216F8DF
:108FE0000080A078404501D0012000E00020B8F1C9
:108FF000FF0F01D0012100E00021084200D079E0FC
:10900000681C85B2B8F1FF0F02D14FF0010901E0F1
:109010004FF000092846691C8DB2305CE07028468C
:10902000691C8DB2305C20712846691C8DB2305CA1
:10903000E080E0884FF6FF7101EA0020E080E088E0
:1090400029466A1C95B2715C0843E080E08800B351
:109050002846691C8DB2305C20722846691C8DB28E
:10906000305C608160894FF6FF7101EA0020608109
:10907000608929466A1C95B2715C08436081AA46E2
:109080006089284485B2E1886089C01C814200D093
:1090900034E0607B022809D12946304603F0E2FB28
:1090A0000746715DB94200D01CE010E0607B0128EA
:1090B0000CD12946304603F099FB0746701901216F
:1090C000FFF780F8B84200D00CE000E000BFB9F133
:1090D000010F02D10620A07301E00020A0735046CA
:1090E000BDE8F09F0220A0730020F9E70520A073DF
:1090F0000020F5E70620A0730020F1E70120A0730F
:109100000020EDE77047000070B5002100230F221A
:10911000C4780CB3164C246804F4E064C4F5E0642D
:10912000210AC1F10403CA40447804FA03F18478A7
:109130001440214309010F4C0678A155047804F02E
:109140001F050124AC4005786D114FF0E02606EBB9
:109150008505C5F8004109E0047804F01F050124E5
:10916000AC40054D0678761145F8264070BD0000EC
:109170000CED00E000E400E080E100E00249014382
:10918000024A1160704700000000FA050CED00E093
:10919000024A0A400243024B1A60704780FFFF1FD9
:1091A00008ED00E010B588B0002269460BA000F081
:1091B00051FA044674B16846FCF710FF50B105221D
:1091C000694609A0FDF70EFC0B220C490DF10200C7
:1091D000FCF71CFE204608B010BD000041542B4394
:1091E0005343413F0D0A0000B6CCD0C5D6D0D0C401
:1091F000BAC5C2EB3A5B25735D000000289E0020D3
:1092000010B5032101A0FDF7EDFB10BD5056445FE2
:1092100049525148616E646C6572000070470000ED
:1092200010B5032209A10BA0FDF7DCFB03220DA161
:1092300010A0FDF7D7FB0322124913A0FDF7D2FBC4
:109240000322164916A0FDF7CDFB10BD5450353052
:10925000322D5400426F6172645F4E616D653A2534
:109260007300000053544D33324C31353152425467
:10927000360000004350555F4D6F64656C3A2573AE
:109280000000000000127A004370755F4F53435F87
:10929000465245513A2025644D687A0000A24A049E
:1092A0004370755F467265713A2025644D687A0097
:1092B0007047000000B585B06846FEF72BFE03221C
:1092C000694602A0FDF78EFB05B000BD4F6E6C79BC
:1092D00049443A25730000007047000010B503218F
:1092E00008A0FDF77FFBFFF79BFFFFF7E1FFFFF70C
:1092F000E1FFFDF7A1FC00F013F8FFF7EDFF00F030
:109300002FF810BD0A546F732053797374656D2064
:1093100053746172742E2E2E2E2E2E2E2E2E2E0073
:1093200010B5FEF723FF044603232246142102A0B2
:10933000FDF758FB10BD00005461736B506F6F6CEC
:1093400053697A653A2564206275742068617320D8
:109350002564207461736B206372656174652E00EF
:1093600038B500241DE004EB44001549096801EB01
:109370000010C06A98B10320009004EB440010492B
:10938000096801EB0010038C04EB44000C490968E8
:1093900001EB00102146C26A0AA0FDF723FB601C06
:1093A000C4B2142CDFDB601EC4B2FFF7F9FC054623
:1093B00003232A4649F6404107A0FDF713FB38BDB9
:1093C000600000205461736B5B25645D4E616D65C8
:1093D0003A257328256429004D656D6F72795369AC
:1093E0007A653A25642062757420757365723A2532
:1093F000640000002DE9F04105460E46174605229F
:10940000294608A0FDF7EEFA002407E0325D0523A7
:10941000214605A0FDF7E6FA601C84B2BC42F5DBEC
:10942000BDE8F081257300004275665B25645D3DF3
:10943000307825780000000010B500F03BFB0446B2
:109440002CB10522214606A0FDF7CCFA03E0052148
:1094500008A0FDF7C7FA4FF4FA6003F0F7FB10BD60
:10946000B7A2CBCDC5E4D6C3D6A1CAA7B0DC5B25D5
:10947000645D0000B7A2CBCDC5E4D6C3D6A14F4BE7
:109480000000000000B599B00948B0F8AA3000F11A
:10949000890208A16846FEF75AF9052269460CA020
:1094A000FDF7A0FA6846FEF7BFFB19B000BD00004B
:1094B0004C9D002041542B51494F50454E3D225464
:1094C0004350222C222573222C25640D0A00000013
:1094D000C1ACBDD3B5BD3A257300000010B54FF443
:1094E0007A7229A129A0FEF743FB08B9012010BD1B
:1094F00000F096F8284981F8CE00052127A0FDF755
:1095000071FA052128A0FDF76DFA4FF47A7229A1AE
:1095100029A0FEF72DFB02234FF47A7229A126A081
:10952000FEF732FB20B9052127A0FDF75BFA03E027
:10953000052127A0FDF756FA02234FF47A7226A1DF
:1095400027A0FEF721FB40B1052128A0FDF74AFA2C
:109550000220114981F8CF000FE002234FF47A7204
:1095600026A11FA0FEF710FB38B1052125A0FDF7AD
:1095700039FA0420084981F8CF00052125A0FDF71C
:1095800031FA0020B3E700002139390041542B4360
:1095900053510D0A000000004C9D0020BCECB2E9C4
:1095A000D0C5BAC500000000D5FDD4DAD7A2B2E11B
:1095B000000000003000000041542B435245473F5B
:1095C0000D0A000035000000B1BEB5D8BFA80000EC
:1095D000CDE2B5D8BFA800004D4F42494C45000030
:1095E00041542B434F50533F0D0A0000D6D0B9FAD7
:1095F000D2C6B6AF53494DBFA8000000554E4943EF
:109600004F4D0000D6D0B9FAC1AACDA853494DBFDD
:10961000A8000000D7A2B2E1B3C9B9A600000000BB
:1096200008B5694605A000F06FF89DF80010052206
:1096300005A0FDF7D7F99DF8000008BD41542B4364
:1096400053510D0A00000000D0C5BAC5C7BFB6C847
:109650003A2564002DE9F84F82460C4617464FF034
:1096600000080020009081465146254804F0C1F9C9
:1096700024494FF4967248680021FCF7D8FB4FF458
:109680007A73322200211E4804F032F900F0FF0BF9
:10969000BBF1000F30D00020207000252AE01948CF
:1096A0004068465D302E01DB012000E00020392EAD
:1096B00001DC012100E00021084209D04F4504D11E
:1096C0004046411C01F0FF082654012000900FE0A5
:1096D000009868B14F4505D100224046411C01F079
:1096E000FF0822540020009009F1010000F0FF095A
:1096F000681CC5B25D45D2DB4046BDE8F88F00006E
:1097000000440040D00000202DE9F04780460C4680
:109710000025AA464146234804F06BF922494FF43C
:10972000967248680021FCF782FB4FF47A7332226C
:1097300000211C4804F0DCF800F0FF09B9F1000F2B
:109740002CD000202070002626E017484068875D56
:10975000302F01DB012000E00020392F01DC012146
:1097600000E0002108420DD0605D00EB8000400663
:10977000000E6055615DA7F13000084460554FF060
:10978000010A07E0BAF1000F04D0681CC5B200203E
:1097900060558246701CC6B24E45D6DB2846BDE8F1
:1097A000F087000000440040D000002010B50821E0
:1097B0003F48FEF7F8F83F48006920F020003D4997
:1097C000086140F24C4003F041FA05213AA0FDF750
:1097D00009F908213648FEF7E4F840F24C4003F05E
:1097E00035FA04213248FEF7DEF840F24C4003F02F
:1097F0002DFA052133A0FDF7F5F804212C48FEF7DA
:10980000D0F84FF47A7003F021FA4FF480713048A9
:10981000FEF7BEF8012804D105212EA0FDF7E2F8DD
:1098200001E0012010BD43F2B06003F00FFA4FF4E5
:109830007A722BA12BA0FEF79BF908B90220F1E761
:1098400005212AA0FDF7CEF84FF47A7003F0FEF957
:109850004FF4FA6222A129A0FEF78AF908B9032081
:10986000E0E7052127A0FDF7BDF84FF47A721CA1AF
:1098700027A0FEF77DF908B90420D3E70D48006959
:1098800040F020000B490861052124A0FDF7AAF84B
:10989000FFF724FE04462CB10522214623A0FDF744
:1098A000A1F803E0052125A0FDF79CF80020B9E709
:1098B000001001404C9D002047505253C9CFB5E7DE
:1098C0000000000047505253BFAABBFA000000003E
:1098D00000080140BFAABBFAB3C9B9A60000000046
:1098E0004F4B000041540D0A000000004154D6B80F
:1098F000C1EED6B4D0D0B3C9B9A6000041544530AA
:109900000D0A0000C9E8D6C3B2BBBBD8CFD4000053
:1099100041542B4350494E3F0D0A0000B2E9BFB4F9
:10992000CAC7B7F1D3D050494E000000C1ACBDD377
:10993000CDF8CAA7B0DC5B25645D0000C1ACBDD327
:10994000CDF8C2E7B3C9B9A60000000010B50446BF
:109950004FF47A7003F07AF94FF47A7220A122A0C2
:10996000FEF706F908B9012010BD8CB94FF47A72E0
:1099700024A125A0FEF7FCF808B90220F4E74FF473
:109980007A7220A123A0FEF7F3F808B90420EBE7D0
:10999000012C11D14FF47A721AA123A0FEF7E8F836
:1099A00008B90320E0E74FF47A7216A119A0FEF778
:1099B000DFF808B90420D7E74FF47A7211A11DA08F
:1099C000FEF7D6F808B90520CEE74FF47A720DA15C
:1099D0001EA0FEF7CDF808B90620C5E70020C3E7B2
:1099E00043504D530000000041542B43504D533D14
:1099F000224D54222C224D54222C224D54220D0A49
:109A0000000000004F4B000041542B434D47463DA2
:109A1000300D0A0041542B435343533D22554353C9
:109A200032220D0A0000000041542B434D47463DB1
:109A3000310D0A0041542B43534D503D31372C31E9
:109A400036372C302C380D0A0000000041542B43CF
:109A50004E4D493D322C312C302C302C300D0A002B
:109A600070B504460D494FF4967248680021FCF722
:109A7000DEF921460A4803F0BCFF4FF47A734FF435
:109A800096720021064803F033FFC5B22DB103489A
:109A90000522416803A0FCF7A5FF70BDD00000209F
:109AA00000440040B6C1B6CCD0C5B7B5BBD83A2546
:109AB0007300000010B5B2B000243A4890F8B0002E
:109AC00010F0200F44D0052137A0FCF78BFF40F6A3
:109AD000B83003F0BBF80DEB0401102231485130CF
:109AE000FCF794F9204484B20522214632A0FCF709
:109AF00079FF224634A1384803F07BFF4FF4FA6126
:109B000036A0FDF789FF00B10EE04FF4FA6133A0F3
:109B1000FDF782FF00B107E04FF4FA612FA0FDF7D7
:109B20007BFF00B100E000BF224669462A4803F0EF
:109B300050FF4FF47A712AA0FDF76EFF10B9022092
:109B400032B010BD4FF4FA60FEF7E8F80020F7E7F6
:109B5000052125A0FCF746FF0DEB0401102211485A
:109B60005130FCF753F9204484B2224616A11A481A
:109B700003F03FFF4FF47A7003F068F8052269465E
:109B80001DA0FCF72FFF22466946134803F021FF72
:109B90004FF47A7112A0FDF73FFF08B90220CFE71A
:109BA0000020CDE74C9D0020C5E4D6C3CEAA4A2DA7
:109BB000544350D0ADD2E900B7A2CBCDC5E4D6C353
:109BC0005B25645D0000000041542B514953454E14
:109BD000443D25640D0A0000004400403E000000A2
:109BE00053454E44204F4B00C5E4D6C3CEAA544340
:109BF00050D0ADD2E9000000B7A2CBCDC5E4D6C3AA
:109C00003A2573002DE9F047ADF5007D0024824828
:109C100090F8B00010F0200F76D003A908197FA1AA
:109C2000FEF722FA204484B27B490868FBF76BFDFB
:109C300005460B4603A908192A467DA1FEF714FA2A
:109C4000204484B274494868FBF75DFD05460B4625
:109C500003A908192A4676A1FEF706FA204484B221
:109C60006D498868FBF74FFD05460B4603A90819A7
:109C70002A466FA1FEF7F8F9204484B2664991F8AC
:109C8000CE00FBF7E2FC0746FBF73DFD05460B4621
:109C900003A908192A4666A1FEF7E6F9204484B212
:109CA0005D49D1F8D400FBF72EFD05460E465A4912
:109CB000D1F8D800FBF727FD07460B4603A9081982
:109CC0003A465FA1CDE90056FEF7CEF9204484B2B2
:109CD00003A9081960A1FEF7C7F9204484B2052240
:109CE00003A95EA0FCF77EFE22465FA1624803F056
:109CF00080FE4FF4FA6161A0FDF78EFE28B90120C5
:109D00000DF5007DBDE8F08711E0224603A95A4811
:109D100003F05FFE4FF47A7159A0FDF77DFE08B99C
:109D20000220EDE74FF4FA60FDF7F8FF71E03A49E1
:109D300008680021FBF748FD02D84FF02B0901E02D
:109D40004FF02D09344948680021FBF73DFD02D84A
:109D50004FF02B0A01E04FF02D0A2F490868FBF75E
:109D6000D2FC4A46CDE9000147A103A8FEF77CF9E1
:109D70000446294A11685068FBF71CFD0BD226499E
:109D80004868FBF7C0FC5246CDE900013EA103A89C
:109D9000FEF76AF904462048008A10F4807F0CD050
:109DA0001D490868FBF7AFFC4A46CDE9000136A122
:109DB00003A8FEF759F9044610E01748008A10F48A
:109DC000007F0BD014494868FBF79DFC5246CDE953
:109DD00000012DA103A8FEF747F90446224622A15F
:109DE000254803F006FE4FF47A7002F02FFF05229B
:109DF00003A91AA0FCF7F6FD224603A91E4803F0AA
:109E0000E8FD4FF47A711EA0FDF706FE08B90220A6
:109E100076E7002074E700004C9D00207B227365EC
:109E20006E736F724461746173223A5B00000000CC
:109E30007B2276616C7565223A252E32667D2C0078
:109E40007B226C6174223A252E37662C226C6E6759
:109E5000223A252E37667D005D7D0000B7A2CBCD6E
:109E6000CAFDBEDD3A25730041542B514953454E7E
:109E7000443D25640D0A0000004400403E000000FF
:109E800053454E44204F4B002354503330302C2543
:109E90006330252E31662C302E30300D0A00000044
:109EA00030B5B3B00025002400BF3C4890F8B000A6
:109EB00010F0200F54D024B939A101A801F0E0FC22
:109EC0000546012C04D138A101A801F0D9FC0546B2
:109ED000022C04D138A101A801F0D2FC0546032CC4
:109EE00004D138A101A801F0CBFC0546042C04D113
:109EF00037A101A801F0C4FC0546632C04D137A1A9
:109F000001A801F027FD0546052201A936A0FCF7AE
:109F100069FD2A4636A13A4803F06BFD4FF4FA6119
:109F200038A0FDF779FD10B9012033B030BD2A46C5
:109F300001A9334803F04DFD4FF47A7132A0FDF7CB
:109F40006BFD08B90220F0E74FF4FA60FDF726FF39
:109F500008B90020E9E701F063FB0446DCB1A4E79F
:109F600001A92BA001F0BAFA05462A4620A12448EF
:109F700003F03FFD4FF47A7002F068FE2A4601A913
:109F80001F4803F026FD4FF47A711FA0FDF744FD32
:109F900008B90220C9E70020C7E700004C9D002057
:109FA0006564697400000000616C61726D5F6D6FC3
:109FB00062696C6500000000616C61726D5F7661C2
:109FC0006C756500757365725F67726F7570000000
:109FD000666F727363656E650000000022656469D8
:109FE00074223A2230220000B7A2CBCD3A2573006A
:109FF00041542B514953454E443D25640D0A000000
:10A00000004400403E00000053454E44204F4B00AA
:10A01000303030300000000070B5EAB00646002451
:10A02000002500BF022C02DD28466AB070BD214623
:10A03000621CD4B201EB410202EBC1021F4950186D
:10A040000B2265A9FBF7E2FE00208DF89F0165A8B1
:10A05000FBF7C4FF00B9E5E70120FFF777FC01A992
:10A0600065A8FDF7A2FB00208DF8300001AA14A11D
:10A07000174803F0BEFC052265A916A0FCF7B2FC48
:10A080004FF47A7002F0E2FD01A93046FDF78DFB36
:10A090003046FEF75FF801A9002201F820200C48A5
:10A0A00003F0A7FC1A210A4803F08AFC4FF47A71E6
:10A0B0000BA0FDF7B1FC681CC5B2B3E77C9D002086
:10A0C00041542B434D47533D222573220D0A000076
:10A0D00000440040B7A2CBCDB5BD5B25735D000049
:10A0E000434D4753000000002DE9F043CDB001225D
:10A0F00057A102A8FDF7B8FF02A8FFF7B1FC584925
:10A10000486858A101F01DFA8146002202A948467C
:10A11000FDF7D7F902A902A801F07AF902A8FEF723
:10A1200019F8022806DA05214FA0FCF75BFC4DB0B8
:10A13000BDE8F083052202A94EA0FCF753FC02A85B
:10A14000FEF708F80B2806DAFEF73EFD05214BA0C6
:10A15000FCF748FCEBE74EA1484601F0F2F98146D6
:10A16000002202A94846FDF7ACF902A902A801F0B5
:10A170004FF9052202A94BA0FCF734FC4BA102A821
:10A1800001F0DFF9C0B1FEF71FFD49494868FBF750
:10A19000BAFA05460E4646490868FBF7B4FA074680
:10A1A0003A460B4643A102A8CDE90056FDF75CFFF5
:10A1B00002A8FFF731FFBAE743A102A801F0C1F9F5
:10A1C00018B1FEF701FDFEF7EBFC40A102A801F07B
:10A1D000B8F970B1FEF7F8FC3DA227A102A8FDF77F
:10A1E00043FF0446002002A9085502A8FFF714FF08
:10A1F0009DE73CA102A801F0A4F970B1FEF7E4FCD0
:10A2000039A21DA102A8FDF72FFF0446002002A9D4
:10A21000085502A8FFF700FF89E738A102A801F05E
:10A2200090F970B1FEF7D0FC35A213A102A8FDF79A
:10A230001BFF0446002002A9085502A8FFF7ECFE08
:10A2400075E7FEF7C1FC33A0FFF7E6FE00BF6EE73F
:10A2500041542B434D47523D25640D0A0000000038
:10A26000D0000020222C2200DFE3D3D0D0C2CFFBCD
:10A27000CFA200004E756D3A25730000B2BBCAC76D
:10A28000C8CBB7A2B5C4D6B1BDD3C9BE00000000CB
:10A290003030343330303444303034343030334183
:10A2A000000000004D73673A257300003031000054
:10A2B0004C9D00204348313D252E32662C434832C8
:10A2C0003A252E32660000003032000030330000A4
:10A2D000D4DDB2BBD6A7B3D65B30335DD6B8C1EE02
:10A2E0000000000030340000D4DDB2BBD6A7B3D6E6
:10A2F0005B30345DD6B8C1EE0000000030350000A0
:10A30000D4DDB2BBD6A7B3D65B30355DD6B8C1EECF
:10A3100000000000434D443A303128D2A3B2E22974
:10A320002C434D443A303228D6D8C6F4292CC6E402
:10A33000CBFB3AB0EFD6FA0001460020034A506842
:10A3400020F4404008435060704700000010024075
:10A3500029B1064A52690243044B5A6104E0034A98
:10A3600052698243014B5A6170470000001002405D
:10A3700029B1064AD2690243044BDA6104E0034A78
:10A38000D2698243014BDA6170470000001002403D
:10A3900029B1064A92690243044B9A6104E0034AD8
:10A3A00092698243014B9A6170470000001002409D
:10A3B00030B500210022002400232D4D6D6805F0EA
:10A3C0000C0121B1042905D0082923D105E0294D2C
:10A3D000056022E0274D05601FE0254D6D6805F4FE
:10A3E0007012234D6D6805F48034022505EB92420E
:10A3F0001CB9214D554305600BE01D4D6D6815F4EA
:10A40000003F03D01C4D5543056002E0194D5543F4
:10A41000056002E0174D056000BF00BF144D6D6878
:10A4200005F0F0010909154D6B5C0568DD404560DC
:10A430000F4D6D6805F4E061090A104D6B5C4568CD
:10A44000DD4085600A4D6D6805F46051C90A0B4D09
:10A450006B5C4568DD40C560054D6D6805F44041A5
:10A46000890B074D6B5CC568B5FBF3F5056130BD25
:10A470000010024000127A0000093D000000002098
:10A480001000002010B5032101A0FCF7ABFA10BDAD
:10A490005243435F49525148616E646C65720000DB
:10A4A00010B5032101A0FCF79DFA10BD52544341A1
:10A4B0006C61726D5F49525148616E646C657200E7
:10A4C00000B599B040F2DC5307A20BA16846FDF736
:10A4D0003EF9052269460FA0FCF784FA6846FDF7AD
:10A4E000A3FB19B000BD00006C696E6B2E746C6923
:10A4F0006E6B2E696F00000041542B51494F50453F
:10A500004E3D22544350222C222573222C25640DCB
:10A510000A000000C1ACBDD3B5BD3A2573000000F0
:10A5200010B59AB0002401A9081915A1FDF79CFDEA
:10A530000444052201A917A0FCF754FA224618A1E9
:10A540001B4803F056FA4FF4FA611AA0FDF764FABB
:10A5500010B901201AB010BD224601A9144803F019
:10A5600038FA4FF47A7114A0FDF756FA08B90220B0
:10A57000F0E74FF4FA60FDF7D1FB0020EAE70000B6
:10A58000313233343536373839313233343541426C
:10A5900000000000B7A2CBCDCDB73A257300000074
:10A5A00041542B514953454E443D25640D0A00004A
:10A5B000004400403E00000053454E44204F4B00F5
:10A5C00030B5D7B0002500BF00240CA9081971A12F
:10A5D000FDF74AFD04440CA908196FA1FDF744FDDD
:10A5E00004440CA9081970A1FDF73EFD04440CA910
:10A5F000081979A1FDF738FD0444E9B202A8FDF776
:10A6000049FC0CA9081902AA77A1FDF72DFD044405
:10A610000CA9081979A1FDF727FD044400200CA915
:10A6200000900819042303227AA1FDF71DFD0444BC
:10A630000CA908197EA1FDF717FD044407A8FDF732
:10A640004BFE0CA9081907AA7FA1FDF70DFD2044B8
:10A6500084B20CA9081984A287A1FDF705FD204446
:10A6600084B205220CA989A0FCF7BCF922468AA174
:10A670008D4803F0BEF94FF4FA618CA0FDF7CCF9D8
:10A6800010B9012057B030BD22460CA9864803F00E
:10A69000A0F94FF47A7186A0FDF7BEF908B902203F
:10A6A000F0E74FF4FA60FDF739FB83484068007823
:10A6B00030281AD1804840684078312815D10522C9
:10A6C00029467EA0FCF78EF9681C85B20522294632
:10A6D0007FA0FCF787F93C2D06DD0522294681A0E5
:10A6E000FCF780F9E8B2CDE76EE773484068007880
:10A6F00030284DD1704840684078302848D1052234
:10A7000029467EA0FCF76EF90121814880F8B4103B
:10A7100040F25B71A0F8AA107E4981617E49C16157
:10A720007C4901627C4941623C2180F8B5100521D9
:10A7300080F8B610D0F8B00040F020017448C0F89E
:10A74000B01000F1890175A000F0C8FE70496131B8
:10A7500075A000F0C3FE0B226D49303174A0FBF7E9
:10A7600055FB6B49753175A000F0B8FE00216848B3
:10A77000C0F8B810C0F8BC10102200F1510102A8B6
:10A78000FBF744FB01F0C2FE01F0A6FA002079E7D6
:10A790001AE700007B000000226D6574686F642278
:10A7A0003A2231222C00000022656E745F6B6579BD
:10A7B000223A226637363231356661643337643483
:10A7C0006135666166316336366134366464663598
:10A7D000306664222C000000226465766963655F40
:10A7E0006964223A22222C00226465766963655FDF
:10A7F0006E6F223A222573222C00000022646576B7
:10A800006963655F6E616D65223A22CEC2CAAAB6DF
:10A81000C8222C002268775F76657273696F6E229A
:10A820003A2225642E25642E2564222C0000000087
:10A83000226465765F6D6F6465223A22545035302C
:10A84000322D54222C000000226372656174655F12
:10A8500064617465223A2225732031363A31313AE7
:10A860003537222C0000000053544D33324C313523
:10A870003152425436000000226D63755F6D6F6483
:10A8800065223A222573227D00000000B7A2CBCDBD
:10A89000C4DAC8DD2573000041542B514953454E9D
:10A8A000443D25640D0A0000004400403E000000C5
:10A8B00053454E44204F4B00D0000020C9E8B1B8AA
:10A8C000D7A2B2E1CAA7B0DC5B25645D000000003E
:10A8D000D4D9B4CEB3A2CAD4D7A2B2E15B25645D09
:10A8E00000000000B7FECEF1C6F7CAFDBEDDBFE234
:10A8F000B4EDCEF35B25645D00000000C9E8B1B89B
:10A90000D7A2B2E1B3C9B9A65B25645D000000001F
:10A910004C9D002000008442000080BF746C696E72
:10A920006B2E696F00000000CDD8C6D5C8F00000BE
:10A93000313332363732313632343700CBABCEC2D8
:10A940000000000010B5032101A0FCF74BF810BD7A
:10A95000535049315F49525148616E646C657200D1
:10A9600010B5032101A0FCF73DF810BD535049324A
:10A970005F49525148616E646C65720010B50321E5
:10A9800001A0FCF72FF810BD535049335F495251D5
:10A9900048616E646C65720021B1028842F0400229
:10A9A000028004E002884FF6BF731A4002807047AD
:10A9B00070B505460C46164610211048FCF7F1FF0D
:10A9C000032000F05DF9C4F3074000F059F9C4F327
:10A9D000072000F055F9E0B200F052F904E0FF2042
:10A9E00000F04EF928706D1C3000A6F101018EB206
:10A9F000F5D110210148FCF7D6FF70BD00080140D9
:10AA00002DE9F05F07460E4614464FF00008C14698
:10AA1000C2460025AB4606F0FF0ACAF10000C5B2E7
:10AA20002046E11704EB1151C1F30738E11704EB9D
:10AA300011510913A4EB013101F0FF09BAF1000F24
:10AA400020D1B8F1000F05D122463146384600F03A
:10AA5000C5F864E009E04FF480523146384600F012
:10AA6000BDF806F5805607F580575FEA0800A8F1A3
:10AA7000010101F0FF08EED14A463146384600F0A8
:10AA8000ADF84CE0B8F1000F18D1A94510DDA9EBE5
:10AA9000050000F0FF0B2A463146384600F09EF8CC
:10AAA0002E442F445A463146384600F097F836E097
:10AAB00022463146384600F091F830E0601B84B2FF
:10AAC0002046E11704EB11514FEA2138E11704EB5E
:10AAD00011510913A4EB013101F0FF092A46314657
